:0300030002166E74
:10166E00C0E0C0F0C083C082C0D075D000C000C042
:10167E0001C002C003C004C005C006C0071219E1B4
:10168E0012147E121BC9D007D006D005D004D00389
:10169E00D002D001D000D0D0D082D083D0F0D0E014
:0116AE003209
:101BB200E4F5A8758955D2A8D2A9D2ABD288D2AF02
:071BC2007587807590FF227A
:10172B00121BB21218B3121CD3121D71121A7112A2
:10173B0016EF121D1B121BE0121CE1EF60061203C9
:10174B00F9120984121C0C8F2EE52EB40103121C06
:0B175B0037E52EB402DF121C4B80DAD1
:100BE400013F017F0000000000000000023C017E84
:100BF40001EC01ED00000298017D0296017C029C4B
:100C040002800282028402860288028A028C028E98
:100C140002900292029400000000029A0000000078
:100C2400000002000202020402060208020A020C88
:100C3400020E01100211021302150317021A021CFC
:100C4400021E02200222022402260228022A032C67
:100C5400022F023102330000000000000000029E57
:100C6400000002400242024402460248014A024B8A
:100C7400024D014F015002510153035402570259CE
:100C8400025B02600262026402660268026A036C2A
:100C9400026F027102730000000000000BF002FEFC
:040CA4000C3F1C6283
:031D6D00012B0146
:03000B000208B335
:1008B300C0E0C0F0C083C082C0D0E52A14B40900F0
:1008C30040030209739008D675F003A4C58325F08D
:1008D300C583730208F102090602090E020919020F
:1008E300092F02093A02094502095D02096BE5294C
:1008F30030E10B30E405752CD08003752C50752A3C
:10090300028024532CBF752A038027752C00752A77
:1009130004758AAE804DE52930E209752C6090A0FC
:1009230000E52CF0752A05758AFF8037532CBF75B7
:100933002A06758AEA802C752C00752A07758AC3E6
:100943008021E52930E30B30E505752CF080037534
:100953002C70752A08758AFF8009532CBF752A09E4
:10096300758AEA758CFF8008752C00752A00C28C85
:1009730090A000E52CF0D0D0D082D083D0F0D0E08E
:010983003241
:1019E100E52A640A6021752A01E52930E6065329B2
:1019F100BF432904E52930E70653297F5390F77542
:081A01008AD4758CFFD28C22FF
:100CA8008F33E53364016009E53364026003020DA4
:100CB80047E533B401047F0580027F008F37E533B1
:100CC8007C00B401047D1280027D1C753F007540D4
:100CD800007541367B007A007908120B1D8E388F1B
:100CE80039E539453860457C007D021200D8C37467
:100CF800369FF535E49EF53474082536F8E4F6E5B4
:100D08002AB537FBE533B401047F0180027F031263
:100D180018E7E5337E00B401047F0180027F037B7E
:100D2800007A007908AD35AC340206AAE52AB53751
:100D3800FBE533B401047F0180027F031218E72228
:1003F900E52AB408FB75340275351DE52830E2039A
:100409000205085403F5336402704A121D68121577
:10041900A27B007A007934E53375F00A84ADF012D5
:1004290015B17B007A0079347D0B1215B1121D6369
:100439001215A27B007A007934E53375F00A84AD90
:10044900F01215B17B007A0079347D0B1215B112C7
:100459001D4B0204F4E53364037049121D63121540
:10046900A27B007A007934E53375F00A84ADF01285
:1004790015B17B007A0079347D0B1215B1121D6814
:100489001215A27B007A007934E53375F00A84AD40
:10049900F01215B17B007A0079347D0B1215B11277
:1004A9001D4B8047121D4B1215A27B007A0079342F
:1004B900E53375F00A84ADF01215B17B007A007945
:1004C900347D0B1215B1121D631215A27B007A003F
:1004D9007934E53375F00A84ADF01215B17B007AF1
:1004E9000079347D0B1215B1121D681215A27B001B
:1004F9007A007934E53375F00A84ADF01215B175D7
:10050900340275353FE52830E603020596121D7D54
:100519008F36E5285430FFC4540FF533B40314E57E
:1005290036D3940C400674F42536F536E536700357
:1005390075360CE5361215A67B007A007934E53656
:1005490075F00A84ADF01215B17B007A0079347D1B
:100559000A1215B1121D801215A27B007A00793496
:10056900E53375F00A84ADF01215B17B007A007994
:10057900347D0A1215B1121D831215A27B007A006F
:0E0589007934E53375F00A84ADF01215B12215
:100B1D008C3D8D3E8B3A8A3B893C121C228F42E4E0
:100B2D00F543F544F545F546C3E54695427480F821
:100B3D006545984003020BD4AB3AAA3BA93C8546C8
:100B4D0082854583120099FF5480FD3395E04D60F9
:100B5D0010EF547F75F002A424A4F9740C35F080C5
:100B6D0022AB3AAA3BA93C85468285458312009962
:100B7D00FF3395E0FEEF25E0FFEE33FE74A42FF971
:100B8D00740B3EFA7BFF8B478A488949120080FD22
:100B9D007C002544FFEC3543FED3EF953EE53D64E7
:100BAD0080F8EE648098400AAB3FAA40A941E54623
:100BBD00801DED2544F544EC3543F5430546E546EA
:100BCD0070020545020B35AB3FAA40A941E5421223
:070BDD0000C6AE43AF442245
:1016EF00752A0A120E6D752A02908000740CF09004
:1016FF00A000E4F0F529752811F52CFB7A00790884
:10170F007536207F30121D11121C377B007A00793D
:0C171F00087536207F50121D11021C4B73
:100FF100852832EFF45228ED4228E53220E208E557
:101001002830E20312194DE53220E608E52830E6E2
:101011000312191AE5325433FFE5285433B5071486
:10102100E53230E205E52830E20AE53230E608E54E
:101031002820E6031203F9E52830E20320E6034302
:101041002940E52830E20630E6035329FBE5283044
:0F105100E309E59030E30743298022439008220A
:101C3700E50860047D028002E4FD7F02121D547FE7
:041C470001020CA8E2
:101C4B00E50860047D088002E4FD7F08121D547FC7
:041C5B0002020CA8CD
:1017660078087C007D007BFF7A1C79B51203711224
:101776001C377B007A0079087F30121B4978087C79
:10178600007D007BFF7A1C79BD120371121C4B7B16
:0A179600007A0079087F50021B4919
:101A2E00E4F508121C377B007A0079087F30121B10
:101A3E0049E4F508121C4B7B007A0079087F5002AE
:021A4E001B4932
:101512008F32E532C39408501CE532952B5038E5E2
:10152200324480F508E4F509121C4B7B007A0079FD
:10153200087F50801F74F82532F532D3952B50174F
:10154200E5324480F508E4F509121C377B007A0085
:0815520079087F30121B4922C9
:100E6D0090A0007410F0E4FFFEE42FFDEE34408DF1
:100E7D0082F583743FF00FBF00010EE4B507EAEE73
:100E8D00B401E690A0007420F0E4FEFFE42FFDEE27
:100E9D0034418D82F583743FF00FBF00010EE4B530
:100EAD0007EAEEB401E690A0007430F0E4FEFFE432
:100EBD002FFDEE34428D82F583743FF00FBF00019C
:100ECD000EE4B507EAEEB401E690A000E4F0FEFFF3
:100EDD00E42FFDEE34438D82F583743FF00FBF0098
:0B0EED00010EE4B507EAEEB401E622B6
:1018E700AD07E4FBFAEDFEE42400FFEE3440CF2B16
:1018F700CF3A8F82F583743FF00BBB00010AE4B542
:1019070003E3EAB401DFBD01035329EFBD0303532A
:0319170029DF22A3
:10191A0075330275343FE52AB4050A858A35E58AA6
:10192A00B535F380F9E4FFE42534FDE5333440FCB2
:10193A00EF7A002DFDEA3C8D82F583743FF00FBFEC
:03194A0010E52283
:10194D0075330275341DE52AB4050A858A35E58A95
:10195D00B535F380F9E4FFE42534FDE5333440FC7F
:10196D00EF7A002DFDEA3C8D82F583743FF00FBFB9
:03197D0010E52250
:081D5400EFF45229ED422922AF
:1006AA008E3A8F3B8C3C8D3D8B3E8A3F8940121C93
:1006BA00228E418F42E53B7F00FEEF253DF546E560
:1006CA003C3EF545E4F543F544C3E5449542E5412E
:1006DA006480F8E5436480984003020779AB3EAA38
:1006EA003FA940854482854383120099FF5480FDC7
:1006FA003395E04D6010EF547F75F002A424A4F9FD
:10070A00740C35F08022AB3EAA3FA940854482850D
:10071A004383120099FF3395E0FEEF25E0FFEE33A5
:10072A00FE74A42FF9740B3EFA7BFF8B478A488923
:10073A0049E4FFAB47AA48A949120080FEEFC39ECD
:10074A0050229000011200992FFE0546E546AC455D
:10075A0070020545142400FDEC34408D82F583EEC9
:10076A00F00F80CF0544E544700205430206D3E545
:10077A003B6401453A7014AB3EAA3FA9401200807F
:10078A0030E70543291080035329EFE53B6403450D
:10079A003A7013AB3EAA3FA94012008030E70443E7
:0707AA002920225329DF2260
:0F15A2008F33E5337B007A00793475F00A84FDCE
:1015B10074402D25E0FD12010E2400FFE5F03440BA
:1015C1008F82F583EDF0E475F001120139ED04FF2E
:1015D10012010E2400FDE5F034408D82F583EFF019
:0715E100E475F0010201397D
:041D7100E4F55C2217
:101BE000121CEFEF600F121D5CE555B40307AD54F6
:061BF000AF531213322274
:0A1D07008F538D54755505021CA67C
:101332008F2F8D30E52F12025213863C13863E13F7
:101342007C43137544136B4613754813704C137525
:101352004D13754F136652137553138154137559F8
:101362000000138DAF3002187FAF300215E8AF30A6
:1013720002155AAD30AF2F020597AF30021A50AFA7
:0C13820030020F7CAD30AF2F120A552254
:10187F008F31E53124AC600424107005121D79807E
:10188F0013E53130E70E7F14121B9AEF4408FD7FEA
:10189F00FF120FF1E53130E3047D6180027D627F3D
:0418AF0072021D079D
:1015E8008F31E53124BB601A24F4601A24FD600BA6
:1015F80024107016121D757D648023121D2F7D74B2
:10160800801C7D6580187D718014E53130E70DFD03
:101618007FF7120FF1AD317F14121C737D787F664E
:04162800121D072266
:10155A008F31E53124C1602624FD601324F9601A15
:10156A002408701E7DCC7F4C120FF17D6180237D93
:10157A00807F08120FF17D6280187D0680147D80BD
:10158A008010E53154C06008E531540FFF1215127E
:08159A007D067F6C121D072283
:100597008F318D32E532643F7065E53124BC60539D
:1005A70024F7601F24FE603F24FC602324FA602B9D
:1005B700241160030206A9121D7DEF4480FD7F68A8
:1005C7000206A6121D80EF4480FD7F6D0206A6126B
:1005D7001D83EF4480FD7F730206A6121D4BEF4477
:1005E70080FD7F790206A6121D63EF4480FD7F6FB1
:1005F7000206A6121D68EF4480FD7F640206A6E589
:10060700326449703FE53124BC602D24F76015241E
:10061700FE602024FC601224FA60132411701C125F
:100627001AEF8017121B0D8012121B2B800D121947
:10063700808008121AD18003121A92E5312420FF14
:100647007D06805BE53230E74F547FF533E5312493
:10065700BC602224FC602524FB602824FE600F2454
:10066700FC602724FA7028AF33121B658021AF3353
:10067700121D25801AAF33121C858013AF33121D4C
:1006870039800CAF33121D428005AF33121CC4E50D
:10069700312420FF7D068007E5312420FF7D0612E7
:0306A7001D07220A
:100F7C00EF24F0602224FB601924FD604024FA6009
:100F8C001124FD603F24F7601C240D70501217666D
:100F9C008047121A2E8029120EF8EF60047D1A80F9
:100FAC003E7D07803A121CFBEF6009E4FF121A0920
:100FBC007D0780077F01121A097D1A8022121849B9
:100FCC007D06801B1218128F31E531B40103121CFF
:100FDC0037E531B40203121C4B7D0680027D067F7F
:050FEC0074121D072234
:101A5000EF24EE600D24FA600E2407700D12113C85
:101A600080081210CE8003120D487D067F63021D90
:011A7000076E
:100A55008F318D32E532B41008E4F55C7D23020B4D
:100A650019E53264187034E531B43C147408255C1A
:100A7500F8E4F6121C377B007A0079087F30801283
:100A85007408255CF8E4F6121C4B7B007A007908A3
:100A95007F50121B497D06AF318079E53230E77012
:100AA500E531643C7035E55C2401FFE433FEEF6419
:100AB500204E7014F527121C377B007A0079087FC9
:100AC50030121B497D06800F53327FAF5C055C7485
:100AD500082FF8A6327D23AF318039E55C2401FF6C
:100AE500E433FEEF64204E7014F527121C4B7B0097
:100AF5007A0079087F50121B497D06800F53327F9B
:100B0500AF5C055C74082FF8A6327D23AF318004F5
:080B15007D06AF31121D07221D
:030023000212D4F2
:1012D400C0E0C0D075D000C000C0073098428599E6
:1012E4002DC298E551B40115AF56055674532FF825
:1012F400A62D7599FAE556B40303755102E551B468
:10130400041EE55664036012E52DB4FC13AF5605C4
:101314005674532FF8E6F5998006755600755101F9
:0E132400309902C299D007D000D0D0D0E0326C
:101BC900E55164016010AF520552EFC39406400617
:071BD900E4F552121D5C222D
:0E1CD300759890D2ACE4F556F5527551012289
:0C1CEF00E551B402047F0180027F002256
:071D5C00E4F5567551012268
:0F1CA600755104AF56055674532FF8E6F5992281
:101C5F00EF6008439080000043904053907F000056
:041C6F005390BF22AD
:101C960053907F0000439040000043908000002254
:101BF600EF6005439080800353907F000043904040
:061C060000005390BF2214
:101B810043908000004390400000E59030E7047FDF
:091B91000180027F005390BF2285
:0916AF0025E0F542E4FBFD7F019A
:1016B800AE07AF05EE6003121C5FE4FEE54230E7BB
:1016C800047F0180027F00121BF6E54225E0F54207
:1016D8000EBE08E8121B81EB6003121C96EF700423
:0716E8007F0180027F002258
:101AB200AE07E4FCFB121B81EC25E04FFC0BBB08DC
:0F1AC200F4AF06121BF6ED6003121C96AF042260
:101060008D388B398A3A893BAC07EC1216AFEF60AA
:1010700057853842E4FBFDFF1216B8EF604AEC25B5
:10108000E04401F542E4FB7D017F011216B8EF60F8
:1010900037E53CD39401401CE4FDFF121AB2AB3992
:1010A000053BE53BAA3A7002053A14F9EF1200C677
:1010B000153C80DD7D017F01121AB2AB39AA3AA935
:0E10C0003BEF1200C67F0122121C967F002219
:1011A7008B3A8A3B893CAC05EF1216AFEF60538C44
:1011B70042E4FBFDFF1216B8EF6047E4F53EE53E5B
:1011C700C3953D503AE53E2401FFE433FE7C00EF32
:1011D700B53D08ECB506047B0180027B00C003AB7C
:1011E7003AAA3BA93C853E82758300120099F542D5
:1011F700D003E4FDFF1216B8EF6007053E80BF7FFE
:081207000122121C967F002257
:0F1CB5005048494C49505300504D353634340097
:1018B3007B007A00792F753C027D107F50121060F7
:1018C3007B007A007931753C017D127F50121060E4
:1018D300E530B4380BE52FB44F06E53164016003FE
:0418E3001217A02216
:1017A00075324F7533387B007A007932753D027D92
:1017B000107F501211A77D017F12121C737D5C7F78
:1017C00013121C737BFF7A1C79B57F30121B497B87
:0A17D000FF7A1C79BD7F50021B490F
:101C73008D34AD077B007A007934753D017F5002C6
:021C830011A7A7
:101B9A00AD077B007A007932753C017F50121060E4
:081BAA00EF7002F532AF3222A8
:101B49008F348B358A368937121C22EF04F53DAB69
:0C1B590035AA36A937AD347F500211A721
:0A1D1100AD0785363C7F50021060DC
:0A1D1B00E4F558F557F55AF55B2280
:10147E00E55854606044155BE55B703E7407255774
:10148E00F8E6FFB45F0974072557F8767F8025EFDD
:10149E00B42E0974072557F876208018E55830E5E4
:1014AE000774072557F8765FE55830E60774072569
:0B14BE0057F8762E435880755B19220A
:1013E4008B338A348935BF7E037F0022EF04F537BF
:1013F400E537C3947F5034E53775F002A424A4F98B
:10140400740B35F0FA7BFF8B38F539893A1200807A
:10141400FF6014E536C39F400EAB33AA34A935E50B
:0E142400371200C67F0122053780C57F0022E7
:101432008B348A358936BF20010FEF14F538E53831
:10144200C394204034E53875F002A424A4F9740B47
:1014520035F0FA7BFF8B39F53A893B120080FF6049
:1014620014E537C39F400EAB34AA35A936E53812CE
:0C14720000C67F0122153880C57F0022D3
:10120F008B338A34893553077FE52BB507037F006E
:10121F0022EF04F537E52B2401FFE433FEC3E53756
:10122F009FEE6480F87480985036E53775F002A40D
:10123F0024A4F9740C35F0FA7BFF8B38F539893A11
:10124F00120080FF6016E536C39F4010E5374480DB
:10125F00AB33AA34A9351200C67F0122053780B5FA
:03126F007F0022DB
:10138E008B348A35893653077FEF70010FEF14FDCA
:10139E00C3ED64809480403BEDFF3395E0FEEF2576
:1013AE00E0FFEE33FE74A42FF9740C3EFA7BFF8B34
:1013BE0038F539893A120080FF6015E537C39F4032
:1013CE000FED4480AB34AA35A9361200C67F012238
:0613DE001D80BD7F00220E
:10162C007B007A007908121C228F32E532D39400A9
:10163C00400974072FF8E6F533E4F6753F00754062
:10164C00007541577B007A0079087D127C00120BE3
:10165C001D8F59E532D39400400774072532F8A644
:02166C00332227
:100EF800E55854036005E55830E126E55830E10B24
:100F08007B007A0079087F50121B497B007A0079B0
:100F1800087536207F30121D1112162C7558018065
:100F280024E55830E01F7B007A0079087F30121BD7
:100F3800497B007A0079087536207F50121D1112FE
:100F4800162C7558027B007A007908121C228F57DC
:100F580074082FF8E4F6F55A435880E50830E70599
:100F680043580480035358FBE55830E2047F01805E
:040F7800027F0022D2
:1010CE00E5576069E55A6003FF800774072557F8F6
:1010DE00E6FFAC07E55820E206EC30E7027C20E59F
:1010EE005830E206EC20E702E4FCE55830E0047EDE
:1010FE001280027E1CC3EE9559F532E558AF047B83
:10110E00007A00793130E20885323712138E80066C
:10111E00853237121432EF601474072557F8A63152
:0E112E00435880E55A600653589FE4F55A2254
:10113C00E5576066E55A6003FF800774072557F88A
:10114C00E6FFAD07E55820E206ED30E7027D20E52D
:10115C005830E206ED20E702E4FDE55830E0047E6D
:10116C001280027E1CC3EE9559FEE558AF057B003C
:10117C007A00793130E2078E3612120F80058E36E6
:10118C001213E4EF601474072557F8A63143588006
:0B119C00E55A600653589FE4F55A2204
:100D4800E55A6003020DE0E5587C0030E0047D12AE
:100D580080027D1C753F007540007541577B007A05
:100D6800007908120B1DEFFD7C00E5587A0030E091
:100D7800047B1280027B1CC3EB9DFDEA9CFCC3ED47
:100D88009401EC64809480404F8F59E557C3941FB9
:100D98005046E5579400400974072557F8E6FF8048
:100DA800027F208F5AD3ED9401EC64809480400F29
:100DB800755B1974082557F8765F435820800D75C0
:100DC8005B1974082557F8762E4358400557435841
:090DD8008074082557F8E4F622A6
:10184900E55760312407F8E4F61557E5587C003070
:10185900E0047D1280027D1C753F007540007541D2
:10186900577B007A007908120B1D8F5953589FE452
:06187900F55A43588022DD
:10181200E557D39400400BE55A600774072557F843
:10182200E4F6E55830E0047F3080027F507B007A96
:10183200007908121B49E55830E006E4F5587F01AB
:0718420022E4F5587F0222A9
:101C0C00E55830E70E53587FE55830E0037F01224A
:061C1C007F02227F00227E
:0C1CFB00E55830E2047F0180027F0022E7
:101A0900EF7005E55820E208EF6019E55820E21467
:101A1900E4F508F557F55A435880EF600443580434
:051A2900225358FB22CE
:03001B000214C903
:1014C900C0E0C0F0C083C082C0D075D000C000C0E9
:1014D90001C002C003C004C005C006C007E54F2013
:1014E900E10C1219B1434F08758BF7758DC2D007FE
:1014F900D006D005D004D003D002D001D000D0D07E
:09150900D082D083D0F0D0E03292
:101A7100E4F54BF54AF54CF54DF550F54E754F062D
:101A8100FDFF121C731207B1758BF7758DC2D28ED3
:011A91002232
:0E1CE100E54F30E306534FF77F01227F0022CC
:101B6500EFC3946450158F4BE54B5403600DE54A64
:0C1B7500B40108E54CB41C03754C1B22A5
:0A1D25001FEFC3940C50028F4A22F6
:101C85008F341212721534E534C39F500385344CDA
:011C9500222C
:091D3900EFC3943C50028F4D22CF
:091D4200EFC3943C50028F5022C3
:0F1CC400EFC3943C50088F4E758BF7758DC2227D
:10198000E54B2401FFE433FEC3EF9464EE648094DE
:10199000804005E4F54B8002054BE54B5403600D98
:1019A000E54AB40108E54CB41C03754C1B434F08D1
:0119B0002214
:101AD100E54A2401FFE433FEC3EF940CEE648094E5
:0E1AE100804005E4F54A8002054A434F082282
:101A9200121272E54C2401FDE433FCC3ED9F748005
:101AA200F86C984005E4F54C8002054C434F08223F
:101AEF00E54D2401FFE433FEC3EF9418EE648094B8
:0E1AFF00804005E4F54D8002054D434F08225E
:101B0D00E5502401FFE433FEC3EF943CEE64809472
:0E1B1D00804005E4F55080020550434F082239
:101B2B00E54E2401FFE433FEC3EF943CEE64809456
:0E1B3B00804005E4F54E8002054E434F08221F
:091D4B00E54B75F06484AFF02251
:051D6300E54A04FF2227
:051D6800E54C04FF2220
:031D7D00AF4D2245
:031D8000AF50223F
:031D8300AF4E223E
:100984007D80E4FF121C73E54C04FF75F00A84AD0E
:10099400F0EF75F00A84C454F04205E54B5403C4E7
:1009A400333354C042057F05121C73AD4B7F1312C1
:1009B4001C73E54A04FF75F00A84ADF0EF75F00A84
:1009C40084C454F042057F06121C73AF4DEF75F0DA
:1009D4000A84ADF0EF75F00A84C454F042057F0434
:1009E400121C73AF50EF75F00A84ADF0EF75F00A86
:1009F40084C454F042057F03121C73AF4EEF75F0AC
:100A04000A84ADF0EF75F00A84C454F042057F0205
:100A1400121C73AF8DEFFEAD8BEDFFC374FF9FFF10
:100A240074FF9EFE7C007D64120278E47B097A3DAB
:100A3400F9F81201ADEF75F00A84ADF0EF75F00A24
:100A440084C454F042057F01121C73E4FDFF021CB0
:010A5400732E
:1007B1007F13121B9A8F4BE54B5403F52F534BFCC0
:1007C1007F05121B9AEFC413135403424BC3952F99
:1007D10050067404254BF54BEF5430FEC4540F758D
:1007E100F00AA4F54CEF540F254CF54C154C7F063F
:1007F100121B9AEF541FFF5410FEC4540F75F00AD8
:10080100A4F54AEF540F254AF54A154A7F04121BF5
:100811009AEF543FFF5430FEC4540F75F00AA4F50B
:100821004DEF540F254DF54D7F03121B9AEFC45424
:100831000F75F00AA4F550EF540F2550F5507F02C3
:10084100121B9AEFC4540F75F00AA4F54EEF540F22
:10085100254EF54E7F01121B9AEFC4540F75F00A15
:10086100A4F52FEF540F252FF52FFF7E007C3D7D42
:1008710009120278E47B64FAF9F81201ADC374FF3E
:100881009FFFE48F8BAF2FFE7C3D7D09120278E440
:100891007B64FAF9F81201ADC374FF9FFF74FF9EE8
:1008A100FEE49DFDE49CFC780812023F8F8D534FBE
:0208B100F9222A
:0A1D2F00434F02758BF7758DC22239
:041D7500434F0422B2
:041D7900534FF922A9
:07127200E54BFD7C00AF4AD3
:10127900EFB40C005052901286F82828730212CB52
:101289000212AD0212CB0212C20212CB0212C50225
:1012990012CB0212CB0212C80212CB0212CE0212D8
:1012A900CB7F1F22AE04AF057C007D041200D8ED70
:1012B9004C70037F1D227F1C227F1E227F1E227FEE
:0B12C9001E227F1F227F1E227F0022BA
:1019B100E54EC3943B5003054E22E4F54EE550C37A
:1019C100943B5003055022E4F550E54DC394175064
:1019D10003054D22E4F54DE54F20E2031217DA220B
:1017DA00121272E54C2401FDE433FCEFFBC3ED9BCE
:1017EA007480F86C985003054C22E4F54CE54AC322
:1017FA00940B5003054A22E4F54AE54BC39463501F
:08180A0003054B22E4F54B221B
:03000000020DE10D
:0C0DE100787FE4F6D8FD75815C020E28D6
:10008000BB010689828A83E0225002E722BBFE027E
:09009000E32289828A83E49322B1
:10009900BB010CE58229F582E5833AF583E022501C
:1000A90006E92582F8E622BBFE06E92582F8E22266
:0D00B900E58229F582E5833AF583E4932280
:1000C600BB010689828A83F0225002F722BBFE0119
:0200D600F32213
:1000D800C2D5EC30E709B2D5E4C39DFDE49CFCEE43
:1000E80030E715B2D5E4C39FFFE49EFE12038EC32A
:1000F800E49DFDE49CFC800312038E30D507C3E425
:060108009FFFE49EFE22B1
:10010E00BB010A89828A83E0F5F0A3E022500687BC
:10011E00F009E71922BBFE07E3F5F009E31922897E
:0B012E00828A83E493F5F074019322B1
:10013900BB010789828A830203E3500B09C5F027B3
:10014900F7C5F01937F722BBFE0D09F8E325F0F3DF
:10015900C5F019E338F322F889828A83740193255B
:08016900F0C5F0F8E493382220
:1001710075F008758200EF2FFFEE33FECD33CDCC45
:1001810033CCC58233C5829BED9AEC99E5829840C8
:100191000CF582EE9BFEED9AFDEC99FC0FD5F0D6A5
:1001A100E4CEFBE4CDFAE4CCF9A88222B800C1B9CF
:1001B1000059BA002DEC8BF084CFCECDFCE5F0CB0D
:1001C100F97818EF2FFFEE33FEED33FDEC33FCEB46
:1001D10033FB10D703994004EB99FB0FD8E5E4F901
:1001E100FA227818EF2FFFEE33FEED33FDEC33FCEE
:1001F100C933C910D7059BE99A4007EC9BFCE99AE2
:10020100F90FD8E0E4C9FAE4CCFB2275F010EF2F26
:10021100FFEE33FEED33FDCC33CCC833C810D70726
:100221009BEC9AE899400AED9BFDEC9AFCE899F861
:0E0231000FD5F0DAE4CDFBE4CCFAE4C8F922F4
:10023F00E8600FECC313FCED13FDEE13FEEF13FF9D
:03024F00D8F122C1
:10025200D083D082F8E4937012740193700DA3A33B
:1002620093F8740193F5828883E47374029368604F
:06027200EFA3A3A380DF4F
:10027800EC8EF0A4CCC5F0CCCDF8EFA4CEC5F02D13
:10028800FDE43CFCE8A42EC8C5F03DFDE43CFCEFD1
:0D029800A4FFE5F028FEE43DFDE43CFC225F
:1002A500E709F60870FA8046E709F20870FA803E19
:1002B50088828C83E709F0A370FA807EE309F6084B
:1002C50070FA8076E309F20870FA806E88828C8372
:1002D500E309F0A370FA806289828A83E0A3F608B5
:1002E50070FA805689828A83E0A3F20870FA804A00
:1002F50080D280FA80C680D4806580F280318010FB
:1003050080A680EA809A80A880DA80E280CA80315F
:1003150089828A83ECFAE493A3C8C582C8CCC583D5
:10032500CCF0A3C8C582C8CCC583CC70E9800D8943
:10033500828A83E493A3F60870F9ECFAA9F0EDFB41
:100345002289828A83ECFAE0A3C8C582C8CCC5831A
:10035500CCF0A3C8C582C8CCC583CC70EA80DD8942
:10036500828A83E493A3F20870F980CE88F0ED24A5
:1003750002B4040050C4F582EB2402B4040050BA60
:0903850023234582239002F57345
:101C2200E4FFFE120080600C0FEF70010E09E970F4
:051C3200F20A80EF2220
:100DED0002172BE493A3F8E493A34003F68001F2DA
:100DFD0008DFF48029E493A3F85407240CC8C33307
:100E0D00C4540F4420C8834004F456800146F6DFD5
:100E1D00E4800B0102040810204080901D6DE47EDB
:100E2D00019360BCA3FF543F30E509541FFEE493CA
:100E3D00A360010ECF54C025E060A840B8E493A391
:100E4D00FAE493A3F8E493A3C8C582C8CAC583CABC
:100E5D00F0A3C8C582C8CAC583CADFE9DEE780BE74
:011D70000072
:10038E00BC000BBE0029EF8DF084FFADF022E4CC53
:10039E00F875F008EF2FFFEE33FEEC33FCEE9DEC1C
:1003AE00984005FCEE9DFE0FD5F0E9E4CEFD22ED62
:1003BE00F8F5F0EE8420D21CFEADF075F008EF2FAC
:1003CE00FFED33FD4007985006D5F0F222C398FD9D
:0503DE000FD5F0EA223A
:1003E300C5F0F8A3E028F0C5F0F8E58215827002A5
:0603F3001583E038F02242
:00000001FF
