:0300030002162AB8
:10162A00C0E0C0F0C083C082C0D075D000C000C086
:10163A0001C002C003C004C005C006C0071219D207
:10164A0012147E121BBAD007D006D005D004D003DC
:10165A00D002D001D000D0D0D082D083D0F0D0E058
:01166A00324D
:101BA300E4F5A8758955D2A8D2A9D2ABD288D2AF11
:071BB3007587807590FF2289
:10172400121BA3121878121CC4121D62121A621220
:1017340016E8121D0C121BD1121CD2EF6006120304
:10174400F9120984121BFD8F2EE52EB40103121C1D
:0B17540028E52EB402DF121C3C80DAF6
:100BE400013F017F0000000000000000023C017E84
:100BF40001EC01ED00000298017D0296017C029C4B
:100C040002800282028402860288028A028C028E98
:100C140002900292029400000000029A0000000078
:100C2400000002000202020402060208020A020C88
:100C3400020E01100211021302150317021A021CFC
:100C4400021E02200222022402260228022A032C67
:100C5400022F023102330000000000000000029E57
:100C6400000002400242024402460248014A024B8A
:100C7400024D014F015002510153035402570259CE
:100C8400025B02600262026402660268026A036C2A
:100C9400026F027102730000000000000BF002FEFC
:040CA4000C3F1C6283
:031D5E00012B0155
:03000B000208B335
:1008B300C0E0C0F0C083C082C0D0E52A14B40900F0
:1008C30040030209739008D675F003A4C58325F08D
:1008D300C583730208F102090602090E020919020F
:1008E300092F02093A02094502095D02096BE5294C
:1008F30030E10B30E405752CD08003752C50752A3C
:10090300028024532CBF752A038027752C00752A77
:1009130004758AAE804DE52930E209752C6090A0FC
:1009230000E52CF0752A05758AFF8037532CBF75B7
:100933002A06758AEA802C752C00752A07758AC3E6
:100943008021E52930E30B30E505752CF080037534
:100953002C70752A08758AFF8009532CBF752A09E4
:10096300758AEA758CFF8008752C00752A00C28C85
:1009730090A000E52CF0D0D0D082D083D0F0D0E08E
:010983003241
:1019D200E52A640A6021752A01E52930E6065329C1
:1019E200BF432904E52930E70653297F5390F77551
:0819F2008AD4758CFFD28C220F
:100CA8008F33E53364016009E53364026003020DA4
:100CB80047E533B401047F0580027F008F37E533B1
:100CC8007C00B401047D1280027D1C753F007540D4
:100CD800007541367B007A007908120B1D8E388F1B
:100CE80039E539453860457C007D021200D8C37467
:100CF800369FF535E49EF53474082536F8E4F6E5B4
:100D08002AB537FBE533B401047F0180027F031263
:100D180018ACE5337E00B401047F0180027F037BB9
:100D2800007A007908AD35AC340206AAE52AB53751
:100D3800FBE533B401047F0180027F031218AC2263
:1003F900E52AB408FB75340275351DE52830E2039A
:100409000205085403F5336402704A121D59121586
:10041900A27B007A007934E53375F00A84ADF012D5
:1004290015B17B007A0079347D0B1215B1121D5478
:100439001215A27B007A007934E53375F00A84AD90
:10044900F01215B17B007A0079347D0B1215B112C7
:100459001D3C0204F4E53364037049121D5412155E
:10046900A27B007A007934E53375F00A84ADF01285
:1004790015B17B007A0079347D0B1215B1121D5923
:100489001215A27B007A007934E53375F00A84AD40
:10049900F01215B17B007A0079347D0B1215B11277
:1004A9001D3C8047121D3C1215A27B007A0079344D
:1004B900E53375F00A84ADF01215B17B007A007945
:1004C900347D0B1215B1121D541215A27B007A004E
:1004D9007934E53375F00A84ADF01215B17B007AF1
:1004E9000079347D0B1215B1121D591215A27B002A
:1004F9007A007934E53375F00A84ADF01215B175D7
:10050900340275353FE52830E603020596121D6E63
:100519008F36E5285430FFC4540FF533B40314E57E
:1005290036D3940C400674F42536F536E536700357
:1005390075360CE5361215A67B007A007934E53656
:1005490075F00A84ADF01215B17B007A0079347D1B
:100559000A1215B1121D711215A27B007A007934A5
:10056900E53375F00A84ADF01215B17B007A007994
:10057900347D0A1215B1121D741215A27B007A007E
:0E0589007934E53375F00A84ADF01215B12215
:100B1D008C3D8D3E8B3A8A3B893C121C138F42E4EF
:100B2D00F543F544F545F546C3E54695427480F821
:100B3D006545984003020BD4AB3AAA3BA93C8546C8
:100B4D0082854583120099FF5480FD3395E04D60F9
:100B5D0010EF547F75F002A424A4F9740C35F080C5
:100B6D0022AB3AAA3BA93C85468285458312009962
:100B7D00FF3395E0FEEF25E0FFEE33FE74A42FF971
:100B8D00740B3EFA7BFF8B478A488949120080FD22
:100B9D007C002544FFEC3543FED3EF953EE53D64E7
:100BAD0080F8EE648098400AAB3FAA40A941E54623
:100BBD00801DED2544F544EC3543F5430546E546EA
:100BCD0070020545020B35AB3FAA40A941E5421223
:070BDD0000C6AE43AF442245
:1016E800752A0A120E6D752A02908000740CF0900B
:1016F800A000E4F0F529752811F52CFB7A0079088B
:101708007536207F30121D02121C287B007A007962
:0C171800087536207F50121D02021C3C98
:100FF100852832EFF45228ED4228E53220E208E557
:101001002830E203121912E53220E608E52830E61D
:10101100031218DFE5325433FFE5285433B50714C2
:10102100E53230E205E52830E20AE53230E608E54E
:101031002820E6031203F9E52830E20320E6034302
:101041002940E52830E20630E6035329FBE5283044
:0F105100E309E59030E30743298022439008220A
:101C2800E50860047D028002E4FD7F02121D457F05
:041C380001020CA8F1
:101C3C00E50860047D088002E4FD7F08121D457FE5
:041C4C0002020CA8DC
:10175F0078087C007D007BFF7A1C79A6120371123A
:10176F001C287B007A0079087F30121B3A78087C9E
:10177F00007D007BFF7A1C79AE120371121C3C7B3B
:0A178F00007A0079087F50021B3A2F
:101A1F00E4F508121C287B007A0079087F30121B2E
:101A2F003AE4F508121C3C7B007A0079087F5002DB
:021A3F001B3A50
:101512008F32E532C39408501CE532952B5038E5E2
:10152200324480F508E4F509121C3C7B007A00790C
:10153200087F50801F74F82532F532D3952B50174F
:10154200E5324480F508E4F509121C287B007A0094
:0815520079087F30121B3A22D8
:100E6D0090A0007410F0E4FFFEE42FFDEE34408DF1
:100E7D0082F583743FF00FBF00010EE4B507EAEE73
:100E8D00B401E690A0007420F0E4FEFFE42FFDEE27
:100E9D0034418D82F583743FF00FBF00010EE4B530
:100EAD0007EAEEB401E690A0007430F0E4FEFFE432
:100EBD002FFDEE34428D82F583743FF00FBF00019C
:100ECD000EE4B507EAEEB401E690A000E4F0FEFFF3
:100EDD00E42FFDEE34438D82F583743FF00FBF0098
:0B0EED00010EE4B507EAEEB401E622B6
:1018AC00AD07E4FBFAEDFEE42400FFEE3440CF2B51
:1018BC00CF3A8F82F583743FF00BBB00010AE4B57D
:1018CC0003E3EAB401DFBD01035329EFBD03035366
:0318DC0029DF22DF
:1018DF0075330275343FE52AB4050A858A35E58AE2
:1018EF00B535F380F9E4FFE42534FDE5333440FCEE
:1018FF00EF7A002DFDEA3C8D82F583743FF00FBF28
:03190F0010E522BE
:1019120075330275341DE52AB4050A858A35E58AD0
:10192200B535F380F9E4FFE42534FDE5333440FCBA
:10193200EF7A002DFDEA3C8D82F583743FF00FBFF4
:0319420010E5228B
:081D4500EFF45229ED422922BE
:1006AA008E3A8F3B8C3C8D3D8B3E8A3F8940121C93
:1006BA00138E418F42E53B7F00FEEF253DF546E56F
:1006CA003C3EF545E4F543F544C3E5449542E5412E
:1006DA006480F8E5436480984003020779AB3EAA38
:1006EA003FA940854482854383120099FF5480FDC7
:1006FA003395E04D6010EF547F75F002A424A4F9FD
:10070A00740C35F08022AB3EAA3FA940854482850D
:10071A004383120099FF3395E0FEEF25E0FFEE33A5
:10072A00FE74A42FF9740B3EFA7BFF8B478A488923
:10073A0049E4FFAB47AA48A949120080FEEFC39ECD
:10074A0050229000011200992FFE0546E546AC455D
:10075A0070020545142400FDEC34408D82F583EEC9
:10076A00F00F80CF0544E544700205430206D3E545
:10077A003B6401453A7014AB3EAA3FA9401200807F
:10078A0030E70543291080035329EFE53B6403450D
:10079A003A7013AB3EAA3FA94012008030E70443E7
:0707AA002920225329DF2260
:0F15A2008F33E5337B007A00793475F00A84FDCE
:1015B10074402D25E0FD12010E2400FFE5F03440BA
:1015C1008F82F583EDF0E475F001120139ED04FF2E
:1015D10012010E2400FDE5F034408D82F583EFF019
:0715E100E475F0010201397D
:041D6200E4F55C2226
:101BD100121CE0EF600F121D4DE555B40107AD5425
:061BE100AF531213322283
:0A1CF8008F538D54755503021C979D
:101332008F2F8D30E52F12025213863C13863E13F7
:101342007C43137544136B4613754813704C137525
:101352004D13754F136652137553138154137559F8
:101362000000138DAF300219A6AF300216ABAF30BA
:1013720002155AAD30AF2F020597AF30021A41AFB6
:0C13820030020F7CAD30AF2F120A552254
:1019A6008F31E53124AC600424107005121D6A8065
:1019B6000BE53130E706FD7FFF120FF1E53130E32D
:0C19C600047D6180027D627F72021CF8CB
:1016AB008F31E53124BB601A24F4601A24FD600BE2
:1016BB0024107016121D667D64801C121D207D7413
:1016CB0080157D6580117D71800DE53130E706FD5C
:0D16DB007FF7120FF17D787F66121CF82258
:10155A008F31E53124C1602624FD601324F9601A15
:10156A002408701E7D887F08120FF17D6180237D1B
:10157A00807F08120FF17D6280187D0680147D80BD
:10158A008010E53154C06008E531540FFF1215127E
:08159A007D067F6C121CF82293
:100597008F318D32E532643F7065E53124BC60539D
:1005A70024F7601F24FE603F24FC602324FA602B9D
:1005B700241160030206A9121D6EEF4480FD7F68B7
:1005C7000206A6121D71EF4480FD7F6D0206A6127A
:1005D7001D74EF4480FD7F730206A6121D3CEF4495
:1005E70080FD7F790206A6121D54EF4480FD7F6FC0
:1005F7000206A6121D59EF4480FD7F640206A6E598
:10060700326449703FE53124BC602D24F76015241E
:10061700FE602024FC601224FA60132411701C125F
:100627001AE08017121AFE8012121B1C800D121975
:10063700458008121AC28003121A83E5312420FF6D
:100647007D06805BE53230E74F547FF533E5312493
:10065700BC602224FC602524FB602824FE600F2454
:10066700FC602724FA7028AF33121B568021AF3362
:10067700121D16801AAF33121C768013AF33121D6A
:100687002A800CAF33121D338005AF33121CB5E53A
:10069700312420FF7D068007E5312420FF7D0612E7
:0306A7001CF8221A
:100F7C00EF24F0602224FB601924FD604024FA6009
:100F8C001124FD603F24F7601C240D705012175F74
:100F9C008047121A1F8029120EF8EF60047D1A8008
:100FAC003E7D07803A121CECEF6009E4FF1219FA3F
:100FBC007D0780077F011219FA7D1A8022121842D0
:100FCC007D06801B12180B8F31E531B40103121C06
:100FDC0028E531B40203121C3C7D0680027D067F9D
:050FEC0074121CF82244
:101A4100EF24EE600D24FA600E2407700D12113C94
:101A510080081210CE8003120D487D067F63021CA0
:011A6100F88C
:100A55008F318D32E532B41008E4F55C7D23020B4D
:100A650019E53264187034E531B43C147408255C1A
:100A7500F8E4F6121C287B007A0079087F30801292
:100A85007408255CF8E4F6121C3C7B007A007908B2
:100A95007F50121B3A7D06AF318079E53230E77021
:100AA500E531643C7035E55C2401FFE433FEEF6419
:100AB500204E7014F527121C287B007A0079087FD8
:100AC50030121B3A7D06800F53327FAF5C055C7494
:100AD500082FF8A6327D23AF318039E55C2401FF6C
:100AE500E433FEEF64204E7014F527121C3C7B00A6
:100AF5007A0079087F50121B3A7D06800F53327FAA
:100B0500AF5C055C74082FF8A6327D23AF318004F5
:080B15007D06AF31121CF8222D
:030023000212D4F2
:1012D400C0E0C0D075D000C000C0073098428599E6
:1012E4002DC298E551B40115AF56055674532FF825
:1012F400A62D75997CE556B40303755102E551B4E6
:10130400041EE55664036012E52DB47E13AF560542
:101314005674532FF8E6F5998006755600755101F9
:0E132400309902C299D007D000D0D0D0E0326C
:101BBA00E55164016010AF520552EFC39406400626
:071BCA00E4F552121D4D224B
:0E1CC400759890D2ACE4F556F5527551012298
:0C1CE000E551B402047F0180027F002265
:071D4D00E4F5567551012277
:0F1C9700755104AF56055674532FF8E6F5992290
:101C5000EF6008439080000043904053907F000065
:041C60005390BF22BC
:101C870053907F0000439040000043908000002263
:101BE700EF6005439080800353907F00004390404F
:061BF70000005390BF2224
:101B720043908000004390400000E59030E7047FEE
:091B82000180027F005390BF2294
:09166B0025E0F542E4FBFD7F01DE
:10167400AE07AF05EE6003121C50E4FEE54230E70E
:10168400047F0180027F00121BE7E54225E0F5425A
:101694000EBE08E8121B72EB6003121C87EF700485
:0716A4007F0180027F00229C
:101AA300AE07E4FCFB121B72EC25E04FFC0BBB08FA
:0F1AB300F4AF06121BE7ED6003121C87AF04228D
:101060008D388B398A3A893BAC07EC12166BEF60EE
:1010700057853842E4FBFDFF121674EF604AEC25F9
:10108000E04401F542E4FB7D017F01121674EF603C
:1010900037E53CD39401401CE4FDFF121AA3AB39A1
:1010A000053BE53BAA3A7002053A14F9EF1200C677
:1010B000153C80DD7D017F01121AA3AB39AA3AA944
:0E10C0003BEF1200C67F0122121C877F002228
:1011A7008B3A8A3B893CAC05EF12166BEF60538C88
:1011B70042E4FBFDFF121674EF6047E4F53EE53E9F
:1011C700C3953D503AE53E2401FFE433FE7C00EF32
:1011D700B53D08ECB506047B0180027B00C003AB7C
:1011E7003AAA3BA93C853E82758300120099F542D5
:1011F700D003E4FDFF121674EF6007053E80BF7F42
:081207000122121C877F002266
:0F1CA6005048494C49505300504D3536343400A6
:101878007B007A00792F753C027D107F5012106032
:101888007B007A007931753C017D127F501210601F
:10189800E530B4380BE52FB44F06E5316401600339
:0418A8001217992258
:1017990075324F7533387B007A007932753D027D99
:1017A900107F501211A77D017F12121C647D5C7F8E
:1017B90013121C647BFF7A1C79A67F30121B3A7BBB
:0A17C900FF7A1C79AE7F50021B3A34
:101C64008D34AD077B007A007934753D017F5002D5
:021C740011A7B6
:101B8B00AD077B007A007930753C017F50121060F5
:081B9B00EF7002F530AF3022BB
:101B3A008F348B358A368937121C13EF04F53DAB87
:0C1B4A0035AA36A937AD347F500211A730
:0A1D0200AD0785363C7F50021060EB
:0A1D0C00E4F558F557F55AF55B228F
:10147E00E55854606044155BE55B703E7407255774
:10148E00F8E6FFB45F0974072557F8767F8025EFDD
:10149E00B42E0974072557F876208018E55830E5E4
:1014AE000774072557F8765FE55830E60774072569
:0B14BE0057F8762E435880755B19220A
:1013E4008B338A348935BF7E037F0022EF04F537BF
:1013F400E537C3947F5034E53775F002A424A4F98B
:10140400740B35F0FA7BFF8B38F539893A1200807A
:10141400FF6014E536C39F400EAB33AA34A935E50B
:0E142400371200C67F0122053780C57F0022E7
:101432008B348A358936BF20010FEF14F538E53831
:10144200C394204034E53875F002A424A4F9740B47
:1014520035F0FA7BFF8B39F53A893B120080FF6049
:1014620014E537C39F400EAB34AA35A936E53812CE
:0C14720000C67F0122153880C57F0022D3
:10120F008B338A34893553077FE52BB507037F006E
:10121F0022EF04F537E52B2401FFE433FEC3E53756
:10122F009FEE6480F87480985036E53775F002A40D
:10123F0024A4F9740C35F0FA7BFF8B38F539893A11
:10124F00120080FF6016E536C39F4010E5374480DB
:10125F00AB33AA34A9351200C67F0122053780B5FA
:03126F007F0022DB
:10138E008B348A35893653077FEF70010FEF14FDCA
:10139E00C3ED64809480403BEDFF3395E0FEEF2576
:1013AE00E0FFEE33FE74A42FF9740C3EFA7BFF8B34
:1013BE0038F539893A120080FF6015E537C39F4032
:1013CE000FED4480AB34AA35A9361200C67F012238
:0613DE001D80BD7F00220E
:1015E8007B007A007908121C138F32E532D39400FD
:1015F800400974072FF8E6F533E4F6753F007540A7
:10160800007541577B007A0079087D127C00120B27
:101618001D8F59E532D39400400774072532F8A688
:0216280033226B
:100EF800E55854036005E55830E126E55830E10B24
:100F08007B007A0079087F50121B3A7B007A0079BF
:100F1800087536207F30121D021215E875580180B9
:100F280024E55830E01F7B007A0079087F30121BD7
:100F38003A7B007A0079087536207F50121D02121C
:100F480015E87558027B007A007908121C138F5730
:100F580074082FF8E4F6F55A435880E50830E70599
:100F680043580480035358FBE55830E2047F01805E
:040F7800027F0022D2
:1010CE00E5576069E55A6003FF800774072557F8F6
:1010DE00E6FFAC07E55820E206EC30E7027C20E59F
:1010EE005830E206EC20E702E4FCE55830E0047EDE
:1010FE001280027E1CC3EE9559F532E558AF047B83
:10110E00007A00793130E20885323712138E80066C
:10111E00853237121432EF601474072557F8A63152
:0E112E00435880E55A600653589FE4F55A2254
:10113C00E5576066E55A6003FF800774072557F88A
:10114C00E6FFAD07E55820E206ED30E7027D20E52D
:10115C005830E206ED20E702E4FDE55830E0047E6D
:10116C001280027E1CC3EE9559FEE558AF057B003C
:10117C007A00793130E2078E3612120F80058E36E6
:10118C001213E4EF601474072557F8A63143588006
:0B119C00E55A600653589FE4F55A2204
:100D4800E55A6003020DE0E5587C0030E0047D12AE
:100D580080027D1C753F007540007541577B007A05
:100D6800007908120B1DEFFD7C00E5587A0030E091
:100D7800047B1280027B1CC3EB9DFDEA9CFCC3ED47
:100D88009401EC64809480404F8F59E557C3941FB9
:100D98005046E5579400400974072557F8E6FF8048
:100DA800027F208F5AD3ED9401EC64809480400F29
:100DB800755B1974082557F8765F435820800D75C0
:100DC8005B1974082557F8762E4358400557435841
:090DD8008074082557F8E4F622A6
:10184200E55760312407F8E4F61557E5587C003077
:10185200E0047D1280027D1C753F007540007541D9
:10186200577B007A007908120B1D8F5953589FE459
:06187200F55A43588022E4
:10180B00E557D39400400BE55A600774072557F84A
:10181B00E4F6E55830E0047F3080027F507B007A9D
:10182B00007908121B3AE55830E006E4F5587F01C1
:07183B0022E4F5587F0222B0
:101BFD00E55830E70E53587FE55830E0037F01225A
:061C0D007F02227F00228D
:0C1CEC00E55830E2047F0180027F0022F6
:1019FA00EF7005E55820E208EF6019E55820E21477
:101A0A00E4F508F557F55A435880EF600443580443
:051A1A00225358FB22DD
:03001B000214C903
:1014C900C0E0C0F0C083C082C0D075D000C000C0E9
:1014D90001C002C003C004C005C006C007E54F2013
:1014E900E10C121976434F08758BF7758DC2D00739
:1014F900D006D005D004D003D002D001D000D0D07E
:09150900D082D083D0F0D0E03292
:101A6200E4F54BF54AF54CF54DF550F54E754F063C
:101A7200FDFF121C641207B1758BF7758DC2D28EF1
:011A82002241
:0E1CD200E54F30E306534FF77F01227F0022DB
:101B5600EFC3946450158F4BE54B5403600DE54A73
:0C1B6600B40108E54CB41C03754C1B22B4
:0A1D16001FEFC3940C50028F4A2205
:101C76008F341212721534E534C39F500385344CE9
:011C8600223B
:091D2A00EFC3943C50028F4D22DE
:091D3300EFC3943C50028F5022D2
:0F1CB500EFC3943C50088F4E758BF7758DC2228C
:10194500E54B2401FFE433FEC3EF9464EE64809419
:10195500804005E4F54B8002054BE54B5403600DD3
:10196500E54AB40108E54CB41C03754C1B434F080C
:01197500224F
:101AC200E54A2401FFE433FEC3EF940CEE648094F4
:0E1AD200804005E4F54A8002054A434F082291
:101A8300121272E54C2401FDE433FCC3ED9F748014
:101A9300F86C984005E4F54C8002054C434F08224E
:101AE000E54D2401FFE433FEC3EF9418EE648094C7
:0E1AF000804005E4F54D8002054D434F08226D
:101AFE00E5502401FFE433FEC3EF943CEE64809482
:0E1B0E00804005E4F55080020550434F082248
:101B1C00E54E2401FFE433FEC3EF943CEE64809465
:0E1B2C00804005E4F54E8002054E434F08222E
:091D3C00E54B75F06484AFF02260
:051D5400E54A04FF2236
:051D5900E54C04FF222F
:031D6E00AF4D2254
:031D7100AF50224E
:031D7400AF4E224D
:100984007D80E4FF121C64E54C04FF75F00A84AD1D
:10099400F0EF75F00A84C454F04205E54B5403C4E7
:1009A400333354C042057F05121C64AD4B7F1312D0
:1009B4001C64E54A04FF75F00A84ADF0EF75F00A93
:1009C40084C454F042057F06121C64AF4DEF75F0E9
:1009D4000A84ADF0EF75F00A84C454F042057F0434
:1009E400121C64AF50EF75F00A84ADF0EF75F00A95
:1009F40084C454F042057F03121C64AF4EEF75F0BB
:100A04000A84ADF0EF75F00A84C454F042057F0205
:100A1400121C64AF8DEFFEAD8BEDFFC374FF9FFF1F
:100A240074FF9EFE7C007D64120278E47B097A3DAB
:100A3400F9F81201ADEF75F00A84ADF0EF75F00A24
:100A440084C454F042057F01121C64E4FDFF021CBF
:010A5400643D
:1007B1007F13121B8B8F4BE54B5403F52F534BFCCF
:1007C1007F05121B8BEFC413135403424BC3952FA8
:1007D10050067404254BF54BEF5430FEC4540F758D
:1007E100F00AA4F54CEF540F254CF54C154C7F063F
:1007F100121B8BEF541FFF5410FEC4540F75F00AE7
:10080100A4F54AEF540F254AF54A154A7F04121BF5
:100811008BEF543FFF5430FEC4540F75F00AA4F51A
:100821004DEF540F254DF54D7F03121B8BEFC45433
:100831000F75F00AA4F550EF540F2550F5507F02C3
:10084100121B8BEFC4540F75F00AA4F54EEF540F31
:10085100254EF54E7F01121B8BEFC4540F75F00A24
:10086100A4F52FEF540F252FF52FFF7E007C3D7D42
:1008710009120278E47B64FAF9F81201ADC374FF3E
:100881009FFFE48F8BAF2FFE7C3D7D09120278E440
:100891007B64FAF9F81201ADC374FF9FFF74FF9EE8
:1008A100FEE49DFDE49CFC780812023F8F8D534FBE
:0208B100F9222A
:0A1D2000434F02758BF7758DC22248
:041D6600434F0422C1
:041D6A00534FF922B8
:07127200E54BFD7C00AF4AD3
:10127900EFB40C005052901286F82828730212CB52
:101289000212AD0212CB0212C20212CB0212C50225
:1012990012CB0212CB0212C80212CB0212CE0212D8
:1012A900CB7F1F22AE04AF057C007D041200D8ED70
:1012B9004C70037F1D227F1C227F1E227F1E227FEE
:0B12C9001E227F1F227F1E227F0022BA
:10197600E54EC3943B5003054E22E4F54EE550C3B5
:10198600943B5003055022E4F550E54DC39417509F
:1019960003054D22E4F54DE54F20E2031217D3224D
:1017D300121272E54C2401FDE433FCEFFBC3ED9BD5
:1017E3007480F86C985003054C22E4F54CE54AC329
:1017F300940B5003054A22E4F54AE54BC394635026
:0818030003054B22E4F54B2222
:03000000020DE10D
:0C0DE100787FE4F6D8FD75815C020E28D6
:10008000BB010689828A83E0225002E722BBFE027E
:09009000E32289828A83E49322B1
:10009900BB010CE58229F582E5833AF583E022501C
:1000A90006E92582F8E622BBFE06E92582F8E22266
:0D00B900E58229F582E5833AF583E4932280
:1000C600BB010689828A83F0225002F722BBFE0119
:0200D600F32213
:1000D800C2D5EC30E709B2D5E4C39DFDE49CFCEE43
:1000E80030E715B2D5E4C39FFFE49EFE12038EC32A
:1000F800E49DFDE49CFC800312038E30D507C3E425
:060108009FFFE49EFE22B1
:10010E00BB010A89828A83E0F5F0A3E022500687BC
:10011E00F009E71922BBFE07E3F5F009E31922897E
:0B012E00828A83E493F5F074019322B1
:10013900BB010789828A830203E3500B09C5F027B3
:10014900F7C5F01937F722BBFE0D09F8E325F0F3DF
:10015900C5F019E338F322F889828A83740193255B
:08016900F0C5F0F8E493382220
:1001710075F008758200EF2FFFEE33FECD33CDCC45
:1001810033CCC58233C5829BED9AEC99E5829840C8
:100191000CF582EE9BFEED9AFDEC99FC0FD5F0D6A5
:1001A100E4CEFBE4CDFAE4CCF9A88222B800C1B9CF
:1001B1000059BA002DEC8BF084CFCECDFCE5F0CB0D
:1001C100F97818EF2FFFEE33FEED33FDEC33FCEB46
:1001D10033FB10D703994004EB99FB0FD8E5E4F901
:1001E100FA227818EF2FFFEE33FEED33FDEC33FCEE
:1001F100C933C910D7059BE99A4007EC9BFCE99AE2
:10020100F90FD8E0E4C9FAE4CCFB2275F010EF2F26
:10021100FFEE33FEED33FDCC33CCC833C810D70726
:100221009BEC9AE899400AED9BFDEC9AFCE899F861
:0E0231000FD5F0DAE4CDFBE4CCFAE4C8F922F4
:10023F00E8600FECC313FCED13FDEE13FEEF13FF9D
:03024F00D8F122C1
:10025200D083D082F8E4937012740193700DA3A33B
:1002620093F8740193F5828883E47374029368604F
:06027200EFA3A3A380DF4F
:10027800EC8EF0A4CCC5F0CCCDF8EFA4CEC5F02D13
:10028800FDE43CFCE8A42EC8C5F03DFDE43CFCEFD1
:0D029800A4FFE5F028FEE43DFDE43CFC225F
:1002A500E709F60870FA8046E709F20870FA803E19
:1002B50088828C83E709F0A370FA807EE309F6084B
:1002C50070FA8076E309F20870FA806E88828C8372
:1002D500E309F0A370FA806289828A83E0A3F608B5
:1002E50070FA805689828A83E0A3F20870FA804A00
:1002F50080D280FA80C680D4806580F280318010FB
:1003050080A680EA809A80A880DA80E280CA80315F
:1003150089828A83ECFAE493A3C8C582C8CCC583D5
:10032500CCF0A3C8C582C8CCC583CC70E9800D8943
:10033500828A83E493A3F60870F9ECFAA9F0EDFB41
:100345002289828A83ECFAE0A3C8C582C8CCC5831A
:10035500CCF0A3C8C582C8CCC583CC70EA80DD8942
:10036500828A83E493A3F20870F980CE88F0ED24A5
:1003750002B4040050C4F582EB2402B4040050BA60
:0903850023234582239002F57345
:101C1300E4FFFE120080600C0FEF70010E09E97003
:051C2300F20A80EF222F
:100DED00021724E493A3F8E493A34003F68001F2E1
:100DFD0008DFF48029E493A3F85407240CC8C33307
:100E0D00C4540F4420C8834004F456800146F6DFD5
:100E1D00E4800B0102040810204080901D5EE47EEA
:100E2D00019360BCA3FF543F30E509541FFEE493CA
:100E3D00A360010ECF54C025E060A840B8E493A391
:100E4D00FAE493A3F8E493A3C8C582C8CAC583CABC
:100E5D00F0A3C8C582C8CAC583CADFE9DEE780BE74
:011D61000081
:10038E00BC000BBE0029EF8DF084FFADF022E4CC53
:10039E00F875F008EF2FFFEE33FEEC33FCEE9DEC1C
:1003AE00984005FCEE9DFE0FD5F0E9E4CEFD22ED62
:1003BE00F8F5F0EE8420D21CFEADF075F008EF2FAC
:1003CE00FFED33FD4007985006D5F0F222C398FD9D
:0503DE000FD5F0EA223A
:1003E300C5F0F8A3E028F0C5F0F8E58215827002A5
:0603F3001583E038F02242
:00000001FF
