:03000300021426BE
:10142600C0E0C0F0C083C082C0D075D000C000C08C
:1014360001C002C003C004C005C006C0071217D908
:101446001213091219D8D007D006D005D004D0033C
:10145600D002D001D000D0D0D082D083D0F0D0E05E
:011466003253
:03001B00021B7550
:011B7500323D
:1019EE00E4F5A8758955D2A8D2A9D288D2AF758749
:0519FE00807590FF223E
:1014A7001219EE121632121AC5121B5C12194B12C0
:1014B700158E121B09121996121AAAEF600612024C
:1014C700EB1206B61219C28F2DE52DB40103121ABD
:0B14D70018E52DB402DF121A2C80DA99
:10078A00013F017F0000000000000000023C017EE2
:10079A0001EC01ED00000298017D0296017C029CA9
:1007AA0002800282028402860288028A028C028EF7
:1007BA0002900292029400000000029A00000000D7
:1007CA00000002000202020402060208020A020CE7
:1007DA00020E01100211021302150317021A021C5B
:1007EA00021E02200222022402260228022A032CC6
:1007FA00022F023102330000000000000000029EB6
:10080A00000002400242024402460248014A024BE8
:10081A00024D014F0150025101530354025702592C
:10082A00025B02600262026402660268026A036C88
:10083A00026F027102730000000000000BF002FE5A
:08084A000C3F1E611E811EC15E
:031B5800012B035B
:03000B00020BDC09
:100BDC00C0E0C083C082C0D0E52A24FE6028146027
:100BEC003214604214604C1460672405706CE52963
:100BFC0030E10E90A00030E40574D0F08003745006
:100C0C00F0752A02801B90A000E4F0752A03758A07
:100C1C00AC8039E52930E20690A0007460F0752AAA
:100C2C0004758AEA802690A000E4F0752A05758A7E
:100C3C00C38019E52930E30E90A00030E50574F06F
:100C4C00F080037470F0752A06758AEA758CFF8043
:100C5C000990A000E4F0F52AC28CD0D0D082D083C9
:030C6C00D0E032A3
:1017D900752A01758AD3758CFFD28CE52930E60606
:1017E9005329BF432904E52930E70653297F53903C
:0217F900F722D5
:100AA3008F32E53264016009E53264026003020BB0
:100AB30042E532B401047F0380027F008F36E532C2
:100AC3007C00B401047D1480027D1E753E00753FD9
:100AD300007540357B007A00790812091A8E378F2A
:100AE30038E538453760457C007D0212012DC3741B
:100AF300509FF534E49EF53374082535F8E4F6E5A4
:100B03002AB536FBE532B401047F0180027F03126C
:100B13001666E5327E00B401047F0180027F037B09
:100B2300007A007908AD34AC330205AFE52AB53657
:100B3300FBE532B401047F0180027F0312166622B3
:1002EB00E52AB405FB753302753435E52830E20396
:1002FB000204065403F53264027047121B538F320B
:10030B00E53275F00A84120D03120CFB7B007A00A8
:10031B0079337D2D120D0C121B4E8F327B007A0020
:10032B007933E53275F00A842430FD120D0C120C72
:10033B00FB7B007A0079337D2D120D0C121B2F02E3
:10034B0003EFE5326403704F121B4E8F327B007A42
:10035B00007933E53275F00A842430FD120D0C124E
:10036B000CFB7B007A0079337D2D120D0C121B5385
:10037B008F327B007A007933E53275F00A842430B2
:10038B00FD120D0C120CFB7B007A0079337D2D12C4
:10039B000D0C121B2F804D121B2F8F327B007A00FE
:1003AB007933E53275F00A842430FD120D0C120CF2
:1003BB00FB7B007A0079337D2D120D0C121B4E8FB7
:1003CB00327B007A007933E53275F00A842430FDF4
:1003DB00120D0C120CFB7B007A0079337D2D120D64
:1003EB000C121B538F327B007A007933E53275F098
:1003FB000A842430FD120D0C120CFB75330275347C
:10040B005BE52830E60302049B121B6C8F35E52855
:10041B005430FFC4540FF532B40314E535D3940CA8
:10042B00400674F42535F535E535700375350C7BD1
:10043B00007A007933E53575F00A842430FD120D0E
:10044B000CE535120CFD7B007A0079337D3A120DE9
:10045B000C121B6F8F327B007A007933E53275F00B
:10046B000A842430FD120D0C120CFB7B007A0079F0
:10047B00337D3A120D0C121B728F327B007A00798E
:10048B0033E53275F00A842430FD120D0C120CFB8F
:01049B00223E
:10091A008C3C8D3D8B398A3A893B121A038F41E40C
:10092A00F542F543F544F545C3E54595417480F82C
:10093A0065449840030209D1AB39AA3AA93B8545D7
:10094A0082854483120099FF5480FD3395E04D60FF
:10095A0010EF547F75F002A4244AF9740835F08028
:10096A0022AB39AA3AA93B8545828544831200996C
:10097A00FF3395E0FEEF25E0FFEE33FE744A2FF9D0
:10098A0074073EFA7BFF8B468A478948120080FD2E
:10099A007C002543FFEC3542FED3EF953DE53C64F0
:1009AA0080F8EE648098400AAB3EAA3FA940E5452C
:1009BA00801DED2543F543EC3542F5420545E545F5
:1009CA0070020544020932AB3EAA3FA940E5411232
:0709DA0000C6AE42AF43224C
:10158E0012187D9080007404F090A000E4F0752A8B
:10159E0001F529752811FB7A0079087535207F3001
:1015AE00121AFF121A187B007A0079087535207FFF
:0715BE0050121AFF021A2C63
:100E7900852831EFF45228ED4228E53120E208E5D2
:100E89002830E2031216CCE53120E608E52830E6E1
:100E990003121699E5315433FFE5285433B5071485
:100EA900E53130E205E52830E20AE53130E608E5CA
:100EB9002820E6031202EBE52830E20320E603438B
:100EC9002940E52830E20630E6035329FBE52830BE
:0F0ED900E309E59030E307432980224390082284
:101A1800E50860047D028002E4FD7F02121B387F26
:041A280001020AA30A
:101A2C00E50860047D088002E4FD7F08121B387F06
:041A3C0002020AA3F5
:1014E20078087C007D007BFF7A1A79541202B812C8
:1014F2001A187B007A0079087F3012191378087C59
:10150200007D007BFF7A1A795C1202B8121A2C7BDA
:0A151200007A0079087F50021913D7
:1017FB00E4F508121A187B007A0079087F30121969
:10180B0013E4F508121A2C7B007A0079087F50023A
:02181B0019139F
:101354008F31E531C39408501CE531952B5038E5A5
:10136400314480F508E4F509121A2C7B007A0079DF
:10137400087F50801F74F82531F531D3952B501711
:10138400E5314480F508E4F509121A187B007A0067
:0813940079087F3012191322C1
:10187D00E4FFFEE42FFDEE34408D82F583743FF0DE
:0E188D000FBF00010EE4B507EAEEB404E62238
:10166600AD07E4FBFAEDFEE42400FFEE3440CF2B99
:10167600CF3A8F82F583743FF00BBB00010AE4B5C5
:1016860003E3EAB401DFBD01035329EFBD030353AE
:0316960029DF2227
:1016990075320275335BE52AB4030A858A34E58A13
:1016A900B534F380F9E4FFE42533FDE5323440FC39
:1016B900EF7A002DFDEA3C8D82F583743FF00FBF70
:0316C90010E52207
:1016CC00753202753335E52AB4030A858A34E58A06
:1016DC00B534F380F9E4FFE42533FDE5323440FC06
:1016EC00EF7A002DFDEA3C8D82F583743FF00FBF3D
:0316FC0010E522D4
:081B3800EFF45229ED422922CD
:1005AF008E398F3A8C3B8D3C8B3D8A3E893F121A98
:1005BF00038E408F41E53A7F00FEEF253CF545E580
:1005CF003B3EF544E4F542F543C3E5439541E54031
:1005DF006480F8E542648098400302067EAB3DAA32
:1005EF003EA93F854382854283120099FF5480FDC7
:1005FF003395E04D6010EF547F75F002A4244AF953
:10060F00740835F08022AB3DAA3EA93F8543828511
:10061F004283120099FF3395E0FEEF25E0FFEE33A2
:10062F00FE744A2FF974073EFA7BFF8B468A47897F
:10063F0048E4FFAB46AA47A948120080FEEFC39ECD
:10064F0050229000011200992FFE0545E545AC445C
:10065F0070020544142400FDEC34408D82F583EEC6
:10066F00F00F80CF0543E543700205420205D8E540
:10067F003A640145397014AB3DAA3EA93F12008080
:10068F0030E70543291080035329EFE53A6403450A
:10069F00397013AB3DAA3EA93F12008030E70443E7
:0706AF002920225329DF225C
:100CFB00E53275F00A84E5F07B007A007933243015
:010D0B00FDEA
:100D0C008B368A378938AF05EF3395E0FEEF25E057
:100D1C00FFEE33FE744A2FF974073E7539FFF53A2E
:100D2C00893BAB39FA900001120099FFAB36AA3718
:100D3C00A9381201632400FDE5F034408D82F5835F
:100D4C00EFF0E475F00112018EAB39AA3AA93B9091
:100D5C00000112009904FFAB36AA37A938120163BF
:100D6C002400FDE5F034408D82F583EFF0E475F05E
:040D7C000102018EE1
:041B5C00E4F55F222B
:10199600121AD1EF600F121B60E554B40107AD5364
:0619A600AF521211BD2238
:0A1AF5008F528D53755403021A9BA3
:1011BD008F2E8D2FE52E1201C612113C12113E12EB
:1011CD00074312004411F64612004811FB4C120061
:1011DD004D12004F11F152120053120C54120059BE
:1011ED0000001218AF2F021760AF2F02178CAF2F10
:1011FD0002139CAD2FAF2E02049CAF2F02181DAF12
:0C120D002F020E04AD2FAF2E120852224B
:101760008F30E53024AC600424107005121B6880B3
:101770000BE53030E706FD7FFF120E79E53030E3F0
:0C178000047D6180027D627F72021AF518
:10178C008F30E53024AC60092410700A121B648081
:10179C0010121B47800BE53030E706FD7FF7120E69
:0817AC00797D647F66021AF5E5
:10139C008F30E53024C1602624FD601324F9601AD7
:1013AC002408701E7D887F08120E797D6180237D54
:1013BC00807F08120E797D6280187D0680147D80F6
:1013CC008010E53054C06008E530540FFF12135400
:0813DC007D067F6C121AF52258
:10049C008F308D31E531643F7065E53024BC60539D
:1004AC0024F7601F24FE603F24FC602324FA602B99
:1004BC00241160030205AE121B6CEF4480FD7F68B3
:1004CC000205AB121B6FEF4480FD7F6D0205AB1272
:1004DC001B72EF4480FD7F730205AB121B2FEF44A0
:1004EC0080FD7F790205AB121B4EEF4480FD7F6FC0
:1004FC000205AB121B53EF4480FD7F640205ABE594
:10050C00316449703FE53024BC602D24F76015241C
:10051C00FE602024FC601224FA60132411701C125B
:10052C0018B980171218D780121218F5800D1216F0
:10053C00FF800812189B800312183EE5302420FF20
:10054C007D06805BE53130E74F547FF532E5302492
:10055C00BC602224FC602524FB602824FE600F2450
:10056C00FC602724FA7028AF3212192F8021AF3289
:10057C00121B13801AAF32121A7A8013AF32121B6D
:10058C001D800CAF32121B268005AF32121AE9E522
:10059C00302420FF7D068007E5302420FF7D0612E5
:0305AC001AF5221B
:100E0400EF24F0602224FB601924FD604024FA6082
:100E14001124FD603F24F7601C240D70501214E26D
:100E240080471217FB8029120D80EF60047D1A8021
:100E34003E7D07803A121ADDEF6009E4FF1217B411
:100E44007D0780077F011217B47D1A80221215FCDA
:100E54007D06801B1215C58F30E530B40103121ACC
:100E640018E530B40203121A2C7D0680027D067F39
:050E740074121AF522C2
:10181D00EF24EE600D24FA600E2407700D120FC434
:10182D008008120F568003120B437D067F63021A48
:01183D00F5B5
:100852008F308D31E531B41008E4F55F7D23020954
:1008620016E53164187034E530B43C147408255F21
:10087200F8E4F6121A187B007A0079087F308012A9
:100882007408255FF8E4F6121A2C7B007A007908C6
:100892007F501219137D06AF308079E53130E77051
:1008A200E530643C7035E55F2401FFE433FEEF641C
:1008B200204E7014F527121A187B007A0079087FEF
:1008C200301219137D06800F53317FAF5F055F74BD
:1008D200082FF8A6317D23AF308039E55F2401FF70
:1008E200E433FEEF64204E7014F527121A2C7B00BD
:1008F2007A0079087F501219137D06800F53317FD9
:10090200AF5F055F74082FF8A6317D23AF308004F6
:080912007D06AF30121AF52238
:0300230002115C6B
:10115C00C0E0C0D075D000C000C00730984585995C
:10116C002CC298E551B40118AF55055574522FF89F
:10117C00A62C75997CE555B403067555007551027E
:10118C00E551B4041EE55564036012E52CB47E13DE
:10119C00AF55055574522FF8E6F599800675550034
:1011AC00755101309902C299D007D000D0D0D0E04F
:0111BC003200
:0C1AC500759890D2ACE4F55575510122E3
:0C1AD100E551B402047F0180027F002276
:041B60007551012298
:0F1A9B00755104AF55055574522FF8E6F5992291
:101A4000EF6008439080000043904053907F000077
:041A50005390BF22CE
:101A8B0053907F0000439040000043908000002261
:1019AC00EF6005439080800353907F00004390408C
:0619BC0000005390BF2261
:1019650043908000004390400000E59030E7047FFD
:091975000180027F005390BF22A3
:0914670025E0F541E4FBFD7F01E5
:10147000AE07AF05EE6003121A40E4FEE54130E727
:10148000047F0180027F001219ACE54125E0F5419F
:101490000EBE08E8121965EB6003121A8BEF700498
:0714A0007F0180027F0022A2
:10185E00AE07E4FCFB121965EC25E04FFC0BBB0850
:0F186E00F4AF061219ACED6003121A8BAF04220F
:100EE8008D378B388A39893AAC07EC121467EF6072
:100EF80057853741E4FBFDFF121470EF604AEC257B
:100F0800E04401F541E4FB7D017F01121470EF60BC
:100F180037E53BD39401401CE4FDFF12185EAB3863
:100F2800053AE53AAA397002053914F9EF1200C6F4
:100F3800153B80DD7D017F0112185EAB38AA39A907
:0E0F48003AEF1200C67F0122121A8B7F0022A0
:10102F008B398A3A893BAC05EF121467EF60538C0A
:10103F0041E4FBFDFF121470EF6047E4F53DE53D21
:10104F00C3953C503AE53D2401FFE433FE7C00EFAD
:10105F00B53C08ECB506047B0180027B00C003ABF6
:10106F0039AA3AA93B853D82758300120099F54153
:10107F00D003E4FDFF121470EF6007053D80BF7FC2
:08108F000122121A8B7F0022DE
:101A54005048494C49505300504D353634342031A8
:041A6400363A3900D5
:101632007B007A00792E753B027D107F50120EE8F6
:101642007B007A007930753B017D127F50120EE8E3
:10165200E52FB4380BE52EB44F06E5306401600384
:0416620012151C221F
:10151C0075314F7532387B007A007931753C027D1C
:10152C00107F5012102F7D017F12121A687D5C7F84
:10153C0013121A687BFF7A1A79547F301219137BB5
:0A154C00FF7A1A795C7F5002191330
:101A68008D33AD077B007A007933753C017F5002D6
:021A7800102F2D
:10197E00AD077B007A00792F753B017F50120EE880
:08198E00EF7002F52FAF2F22CC
:101913008F338B348A358936121A03EF04F53CABC7
:0C19230034AA35A936AD337F5002102FD6
:0A1AFF00AD0785353B7F50020EE86D
:0A1B0900E4F557F556F559F55A2298
:10130900E55754606044155AE55A703E74072556EE
:10131900F8E6FFB45F0974072556F8767F8025EF54
:10132900B42E0974072556F876208018E55730E55C
:101339000774072556F8765FE55730E607740725E1
:0B13490056F8762E435780755A192283
:10126F008B328A338934BF7E037F0022EF04F53639
:10127F00E536C3947F5034E53675F002A4244AF95D
:10128F00740735F0FA7BFF8B37F5388939120080F8
:10129F00FF6014E535C39F400EAB32AA33A934E586
:0E12AF00361200C67F0122053680C57F002260
:1012BD008B338A348935BF20010FEF14F537E537AD
:1012CD00C394204034E53775F002A4244AF974071D
:1012DD0035F0FA7BFF8B38F539893A120080FF60C3
:1012ED0014E536C39F400EAB33AA34A935E537124A
:0C12FD0000C67F0122153780C57F00224B
:101097008B328A33893453077FE52BB507037F00EB
:1010A70022EF04F536E52B2401FFE433FEC3E536D2
:1010B7009FEE6480F87480985036E53675F002A488
:1010C700244AF9740835F0FA7BFF8B37F5388939EC
:1010D700120080FF6016E535C39F4010E536448057
:1010E700AB32AA33A9341200C67F0122053680B578
:0310F7007F002255
:101219008B338A34893553077FEF70010FEF14FD43
:10122900C3ED64809480403BEDFF3395E0FEEF25EC
:10123900E0FFEE33FE744A2FF974083EFA7BFF8B08
:1012490037F5388939120080FF6015E536C39F40AC
:101259000FED4480AB33AA34A9351200C67F0122B1
:061269001D80BD7F002284
:1013E4007B007A007908121A038F31E531D3940017
:1013F400400974072FF8E6F532E4F6753E00753FB0
:10140400007540567B007A0079087D147C0012092F
:101414001A8F58E531D39400400774072531F8A694
:02142400322272
:100D8000E55754036005E55730E126E55730E10BA0
:100D90007B007A0079087F501219137B007A007962
:100DA000087535207F30121AFF1213E47557018041
:100DB00024E55730E01F7B007A0079087F30121954
:100DC000137B007A0079087535207F50121AFF12C4
:100DD00013E47557027B007A007908121A038F56C4
:100DE00074082FF8E4F6F559435780E50830E70515
:100DF00043570480035357FBE55730E2047F0180DB
:040E0000027F00224B
:100F5600E5566069E5596003FF800774072556F872
:100F6600E6FFAC07E55720E206EC30E7027C20E519
:100F76005730E206EC20E702E4FCE55730E0047E59
:100F86001480027E1EC3EE9558F531E557AF047BFB
:100F9600007A00793030E20885313612121980065F
:100FA6008531361212BDEF601474072556F8A63047
:0E0FB600435780E559600653579FE4F55922D2
:100FC400E5566066E5596003FF800774072556F807
:100FD400E6FFAD07E55720E206ED30E7027D20E5A8
:100FE4005730E206ED20E702E4FDE55730E0047EE9
:100FF4001480027E1EC3EE9558FEE557AF057B00B4
:101004007A00793030E2078E3512109780058E35DC
:1010140012126FEF601474072556F8A630435780F8
:0B102400E559600653579FE4F5592280
:100B4300E5596003020BDBE5577C0030E0047D14BC
:100B530080027D1E753E00753F007540567B007A0E
:100B630000790812091AEFFD7C00E5577A0030E09E
:100B7300047B1480027B1EC3EB9DFDEA9CFCC3ED4A
:100B83009401EC64809480404F8F58E556C3941FC2
:100B93005046E5569400400974072556F8E6FF8051
:100BA300027F208F59D3ED9401EC64809480400F31
:100BB300755A1974082556F8765F435720800D75CA
:100BC3005A1974082556F8762E435740055643574D
:090BD3008074082556F8E4F622AE
:1015FC00E55660312407F8E4F61556E5577C0030C3
:10160C00E0047D1480027D1E753E00753F00754020
:10161C00567B007A00790812091A8F5853579FE4A9
:06162C00F559435780222E
:1015C500E556D39400400BE559600774072556F896
:1015D500E4F6E55730E0047F3080027F507B007AE7
:1015E500007908121913E55730E006E4F5577F0135
:0715F50022E4F5577F0222FA
:1019C200E55730E70E53577FE55730E0037F01229A
:0619D2007F02227F0022CB
:0C1ADD00E55730E2047F0180027F002208
:1017B400EF7005E55720E208EF6019E55720E214C1
:1017C400E4F508F556F559435780EF600443570490
:0517D400225357FB2227
:1019D800E54F20E110054DE54DB43209E4F54D120F
:0619E8001730434F0822F6
:10194B00E4F54AF549F54BF54CF550F54EF54D756B
:0A195B004F06FDFF121A680209E1B1
:0E1AAA00E54F30E306534FF77F01227F002205
:0D1AB8008F4C8D508B4EE55EC313F54D2213
:071B40008F4A8D498B4B22F7
:10192F00EFC3946450158F4AE54A5403600DE5499F
:0C193F00B40108E54BB41C03754B1B22DF
:0A1B13001FEFC3940C50028F49220B
:101A7A008F331210FA1533E533C39F500385334B66
:011A8A002239
:091B1D00EFC3943C50028F4C22EE
:091B2600EFC3943C50028F5022E1
:0C1AE900EFC3943C50058F4EE4F54D22F5
:1016FF00E54A2401FFE433FEC3EF9464EE64809463
:10170F00804005E4F54A8002054AE54A5403600D1E
:10171F00E549B40108E54BB41C03754B1B434F0857
:01172F002297
:10189B00E5492401FFE433FEC3EF940CEE6480941E
:0E18AB00804005E4F54980020549434F0822BC
:10183E001210FAE54B2401FDE433FCC3ED9F7480D6
:10184E00F86C984005E4F54B8002054B434F082297
:1018B900E54C2401FFE433FEC3EF9418EE648094F1
:0E18C900804005E4F54C8002054C434F082298
:1018D700E5502401FFE433FEC3EF943CEE648094AB
:0E18E700804005E4F55080020550434F082272
:1018F500E54E2401FFE433FEC3EF943CEE6480948F
:0E190500804005E4F54E8002054E434F082257
:091B2F00E54A75F06484AFF02270
:051B4E00E54904FF223F
:051B5300E54B04FF2238
:031B6C00AF4C2259
:031B6F00AF502252
:031B7200AF4E2251
:1006B6007D80E4FF121A68E54B04FB75F00A84AAF4
:1006C600F0EB75F00A84C454F04202E54A5403C4C0
:1006D600333354C04202AD027F05121A68AD4A7F19
:1006E60013121A68E54904FB75F00A84AAF0EB7543
:1006F600F00A84C454F04202AD027F06121A68ABB7
:100706004CEB75F00A84AAF0EB75F00A84C454F039
:100716004202AD027F04121A68AB50EB75F00A84F0
:10072600AAF0EB75F00A84C454F04202AD027F03CE
:10073600121A68AB4EEB75F00A84AAF0EB75F00A54
:1007460084C454F04202AD027F02121A68AB4DEB2C
:1007560075F002A4FFAEF07C007D0A1200D8AA054F
:10076600AF03EF75F002A4FFAEF07C007D0A120025
:10077600D8EFC454F04202AD027F01121A68E4FDBC
:04078600FF021A68EC
:1009E1007F1312197E8F4AE54A5403F52E534AFCB0
:1009F1007F0512197EEFC413135403424AC3952E87
:100A010050067404254AF54AEF5430FEC4540F755C
:100A1100F00AA4F54BEF540F254BF54B154B7F0610
:100A210012197EEF541FFF5410FEC4540F75F00AC3
:100A3100A4F549EF540F2549F54915497F041219C9
:100A41007EEF543FFF5430FEC4540F75F00AA4F5F5
:100A51004CEF540F254CF54C7F0312197EEFC45413
:100A61000F75F00AA4F550EF540F2550F5507F0291
:100A710012197EEFC4540F75F00AA4F54EEF540F0E
:100A8100254EF54E7F0112197EEFC4540F75F00A01
:100A9100A4F52EEF540F252EF52EC313F54D534F0C
:020AA100F92238
:071B4700434F02E4F54D22BB
:041B6400434F0422C5
:041B6800534FF922BC
:0710FA00E54AFD7C00AF494F
:10110100EFB40C00505290110EF8282873021153BD
:1011110002113502115302114A02115302114D02FB
:1011210011530211530211500211530211560211AF
:10113100537F1F22AE04AF057C007D0412012DED0B
:101141004C70037F1D227F1C227F1E227F1E227F67
:0B1151001E227F1F227F1E227F002233
:10173000E54EC3943B5003054E22E4F54EE550C3FD
:10174000943B5003055022E4F550E54CC3941750E8
:1017500003054C22E4F54CE54F20E2031215562216
:101556001210FAE54B2401FDE433FCEFFBC3ED9BCF
:101566007480F86C985003054B22E4F54BE549C3AB
:10157600940B5003054922E4F549E54AC3946350A8
:0815860003054A22E4F54A22A4
:03000000020C6F80
:0C0C6F00787FE4F6D8FD75815F020CB6BA
:10008000BB010689828A83E0225002E722BBFE027E
:09009000E32289828A83E49322B1
:10009900BB010CE58229F582E5833AF583E022501C
:1000A90006E92582F8E622BBFE06E92582F8E22266
:0D00B900E58229F582E5833AF583E4932280
:1000C600BB010689828A83F0225002F722BBFE0119
:0200D600F32213
:1000D800BC000BBE0029EF8DF084FFADF022E4CC0C
:1000E800F875F008EF2FFFEE33FEEC33FCEE9DECD5
:1000F800984005FCEE9DFE0FD5F0E9E4CEFD22ED1B
:10010800F8F5F0EE8420D21CFEADF075F008EF2F64
:10011800FFED33FD4007985006D5F0F222C398FD55
:050128000FD5F0EA22F2
:10012D00C2D5EC30E709B2D5E4C39DFDE49CFCEEED
:10013D0030E715B2D5E4C39FFFE49EFE1200D8C38D
:10014D00E49DFDE49CFC80031200D830D507C3E488
:06015D009FFFE49EFE225C
:10016300BB010A89828A83E0F5F0A3E02250068767
:10017300F009E71922BBFE07E3F5F009E319228929
:0B018300828A83E493F5F0740193225C
:10018E00BB010789828A830202D5500B09C5F0276D
:10019E00F7C5F01937F722BBFE0D09F8E325F0F38A
:1001AE00C5F019E338F322F889828A837401932506
:0801BE00F0C5F0F8E4933822CB
:1001C600D083D082F8E4937012740193700DA3A3C8
:1001D60093F8740193F5828883E4737402936860DC
:0601E600EFA3A3A380DFDC
:1001EC00E709F60870FA8046E709F20870FA803ED3
:1001FC0088828C83E709F0A370FA807EE309F60805
:10020C0070FA8076E309F20870FA806E88828C832B
:10021C00E309F0A370FA806289828A83E0A3F6086E
:10022C0070FA805689828A83E0A3F20870FA804AB9
:10023C0080D280FA80C680D4806580F280318010B4
:10024C0080A680EA809A80A880DA80E280CA803119
:10025C0089828A83ECFAE493A3C8C582C8CCC5838F
:10026C00CCF0A3C8C582C8CCC583CC70E9800D89FD
:10027C00828A83E493A3F60870F9ECFAA9F0EDFBFB
:10028C002289828A83ECFAE0A3C8C582C8CCC583D4
:10029C00CCF0A3C8C582C8CCC583CC70EA80DD89FC
:1002AC00828A83E493A3F20870F980CE88F0ED245F
:1002BC0002B4040050C4F582EB2402B4040050BA1A
:0902CC00232345822390023C73B8
:101A0300E4FFFE120080600C0FEF70010E09E97015
:051A1300F20A80EF2241
:100C7B000214A7E493A3F8E493A34003F68001F2D4
:100C8B0008DFF48029E493A3F85407240CC8C3337A
:100C9B00C4540F4420C8834004F456800146F6DF49
:100CAB00E4800B0102040810204080901B58E47E66
:100CBB00019360BCA3FF543F30E509541FFEE4933E
:100CCB00A360010ECF54C025E060A840B8E493A305
:100CDB00FAE493A3F8E493A3C8C582C8CAC583CA30
:100CEB00F0A3C8C582C8CAC583CADFE9DEE780BEE8
:011B5B000089
:1002D500C5F0F8A3E028F0C5F0F8E58215827002B4
:0602E5001583E038F02251
:00000001FF
