:030003000213E104
:1013E100C0E0C0F0C083C082C0D075D000C000C0D2
:1013F10001C002C003C004C005C006C0071217EE39
:10140100121306121A041219ABD007D006D005D058
:1014110004D003D002D001D000D0D0D082D083D06C
:04142100F0D0E032F5
:03001B00021BA124
:011BA1003211
:101A1A00E4F5A8758955D2A8D2A9D288D2AF75871C
:051A2A00807590FF2211
:1014E400121A1A12166F121AD1121B8C12196012C8
:1014F40015CB121B321219C2121ADFEF6006120248
:10150400EB1206B61219EE8F2DE52DB40103121A53
:0B15140044E52DB402DF121A5880DA03
:10078A00013F017F0000000000000000023C017EE2
:10079A0001EC01ED00000298017D0296017C029CA9
:1007AA0002800282028402860288028A028C028EF7
:1007BA0002900292029400000000029A00000000D7
:1007CA00000002000202020402060208020A020CE7
:1007DA00020E01100211021302150317021A021C5B
:1007EA00021E02200222022402260228022A032CC6
:1007FA00022F023102330000000000000000029EB6
:10080A00000002400242024402460248014A024BE8
:10081A00024D014F0150025101530354025702592C
:10082A00025B02600262026402660268026A036C88
:10083A00026F027102730000000000000BF002FE5A
:08084A000C3F1C621E811EC15F
:031B8800012B032B
:03000B00020BDC09
:100BDC00C0E0C083C082C0D0E52A24FE6028146027
:100BEC003214604214604C1460672405706CE52963
:100BFC0030E10E90A00030E40574D0F08003745006
:100C0C00F0752A02801B90A000E4F0752A03758A07
:100C1C00AC8039E52930E20690A0007460F0752AAA
:100C2C0004758AEA802690A000E4F0752A05758A7E
:100C3C00C38019E52930E30E90A00030E50574F06F
:100C4C00F080037470F0752A06758AEA758CFF8043
:100C5C000990A000E4F0F52AC28CD0D0D082D083C9
:030C6C00D0E032A3
:1017EE00752A01758AD3758CFFD28CE52930E606F1
:1017FE005329BF432904E52930E70653297F539027
:02180E00F722BF
:100AA3008F32E53264016009E53264026003020BB0
:100AB30042E532B401047F0380027F008F36E532C2
:100AC3007C00B401047D1280027D1C753E00753FDD
:100AD300007540357B007A00790812091A8E378F2A
:100AE30038E538453760457C007D0212012DC3741B
:100AF300369FF534E49EF53374082535F8E4F6E5BE
:100B03002AB536FBE532B401047F0180027F03126C
:100B130016A3E5327E00B401047F0180027F037BCC
:100B2300007A007908AD34AC330205AFE52AB53657
:100B3300FBE532B401047F0180027F031216A32276
:1002EB00E52AB405FB75330275341DE52830E203AE
:1002FB000204065403F53264027047121B838F32DB
:10030B00E53275F00A84120D03120CFB7B007A00A8
:10031B0079337D2D120D0C121B7E8F327B007A00F0
:10032B007933E53275F00A842430FD120D0C120C72
:10033B00FB7B007A0079337D2D120D0C121B5802BA
:10034B0003EFE5326403704F121B7E8F327B007A12
:10035B00007933E53275F00A842430FD120D0C124E
:10036B000CFB7B007A0079337D2D120D0C121B8355
:10037B008F327B007A007933E53275F00A842430B2
:10038B00FD120D0C120CFB7B007A0079337D2D12C4
:10039B000D0C121B58804D121B588F327B007A00AC
:1003AB007933E53275F00A842430FD120D0C120CF2
:1003BB00FB7B007A0079337D2D120D0C121B7E8F87
:1003CB00327B007A007933E53275F00A842430FDF4
:1003DB00120D0C120CFB7B007A0079337D2D120D64
:1003EB000C121B838F327B007A007933E53275F068
:1003FB000A842430FD120D0C120CFB75330275347C
:10040B003FE52830E60302049B121B988F35E52845
:10041B005430FFC4540FF532B40314E535D3940CA8
:10042B00400674F42535F535E535700375350C7BD1
:10043B00007A007933E53575F00A842430FD120D0E
:10044B000CE535120CFD7B007A0079337D3A120DE9
:10045B000C121B9B8F327B007A007933E53275F0DF
:10046B000A842430FD120D0C120CFB7B007A0079F0
:10047B00337D3A120D0C121B9E8F327B007A007962
:10048B0033E53275F00A842430FD120D0C120CFB8F
:01049B00223E
:10091A008C3C8D3D8B398A3A893B121A2F8F41E4E0
:10092A00F542F543F544F545C3E54595417480F82C
:10093A0065449840030209D1AB39AA3AA93B8545D7
:10094A0082854483120099FF5480FD3395E04D60FF
:10095A0010EF547F75F002A4244AF9740835F08028
:10096A0022AB39AA3AA93B8545828544831200996C
:10097A00FF3395E0FEEF25E0FFEE33FE744A2FF9D0
:10098A0074073EFA7BFF8B468A478948120080FD2E
:10099A007C002543FFEC3542FED3EF953DE53C64F0
:1009AA0080F8EE648098400AAB3EAA3FA940E5452C
:1009BA00801DED2543F543EC3542F5420545E545F5
:1009CA0070020544020932AB3EAA3FA940E5411232
:0709DA0000C6AE42AF43224C
:1015CB001218929080007403F090A000E4F0752A3A
:1015DB0001F529752811FB7A0079087535207F30C4
:1015EB00121B28121A447B007A0079087535207F6C
:0715FB0050121B28021A58D0
:100E7900852831EFF45228ED4228E53120E208E5D2
:100E89002830E203121709E53120E608E52830E6A3
:100E9900031216D6E5315433FFE5285433B5071448
:100EA900E53130E205E52830E20AE53130E608E5CA
:100EB9002820E6031202EBE52830E20320E603438B
:100EC9002940E52830E20630E6035329FBE52830BE
:0F0ED900E309E59030E307432980224390082284
:101A4400E50860047D028002E4FD7F02121B617FD1
:041A540001020AA3DE
:101A5800E50860047D088002E4FD7F08121B617FB1
:041A680002020AA3C9
:10151F0078087C007D007BFF7A1A79C21202B8121C
:10152F001A447B007A0079087F3012192878087CDA
:10153F00007D007BFF7A1A79CA1202B8121A587B03
:0A154F00007A0079087F5002192885
:10181000E4F508121A447B007A0079087F30121927
:1018200028E4F508121A587B007A0079087F5002E4
:02183000192875
:101351008F31E531C39408501CE531952B5038E5A8
:10136100314480F508E4F509121A587B007A0079B6
:10137100087F50801F74F82531F531D3952B501714
:10138100E5314480F508E4F509121A447B007A003E
:0813910079087F3012192822AF
:10189200E4FFFEE42FFDEE34408D82F583743FF0C9
:0E18A2000FBF00010EE4B507EAEEB404E62223
:1016A300AD07E4FBFAEDFEE42400FFEE3440CF2B5C
:1016B300CF3A8F82F583743FF00BBB00010AE4B588
:1016C30003E3EAB401DFBD01035329EFBD03035371
:0316D30029DF22EA
:1016D60075320275333FE52AB4030A858A34E58AF2
:1016E600B534F380F9E4FFE42533FDE5323440FCFC
:1016F600EF7A002DFDEA3C8D82F583743FF00FBF33
:0317060010E522C9
:1017090075320275331DE52AB4030A858A34E58AE0
:10171900B534F380F9E4FFE42533FDE5323440FCC8
:10172900EF7A002DFDEA3C8D82F583743FF00FBFFF
:0317390010E52296
:081B6100EFF45229ED422922A4
:1005AF008E398F3A8C3B8D3C8B3D8A3E893F121A98
:1005BF002F8E408F41E53A7F00FEEF253CF545E554
:1005CF003B3EF544E4F542F543C3E5439541E54031
:1005DF006480F8E542648098400302067EAB3DAA32
:1005EF003EA93F854382854283120099FF5480FDC7
:1005FF003395E04D6010EF547F75F002A4244AF953
:10060F00740835F08022AB3DAA3EA93F8543828511
:10061F004283120099FF3395E0FEEF25E0FFEE33A2
:10062F00FE744A2FF974073EFA7BFF8B468A47897F
:10063F0048E4FFAB46AA47A948120080FEEFC39ECD
:10064F0050229000011200992FFE0545E545AC445C
:10065F0070020544142400FDEC34408D82F583EEC6
:10066F00F00F80CF0543E543700205420205D8E540
:10067F003A640145397014AB3DAA3EA93F12008080
:10068F0030E70543291080035329EFE53A6403450A
:10069F00397013AB3DAA3EA93F12008030E70443E7
:0706AF002920225329DF225C
:100CFB00E53275F00A84E5F07B007A007933243015
:010D0B00FDEA
:100D0C008B368A378938AF05EF3395E0FEEF25E057
:100D1C00FFEE33FE744A2FF974073E7539FFF53A2E
:100D2C00893BAB39FA900001120099FFAB36AA3718
:100D3C00A9381201632400FDE5F034408D82F5835F
:100D4C00EFF0E475F00112018EAB39AA3AA93B9091
:100D5C00000112009904FFAB36AA37A938120163BF
:100D6C002400FDE5F034408D82F583EFF0E475F05E
:040D7C000102018EE1
:041B8C00E4F56022FA
:1019C200121AFAEF600F121B69E555B40107AD5404
:0619D200AF531211BA220E
:0A1B1E008F538D54755503021AB35E
:1011BA008F2E8D2FE52E1201C6120E3C120E3E12F4
:1011CA00044311FD4411F34611FD4811F84C11FD79
:1011DA004D11FD4F11EE5211FD5312095411FD59D3
:1011EA0000001215AF2F02179DAF2F0214A7AF2FC1
:1011FA00021399AD2FAF2E02049CAF2F021832AF03
:0C120A002F020E04AD2FAF2E120852224E
:10179D008F30E53024AC600424107005121B94804A
:1017AD000BE53030E706FD7FFF120E79E53030E3B3
:0C17BD00047D6180027D627F72021B1EB1
:1014A7008F30E53024BB601A24F4601A24FD600BEA
:1014B70024107016121B907D64801C121B777D749C
:1014C70080157D6580117D71800DE53030E706FD63
:0D14D7007FF7120E797D787F66121B1E22B2
:101399008F30E53024C1602624FD601324F9601ADA
:1013A9002408701E7D887F08120E797D6180237D57
:1013B900807F08120E797D6280187D0680147D80F9
:1013C9008010E53054C06008E530540FFF12135106
:0813D9007D067F6C121B1E2231
:10049C008F308D31E531643F7065E53024BC60539D
:1004AC0024F7601F24FE603F24FC602324FA602B99
:1004BC00241160030205AE121B98EF4480FD7F6887
:1004CC000205AB121B9BEF4480FD7F6D0205AB1246
:1004DC001B9EEF4480FD7F730205AB121B58EF444B
:1004EC0080FD7F790205AB121B7EEF4480FD7F6F90
:1004FC000205AB121B83EF4480FD7F640205ABE564
:10050C00316449703FE53024BC602D24F76015241C
:10051C00FE602024FC601224FA60132411701C125B
:10052C0018CE80171218EC801212190A800D1217AF
:10053C003C80081218B08003121853E5302420FFB9
:10054C007D06805BE53130E74F547FF532E5302492
:10055C00BC602224FC602524FB602824FE600F2450
:10056C00FC602724FA7028AF321219448021AF3274
:10057C00121B3C801AAF32121A928013AF32121B2C
:10058C0046800CAF32121B4F8005AF32121B12E5A6
:10059C00302420FF7D068007E5302420FF7D0612E5
:0305AC001B1E22F1
:100E0400EF24F0602224FB601924FD604024FA6082
:100E14001124FD603F24F7601C240D705012151F2F
:100E240080471218108029120D80EF60047D1A800B
:100E34003E7D07803A121B06EF6009E4FF1217C9D2
:100E44007D0780077F011217C97D1A802212163987
:100E54007D06801B1216028F30E530B40103121A8E
:100E640044E530B40203121A587D0680027D067FE1
:050E740074121B1E2298
:10183200EF24EE600D24FA600E2407700D120FC41F
:101842008008120F568003120B437D067F63021B32
:011852001E77
:100852008F308D31E531B41008E4F5607D23020953
:1008620016E53164187034E530B43C147408256020
:10087200F8E4F6121A447B007A0079087F3080127D
:1008820074082560F8E4F6121A587B007A00790899
:100892007F501219287D06AF308079E53130E7703C
:1008A200E530643C7035E5602401FFE433FEEF641B
:1008B200204E7014F527121A447B007A0079087FC3
:1008C200301219287D06800F53317FAF60056074A6
:1008D200082FF8A6317D23AF308039E5602401FF6F
:1008E200E433FEEF64204E7014F527121A587B0091
:1008F2007A0079087F501219287D06800F53317FC4
:10090200AF60056074082FF8A6317D23AF308004F4
:080912007D06AF30121B1E220E
:0300230002115C6B
:10115C00C0E0C0D075D000C000C00730984285995F
:10116C002CC298E551B40115AF56055674532FF89F
:10117C00A62C75997CE556B40303755102E551B460
:10118C00041EE55664036012E52CB47E13AF5605BD
:10119C005674532FF8E6F599800675560075510173
:0E11AC00309902C299D007D000D0D0D0E032E6
:1019AB00E55164016010AF520552EFC39406400637
:0719BB00E4F552121B692242
:0E1AD100759890D2ACE4F556F552755101228D
:0C1AFA00E551B402047F0180027F00224D
:071B6900E4F556755101225D
:0F1AB300755104AF56055674532FF8E6F5992276
:101A6C00EF6008439080000043904053907F00004B
:041A7C005390BF22A2
:101AA30053907F0000439040000043908000002249
:1019D800EF6005439080800353907F000043904060
:0619E80000005390BF2235
:10197A0043908000004390400000E59030E7047FE8
:09198A000180027F005390BF228E
:0914670025E0F541E4FBFD7F01E5
:10147000AE07AF05EE6003121A6CE4FEE54130E7FB
:10148000047F0180027F001219D8E54125E0F54173
:101490000EBE08E812197AEB6003121AA3EF70046B
:0714A0007F0180027F0022A2
:10187300AE07E4FCFB12197AEC25E04FFC0BBB0826
:0F188300F4AF061219D8ED6003121AA3AF0422B6
:100EE8008D378B388A39893AAC07EC121467EF6072
:100EF80057853741E4FBFDFF121470EF604AEC257B
:100F0800E04401F541E4FB7D017F01121470EF60BC
:100F180037E53BD39401401CE4FDFF121873AB384E
:100F2800053AE53AAA397002053914F9EF1200C6F4
:100F3800153B80DD7D017F01121873AB38AA39A9F2
:0E0F48003AEF1200C67F0122121AA37F002288
:10102F008B398A3A893BAC05EF121467EF60538C0A
:10103F0041E4FBFDFF121470EF6047E4F53DE53D21
:10104F00C3953C503AE53D2401FFE433FE7C00EFAD
:10105F00B53C08ECB506047B0180027B00C003ABF6
:10106F0039AA3AA93B853D82758300120099F54153
:10107F00D003E4FDFF121470EF6007053D80BF7FC2
:08108F000122121AA37F0022C6
:0F1AC2005048494C49505300504D35363434008C
:10166F007B007A00792E753B027D107F50120EE8B9
:10167F007B007A007930753B017D127F50120EE8A6
:10168F00E52FB4380BE52EB44F06E5306401600347
:04169F0012155922A5
:1015590075314F7532387B007A007931753C027DDF
:10156900107F5012102F7D017F12121A807D5C7F2F
:1015790013121A807BFF7A1A79C27F301219287BDD
:0A158900FF7A1A79CA7F5002192870
:101A80008D33AD077B007A007933753C017F5002BE
:021A9000102F15
:10199300AD077B007A00792F753B017F50120EE86B
:0819A300EF7002F52FAF2F22B7
:101928008F338B348A358936121A2FEF04F53CAB86
:0C19380034AA35A936AD337F5002102FC1
:0A1B2800AD0785353B7F50020EE843
:0A1B3200E4F558F557F55AF55B226B
:10130600E55854606044155BE55B703E74072557ED
:10131600F8E6FFB45F0974072557F8767F8025EF56
:10132600B42E0974072557F876208018E55830E55D
:101336000774072557F8765FE55830E607740725E2
:0B13460057F8762E435880755B192283
:10126C008B328A338934BF7E037F0022EF04F5363C
:10127C00E536C3947F5034E53675F002A4244AF960
:10128C00740735F0FA7BFF8B37F5388939120080FB
:10129C00FF6014E535C39F400EAB32AA33A934E589
:0E12AC00361200C67F0122053680C57F002263
:1012BA008B338A348935BF20010FEF14F537E537B0
:1012CA00C394204034E53775F002A4244AF9740720
:1012DA0035F0FA7BFF8B38F539893A120080FF60C6
:1012EA0014E536C39F400EAB33AA34A935E537124D
:0C12FA0000C67F0122153780C57F00224E
:101097008B328A33893453077FE52BB507037F00EB
:1010A70022EF04F536E52B2401FFE433FEC3E536D2
:1010B7009FEE6480F87480985036E53675F002A488
:1010C700244AF9740835F0FA7BFF8B37F5388939EC
:1010D700120080FF6016E535C39F4010E536448057
:1010E700AB32AA33A9341200C67F0122053680B578
:0310F7007F002255
:101216008B338A34893553077FEF70010FEF14FD46
:10122600C3ED64809480403BEDFF3395E0FEEF25EF
:10123600E0FFEE33FE744A2FF974083EFA7BFF8B0B
:1012460037F5388939120080FF6015E536C39F40AF
:101256000FED4480AB33AA34A9351200C67F0122B4
:061266001D80BD7F002287
:101425007B007A007908121A2F8F31E531D39400A9
:10143500400974072FF8E6F532E4F6753E00753F6E
:10144500007540577B007A0079087D127C001209EF
:101455001A8F59E531D39400400774072531F8A652
:02146500322231
:100D8000E55854036005E55830E126E55830E10B9D
:100D90007B007A0079087F501219287B007A00794D
:100DA000087535207F30121B2812142575580180D4
:100DB00024E55830E01F7B007A0079087F30121953
:100DC000287B007A0079087535207F50121B281285
:100DD00014257558027B007A007908121A2F8F5754
:100DE00074082FF8E4F6F55A435880E50830E70513
:100DF00043580480035358FBE55830E2047F0180D8
:040E0000027F00224B
:100F5600E5576069E55A6003FF800774072557F86F
:100F6600E6FFAC07E55820E206EC30E7027C20E518
:100F76005830E206EC20E702E4FCE55830E0047E57
:100F86001280027E1CC3EE9559F531E558AF047BFD
:100F9600007A00793030E208853136121216800662
:100FA6008531361212BAEF601474072557F8A63049
:0E0FB600435880E55A600653589FE4F55A22CE
:100FC400E5576066E55A6003FF800774072557F804
:100FD400E6FFAD07E55820E206ED30E7027D20E5A7
:100FE4005830E206ED20E702E4FDE55830E0047EE7
:100FF4001280027E1CC3EE9559FEE558AF057B00B6
:101004007A00793030E2078E3512109780058E35DC
:1010140012126CEF601474072557F8A630435880F9
:0B102400E55A600653589FE4F55A227D
:100B4300E55A6003020BDBE5587C0030E0047D12BC
:100B530080027D1C753E00753F007540577B007A0F
:100B630000790812091AEFFD7C00E5587A0030E09D
:100B7300047B1280027B1CC3EB9DFDEA9CFCC3ED4E
:100B83009401EC64809480404F8F59E557C3941FC0
:100B93005046E5579400400974072557F8E6FF804F
:100BA300027F208F5AD3ED9401EC64809480400F30
:100BB300755B1974082557F8765F435820800D75C7
:100BC3005B1974082557F8762E4358400557435848
:090BD3008074082557F8E4F622AD
:10163900E55760312407F8E4F61557E5587C003082
:10164900E0047D1280027D1C753E00753F007540E7
:10165900577B007A00790812091A8F5953589FE469
:06166900F55A43588022EF
:10160200E557D39400400BE55A600774072557F855
:10161200E4F6E55830E0047F3080027F507B007AA8
:10162200007908121928E55830E006E4F5587F01E0
:0716320022E4F5587F0222BB
:1019EE00E55830E70E53587FE55830E0037F01226B
:0619FE007F02227F00229F
:0C1B0600E55830E2047F0180027F0022DD
:1017C900EF7005E55820E208EF6019E55820E214AA
:1017D900E4F508F557F55A435880EF600443580477
:0517E900225358FB2211
:101A0400E54F20E110054DE54DB43209E4F54D12E2
:061A1400176D434F08228C
:10196000E4F54AF549F54BF54CF550F54EF54D7556
:0A1970004F06FDFF121A800209E184
:0E1ADF00E54F30E306534FF77F01227F0022D0
:0D1AED008F4C8D508B4EE55FC313F54D22DD
:071B70008F4A8D498B4B22C7
:10194400EFC3946450158F4AE54A5403600DE5498A
:0C195400B40108E54BB41C03754B1B22CA
:0A1B3C001FEFC3940C50028F4922E2
:101A92008F331210FA1533E533C39F500385334B4E
:011AA2002221
:091B4600EFC3943C50028F4C22C5
:091B4F00EFC3943C50028F5022B8
:0C1B1200EFC3943C50058F4EE4F54D22CB
:10173C00E54A2401FFE433FEC3EF9464EE64809425
:10174C00804005E4F54A8002054AE54A5403600DE1
:10175C00E549B40108E54BB41C03754B1B434F081A
:01176C00225A
:1018B000E5492401FFE433FEC3EF940CEE64809409
:0E18C000804005E4F54980020549434F0822A7
:101853001210FAE54B2401FDE433FCC3ED9F7480C1
:10186300F86C984005E4F54B8002054B434F082282
:1018CE00E54C2401FFE433FEC3EF9418EE648094DC
:0E18DE00804005E4F54C8002054C434F082283
:1018EC00E5502401FFE433FEC3EF943CEE64809496
:0E18FC00804005E4F55080020550434F08225D
:10190A00E54E2401FFE433FEC3EF943CEE64809479
:0E191A00804005E4F54E8002054E434F082242
:091B5800E54A75F06484AFF02247
:051B7E00E54904FF220F
:051B8300E54B04FF2208
:031B9800AF4C222D
:031B9B00AF502226
:031B9E00AF4E2225
:1006B6007D80E4FF121A80E54B04FB75F00A84AADC
:1006C600F0EB75F00A84C454F04202E54A5403C4C0
:1006D600333354C04202AD027F05121A80AD4A7F01
:1006E60013121A80E54904FB75F00A84AAF0EB752B
:1006F600F00A84C454F04202AD027F06121A80AB9F
:100706004CEB75F00A84AAF0EB75F00A84C454F039
:100716004202AD027F04121A80AB50EB75F00A84D8
:10072600AAF0EB75F00A84C454F04202AD027F03CE
:10073600121A80AB4EEB75F00A84AAF0EB75F00A3C
:1007460084C454F04202AD027F02121A80AB4DEB14
:1007560075F002A4FFAEF07C007D0A1200D8AA054F
:10076600AF03EF75F002A4FFAEF07C007D0A120025
:10077600D8EFC454F04202AD027F01121A80E4FDA4
:04078600FF021A80D4
:1009E1007F131219938F4AE54A5403F52E534AFC9B
:1009F1007F05121993EFC413135403424AC3952E72
:100A010050067404254AF54AEF5430FEC4540F755C
:100A1100F00AA4F54BEF540F254BF54B154B7F0610
:100A2100121993EF541FFF5410FEC4540F75F00AAE
:100A3100A4F549EF540F2549F54915497F041219C9
:100A410093EF543FFF5430FEC4540F75F00AA4F5E0
:100A51004CEF540F254CF54C7F03121993EFC454FE
:100A61000F75F00AA4F550EF540F2550F5507F0291
:100A7100121993EFC4540F75F00AA4F54EEF540FF9
:100A8100254EF54E7F01121993EFC4540F75F00AEC
:100A9100A4F52EEF540F252EF52EC313F54D534F0C
:020AA100F92238
:071B7700434F02E4F54D228B
:041B9000434F042299
:041B9400534FF92290
:0710FA00E54AFD7C00AF494F
:10110100EFB40C00505290110EF8282873021153BD
:1011110002113502115302114A02115302114D02FB
:1011210011530211530211500211530211560211AF
:10113100537F1F22AE04AF057C007D0412012DED0B
:101141004C70037F1D227F1C227F1E227F1E227F67
:0B1151001E227F1F227F1E227F002233
:10176D00E54EC3943B5003054E22E4F54EE550C3C0
:10177D00943B5003055022E4F550E54CC3941750AB
:10178D0003054C22E4F54CE54F20E203121593229C
:101593001210FAE54B2401FDE433FCEFFBC3ED9B92
:1015A3007480F86C985003054B22E4F54BE549C36E
:1015B300940B5003054922E4F549E54AC39463506B
:0815C30003054A22E4F54A2267
:03000000020C6F80
:0C0C6F00787FE4F6D8FD758160020CB6B9
:10008000BB010689828A83E0225002E722BBFE027E
:09009000E32289828A83E49322B1
:10009900BB010CE58229F582E5833AF583E022501C
:1000A90006E92582F8E622BBFE06E92582F8E22266
:0D00B900E58229F582E5833AF583E4932280
:1000C600BB010689828A83F0225002F722BBFE0119
:0200D600F32213
:1000D800BC000BBE0029EF8DF084FFADF022E4CC0C
:1000E800F875F008EF2FFFEE33FEEC33FCEE9DECD5
:1000F800984005FCEE9DFE0FD5F0E9E4CEFD22ED1B
:10010800F8F5F0EE8420D21CFEADF075F008EF2F64
:10011800FFED33FD4007985006D5F0F222C398FD55
:050128000FD5F0EA22F2
:10012D00C2D5EC30E709B2D5E4C39DFDE49CFCEEED
:10013D0030E715B2D5E4C39FFFE49EFE1200D8C38D
:10014D00E49DFDE49CFC80031200D830D507C3E488
:06015D009FFFE49EFE225C
:10016300BB010A89828A83E0F5F0A3E02250068767
:10017300F009E71922BBFE07E3F5F009E319228929
:0B018300828A83E493F5F0740193225C
:10018E00BB010789828A830202D5500B09C5F0276D
:10019E00F7C5F01937F722BBFE0D09F8E325F0F38A
:1001AE00C5F019E338F322F889828A837401932506
:0801BE00F0C5F0F8E4933822CB
:1001C600D083D082F8E4937012740193700DA3A3C8
:1001D60093F8740193F5828883E4737402936860DC
:0601E600EFA3A3A380DFDC
:1001EC00E709F60870FA8046E709F20870FA803ED3
:1001FC0088828C83E709F0A370FA807EE309F60805
:10020C0070FA8076E309F20870FA806E88828C832B
:10021C00E309F0A370FA806289828A83E0A3F6086E
:10022C0070FA805689828A83E0A3F20870FA804AB9
:10023C0080D280FA80C680D4806580F280318010B4
:10024C0080A680EA809A80A880DA80E280CA803119
:10025C0089828A83ECFAE493A3C8C582C8CCC5838F
:10026C00CCF0A3C8C582C8CCC583CC70E9800D89FD
:10027C00828A83E493A3F60870F9ECFAA9F0EDFBFB
:10028C002289828A83ECFAE0A3C8C582C8CCC583D4
:10029C00CCF0A3C8C582C8CCC583CC70EA80DD89FC
:1002AC00828A83E493A3F20870F980CE88F0ED245F
:1002BC0002B4040050C4F582EB2402B4040050BA1A
:0902CC00232345822390023C73B8
:101A2F00E4FFFE120080600C0FEF70010E09E970E9
:051A3F00F20A80EF2215
:100C7B000214E4E493A3F8E493A34003F68001F297
:100C8B0008DFF48029E493A3F85407240CC8C3337A
:100C9B00C4540F4420C8834004F456800146F6DF49
:100CAB00E4800B0102040810204080901B88E47E36
:100CBB00019360BCA3FF543F30E509541FFEE4933E
:100CCB00A360010ECF54C025E060A840B8E493A305
:100CDB00FAE493A3F8E493A3C8C582C8CAC583CA30
:100CEB00F0A3C8C582C8CAC583CADFE9DEE780BEE8
:011B8B000059
:1002D500C5F0F8A3E028F0C5F0F8E58215827002B4
:0602E5001583E038F02251
:00000001FF
