:03000300021333B2
:10133300C0E0C0F0C083C082C0D075D000C000C080
:1013430001C002C003C004C005C006C0071216F4E2
:101353001212AE1218F3D007D006D005D004D00372
:10136300D002D001D000D0D0D082D083D0F0D0E052
:011373003247
:03001B00021A982E
:011A9800321B
:10190900E4F5A8758955D2A8D2A9D288D2AF75872E
:05191900807590FF2223
:1013F3001219091215B31219E0121A7F1218661284
:10140300157E121A301218B11219C5EF60061202B6
:10141300EB1207071218DD8F2CE52CB40103121908
:0B14230033E52CB402DF12194780DA19
:1007DB00013F017F0000000000000000023C017E91
:1007EB0001EC01ED00000298017D0296017C029C58
:1007FB0002800282028402860288028A028C028EA6
:10080B0002900292029400000000029A0000000085
:10081B00000002000202020402060208020A020C95
:10082B00020E01100211021302150317021A021C09
:10083B00021E02200222022402260228022A032C74
:10084B00022F023102330000000000000000029E64
:10085B00000002400242024402460248014A024B97
:10086B00024D014F015002510153035402570259DB
:10087B00025B02600262026402660268026A036C37
:10088B00026F0271027300000000000000000BF009
:08089B000C3F1E611EA11E812D
:03000B00020C44A0
:100C4400C0E0C083C082C0D0E52A24FE60281460BE
:100C54003214604214604C1460672405706CE529FA
:100C640030E10E90A00030E40574D0F0800374509D
:100C7400F0752A02801B90A000E4F0752A03758A9F
:100C8400AC8039E52930E20690A0007460F0752A42
:100C940004758AEA802690A000E4F0752A05758A16
:100CA400C38019E52930E30E90A00030E50574F007
:100CB400F080037470F0752A06758AEA758CFF80DB
:100CC4000990A000E4F0F52AC28CD0D0D082D08361
:030CD400D0E0323B
:1016F400752A01758AD3758CFFD28CE52930E606EC
:101704005329BF432904E52930E70653297F539021
:02171400F722BA
:100AF4008F31E53164016009E53164026003020B62
:100B0400AAE531B401047F0380027F008F35E5310B
:100B14007C00B401047D1480027D1E753E00753F87
:100B2400007540347B007A00790812096B8E368F89
:100B340037E5374536605CE53730E0047F008002F6
:100B44007F018F38AE36AF377C007D0212012DE570
:100B5400382450FDE433CDC39FF533ED9EF5327454
:100B6400082534F8E4F6E52AB535FBE531B401048B
:100B74007F0180027F031215E7E5317E00B4010492
:100B84007F0180027F037B007A007908AD33AC32A9
:100B9400020600E52AB535FBE531B401047F018086
:070BA400027F031215E72296
:1002EB00E52AB405FB753102753236E52830E20399
:1002FB000204115403F53064027050121A7A120C76
:10030B00D77B007A007931E53075F00A84E5F0246B
:10031B0030FD120CE87B007A0079317D2D120CE850
:10032B00121A75120CD77B007A007931E53075F013
:10033B000A84E5F02430FD120CE87B007A00793159
:10034B007D2D120CE8121A560203F8E53064037087
:10035B004F121A75120CD77B007A007931E5307584
:10036B00F00A84E5F02430FD120CE87B007A00796A
:10037B00317D2D120CE8121A7A120CD77B007A0001
:10038B007931E53075F00A84E5F02430FD120CE884
:10039B007B007A0079317D2D120CE8121A56804DB4
:1003AB00121A56120CD77B007A007931E53075F0B2
:1003BB000A84E5F02430FD120CE87B007A007931D9
:1003CB007D2D120CE8121A75120CD77B007A00796E
:1003DB0031E53075F00A84E5F02430FD120CE87B32
:1003EB00007A0079317D2D120CE8121A7A120CD793
:1003FB007B007A007931E53075F00A84E5F0243022
:10040B00FD120CE88022E4F530E42532FFE53134AF
:10041B0040FE7C00EF2530FFEC3E8F82F583743F6E
:10042B00F00530E530B410E175310275325CE5282A
:10043B0030E6030204CA121A8F8F33E5285430FFBB
:10044B00C4540FF530B40314E533D3940C40067445
:10045B00F42533F533E533700375330CE533120CA8
:10046B00DB7B007A007931E53375F00A84E5F02403
:10047B0030FD120CE87B007A0079317D3A120CE8E2
:10048B00121A92120CD77B007A007931E53075F095
:10049B000A84E5F02430FD120CE87B007A007931F8
:1004AB007D3A120CE8121A95120CD77B007A007960
:1004BB0031E53075F00A84E5F02430FD020CE8E4F8
:1004CB00F530E42532FFE5313440FE7C00EF25307A
:1004DB00FFEC3E8F82F583743FF00530E530B410AE
:0204EB00E1220C
:10096B008C3C8D3D8B398A3A893B12191E8F41E4A1
:10097B00F542F543F544F545C3E54595417480F8DB
:10098B006544984003020A22AB39AA3AA93B854534
:10099B0082854483120099FF5480FD3395E04D60AE
:1009AB0010EF547F75F002A4249BF9740835F08086
:1009BB0022AB39AA3AA93B8545828544831200991B
:1009CB00FF3395E0FEEF25E0FFEE33FE749B2FF92E
:1009DB0074073EFA7BFF8B468A478948120080FDDD
:1009EB007C002543FFEC3542FED3EF953DE53C649F
:1009FB0080F8EE648098400AAB3EAA3FA940E545DB
:100A0B00801DED2543F543EC3542F5420545E545A3
:100A1B0070020544020983AB3EAA3FA940E541128F
:070A2B0000C6AE42AF4322FA
:10157E00121798908000E4F090A000F0752A01F503
:10158E0029752811FB7A0079087534207F30121ADC
:10159E00261219337B007A0079087534207F501299
:0515AE001A2602194796
:1013B400AE28EFF45228ED4228E52830E20320E677
:1013C40003432940E52830E20630E6035329FBEEC7
:1013D4005477FFE52854776F60031202EBE5283059
:0F13E400E309E59030E307432980224390082274
:10193300E50860047D028002E4FD7F02121A5F7FE6
:0419430001020AF49F
:10194700E50860047D088002E4FD7F08121A5F7FC6
:0419570002020AF48A
:10142E0078087C007D007BFF7A19796F1202B81262
:10143E0019337B007A0079087F3012182E78087CD9
:10144E00007D007BFF7A1979771202B81219477B5B
:0A145E00007A0079087F5002182E72
:10171600E4F5081219337B007A0079087F30121835
:101726002EE4F5081219477B007A0079087F5002EB
:02173600182E6B
:101266008F30E530C39408501CE53094035038E5C0
:10127600304480F508E4F5091219477B007A0079B5
:10128600087F50801F74F82530F530D3940350172B
:10129600E5304480F508E4F5091219337B007A003D
:0812A60079087F3012182E2296
:10179800E4FFFEE42FFDEE34408D82F583743FF0C4
:0E17A8000FBF00010EE4B507EAEEB404E6221E
:1015E700AD07E4FBFAEDFEE42400FFEE3440CF2B19
:1015F700CF3A8F82F583743FF00BBB00010AE4B545
:1016070003E3EAB401DFBD01035329EFBD0303532D
:0316170029DF22A6
:081A5F00EFF45229ED422922A7
:100600008E398F3A8C3B8D3C8B3D8A3E893F121947
:100610001E8E408F41E53A7F00FEEF253CF545E513
:100620003B3EF544E4F542F543C3E5439541E540DF
:100630006480F8E54264809840030206CFAB3DAA8F
:100640003EA93F854382854283120099FF5480FD75
:100650003395E04D6010EF547F75F002A4249BF9B0
:10066000740835F08022AB3DAA3EA93F85438285C0
:100670004283120099FF3395E0FEEF25E0FFEE3351
:10068000FE749B2FF974073EFA7BFF8B468A4789DD
:1006900048E4FFAB46AA47A948120080FEEFC39E7C
:1006A00050229000011200992FFE0545E545AC440B
:1006B00070020544142400FDEC34408D82F583EE75
:1006C000F00F80CF0543E54370020542020629E59D
:1006D0003A640145397014AB3DAA3EA93F1200802F
:1006E00030E70543291080035329EFE53A640345B9
:1006F000397013AB3DAA3EA93F12008030E7044396
:070700002920225329DF220A
:100CD7008F30E5307B007A00793175F00A84243053
:010CE700FD0F
:100CE8008B348A358936AF05EF3395E0FEEF25E082
:100CF800FFEE33FE749B2FF974073E7537FFF53806
:100D08008939AB37FA900001120099FFAB34AA3544
:100D1800A9361201632400FDE5F034408D82F58385
:100D2800EFF0E475F00112018EAB37AA38A93990BB
:100D3800000112009904FFAB34AA35A936120163E9
:100D48002400FDE5F034408D82F583EFF0E475F082
:040D58000102018E05
:041A7F00E4F55F2209
:1018B1001219ECEF600F121A83E554B40107AD530E
:0618C100AF521210C72215
:0A1A1C008F528D537554030219B662
:1010C7008F2D8D2EE52D1201C6111B3C111B3E11D4
:1010D7001143110A44110046110A4811054C110A1F
:1010E7004D110A4F10FB52110A53111654110A5988
:1010F70000001122AF2E02167BAF2E0216A7AF2ECD
:101107000214DAAD2EAF2D0204EDAF2E021738AF61
:0C1117002E020DE0AD2EAF2D1208A32219
:10167B008F2FE52F24AC600424107005121A8B8079
:10168B000BE52F30E706FD7FFF1213B4E52F30E398
:0C169B00047D6180027D627F72021A1CD7
:1016A7008F2FE52F24AC60092410700A121A878047
:1016B70010121A6E800BE52F30E706FD7FF7121325
:0816C700B47D647F66021A1C69
:1014DA008F2FE52F24BE600E0470167D887F0812B8
:1014EA0013B47D61801B7D807F081213B47D6280F6
:1014FA0010E52F54C06008E52F540FFF1212667DC5
:07150A00067F6C121A1C227F
:1004ED008F2F8D30E530643F7065E52F24BC605350
:1004FD0024F7601F24FE603F24FC602324FA602B48
:10050D00241160030205FF121A8FEF4480FD7F68EE
:10051D000205FC121A92EF4480FD7F6D0205FC125C
:10052D001A95EF4480FD7F730205FC121A56EF44B5
:10053D0080FD7F790205FC121A75EF4480FD7F6FF7
:10054D000205FC121A7AEF4480FD7F640205FCE57A
:10055D00306449703FE52F24BC602D24F7601524CD
:10056D00FE602024FC601224FA60132411701C120A
:10057D0017D480171217F28012121810800D121650
:10058D001A80081217B68003121759E52F2420FF81
:10059D007D06805BE53030E74F547FF531E52F2444
:1005AD00BC602224FC602524FB602824FE600F24FF
:1005BD00FC602724FA7028AF3112184A8021AF3120
:1005CD00121A3A801AAF311219958013AF31121ADF
:1005DD0044800CAF31121A4D8005AF31121A04E56B
:1005ED002F2420FF7D068007E52F2420FF7D061296
:0305FD001A1C22A3
:100DE000EF24F0602224FB601924FD604024FA60A7
:100DF0001124FD603F24F7601C240D705012142E46
:100E000080471217168029120D5CEF60047D1A804E
:100E10003E7D07803A1219F8EF6009E4FF1216CF01
:100E20007D0780077F011216CF7D1A802212154898
:100E30007D06801B1215118F2FE52FB401031219A7
:100E400033E52FB402031219477D0680027D067F29
:050E500074121A1C22BF
:10173800EF24EE600D24FA600E2407700D120F31AD
:101748008008120EC38003120BAB7D067F63021A5A
:011758001C74
:1008A3008F2F8D30E530B41008E4F55F7D23020906
:1008B30067E53064187034E52FB43C147408255F81
:1008C300F8E4F61219337B007A0079087F3080123E
:1008D3007408255FF8E4F61219477B007A0079085B
:1008E3007F5012182E7D06AF2F8079E53030E770E8
:1008F300E52F643C7035E55F2401FFE433FEEF64CC
:10090300204E7014F5271219337B007A0079087F83
:100913003012182E7D06800F53307FAF5F055F7452
:10092300082FF8A6307D23AF2F8039E55F2401FF20
:10093300E433FEEF64204E7014F5271219477B0051
:100943007A0079087F5012182E7D06800F53307F6E
:10095300AF5F055F74082FF8A6307D23AF2F8004A7
:080963007D06AF2F121A1C22C1
:0300230002106662
:10106600C0E0C0D075D000C000C007309845859953
:101076002BC298E551B40118AF55055574522FF897
:10108600A62B75997CE555B4030675550075510276
:10109600E551B4041EE55564036012E52BB47E13D6
:1010A600AF55055574522FF8E6F59980067555002B
:1010B600755101309902C299D007D000D0D0D0E046
:0110C60032F7
:0C19E000759890D2ACE4F55575510122C9
:0C19EC00E551B402047F0180027F00225C
:041A83007551012276
:0F19B600755104AF55055574522FF8E6F5992277
:10195B00EF6008439080000043904053907F00005D
:04196B005390BF22B4
:1019A60053907F0000439040000043908000002247
:1018C700EF6005439080800353907F000043904072
:0618D70000005390BF2247
:1018800043908000004390400000E59030E7047FE3
:091890000180027F005390BF2289
:0913740025E0F540E4FBFD7F01DA
:10137D00AE07AF05EE600312195BE4FEE54030E702
:10138D00047F0180027F001218C7E54025E0F5407B
:10139D000EBE08E8121880EB60031219A6EF700458
:0713AD007F0180027F002296
:10177900AE07E4FCFB121880EC25E04FFC0BBB081C
:0F178900F4AF061218C7ED60031219A6AF0422C1
:100E55008D368B378A388939AC07EC121374EF60FD
:100E650057853640E4FBFDFF12137DEF604AEC2504
:100E7500E04401F540E4FB7D017F0112137DEF6045
:100E850037E53AD39401401CE4FDFF121779AB37DF
:100E95000539E539AA387002053814F9EF1200C68C
:100EA500153A80DD7D017F01121779AB37AA38A984
:0E0EB50039EF1200C67F01221219A67F00221B
:100F9C008B388A39893AAC05EF121374EF60538C95
:100FAC0040E4FBFDFF12137DEF6047E4F53CE53CAC
:100FBC00C3953B503AE53C2401FFE433FE7C00EF43
:100FCC00B53B08ECB506047B0180027B00C003AB8B
:100FDC0038AA39A93A853C82758300120099F540EC
:100FEC00D003E4FDFF12137DEF6007053C80BF7F4B
:080FFC0001221219A67F002258
:10196F005048494C49505300504D3536343420318E
:04197F00363A3900BB
:1015B3007B007A00792D753A027D107F50120E550B
:1015C3007B007A00792F753A017D127F50120E55F8
:1015D300E52EB4380BE52DB44F06E52F6401600307
:0415E3001214682254
:1014680075304F7531387B007A007930753B027DD5
:10147800107F50120F9C7D017F121219837D5C7FB3
:10148800131219837BFF7A19796F7F3012182E7B1C
:0A149800FF7A1979777F5002182EB1
:101983008D32AD077B007A007932753B017F5002BF
:021993000F9CA7
:10189900AD077B007A00792E753A017F50120E55FB
:0818A900EF7002F52EAF2E22B4
:10182E008F328B338A34893512191EEF04F53BAB98
:0C183E0033AA34A935AD327F50020F9C54
:0A1A2600AD0785343A7F50020E55DB
:0A1A3000E4F557F556F559F55A2272
:1012AE00E5575460603C155AE55A7036740725565A
:1012BE00F8E6FF645F6004EFB42E0974072556F854
:1012CE0076208018E55730E50774072556F8765FC7
:1012DE00E55730E60774072556F8762E4357807586
:0312EE005A192268
:1011CC008B318A328933BF7F037F0022EF04F535E0
:1011DC00E535C394805034E53575F002A4249BF9B1
:1011EC00740735F0FA7BFF8B36F53789381200809F
:1011FC00FF6014E534C39F400EAB31AA32A933E52E
:0E120C00351200C67F0122053580C57F002205
:10121A008B328A338934BF20010FEF14F536E53655
:10122A00C394204034E53675F002A4249BF9740770
:10123A0035F0FA7BFF8B37F5388939120080FF6069
:10124A0014E535C39F400EAB32AA33A934E53612F2
:0C125A0000C67F0122153680C57F0022EF
:101179008B318A32893353077FBF03037F0022EF04
:1011890004F535E535C394045036E53575F002A408
:10119900249BF9740835F0FA7BFF8B36F5378938CB
:1011A900120080FF6016E534C39F4010E535448086
:1011B900AB31AA32A9331200C67F0122053580C39B
:0311C9007F002282
:101123008B328A33893453077FEF70010FEF14FD3D
:10113300C3ED64809480403BEDFF3395E0FEEF25E3
:10114300E0FFEE33FE749B2FF974083EFA7BFF8BAE
:1011530036F5378938120080FF6015E535C39F40A7
:101163000FED4480AB32AA33A9341200C67F0122AB
:061173001D80BD7F00227B
:1012F1007B007A00790812191E8F30E530D39400F3
:10130100400974072FF8E6F531E4F6753E00753FA4
:10131100007540567B007A0079087D147C00120923
:101321006B8F58E530D39400400774072530F8A639
:02133100312267
:100D5C00E55754036005E55730E126E55730E10BC4
:100D6C007B007A0079087F5012182E7B007A00796C
:100D7C00087534207F30121A261212F17557018033
:100D8C0024E55730E01F7B007A0079087F30121879
:100D9C002E7B007A0079087534207F50121A2612A7
:100DAC0012F17557027B007A00790812191E8F56C2
:100DBC0074082FF8E4F6F559435780E50830E70539
:100DCC0043570480035357FBE55730E2047F0180FF
:040DDC00027F002270
:100EC300E5566069E5596003FF800774072556F806
:100ED300E6FFAC07E55720E206EC30E7027C20E5AD
:100EE3005730E206EC20E702E4FCE55730E0047EED
:100EF3001480027E1EC3EE9558F530E557AF047B90
:100F0300007A00792F30E2088530351211238006EC
:100F130085303512121AEF601474072556F8A62F80
:0E0F2300435780E559600653579FE4F5592265
:100F3100E5566066E5596003FF800774072556F89A
:100F4100E6FFAD07E55720E206ED30E7027D20E53B
:100F51005730E206ED20E702E4FDE55730E0047E7C
:100F61001480027E1EC3EE9558FEE557AF057B0047
:100F71007A00792F30E2078E3412117980058E3490
:100F81001211CCEF601474072556F8A62F43578031
:0B0F9100E559600653579FE4F5592214
:100BAB00E5596003020C43E5577C0030E0047D14EB
:100BBB0080027D1E753E00753F007540567B007AA6
:100BCB0000790812096BEFFD7C00E5577A0030E0E5
:100BDB00047B1480027B1EC3EB9DFDEA9CFCC3EDE2
:100BEB009401EC64809480404F8F58E556C3941F5A
:100BFB005046E5569400400974072556F8E6FF80E9
:100C0B00027F208F59D3ED9401EC64809480400FC8
:100C1B00755A1974082556F8765F435720800D7561
:100C2B005A1974082556F8762E43574005564357E4
:090C3B008074082556F8E4F62245
:10154800E55660312407F8E4F61556E5577C003077
:10155800E0047D1480027D1E753E00753F007540D5
:10156800567B007A00790812096B8F5853579FE40D
:06157800F55943578022E3
:10151100E556D39400400BE559600774072556F84A
:10152100E4F6E55730E0047F3080027F507B007A9B
:1015310000790812182EE55730E006E4F5577F01CF
:0715410022E4F5577F0222AE
:1018DD00E55730E70E53577FE55730E0037F012280
:0618ED007F02227F0022B1
:0C19F800E55730E2047F0180027F0022EE
:1016CF00EF7005E55720E208EF6019E55720E214A7
:1016DF00E4F508F556F559435780EF600443570476
:0516EF00225357FB220D
:1018F300E54F20E110054DE54DB43209E4F54D12F5
:06190300164B434F0822C1
:10186600E4F54AF549F54BF54CF550F54EF54D7551
:0A1876004F06FDFF121983020A322B
:0E19C500E54F30E306534FF77F01227F0022EB
:0D19D3008F4C8D508B4EE55EC313F54D22F9
:071A67008F4A8D498B4B22D1
:10184A00EFC3946450158F4AE54A5403600DE54985
:0C185A00B40108E54BB41C03754B1B22C5
:0A1A3A001FEFC3940C50028F4922E5
:101995008F321210041532E532C39F500385324B46
:0119A500221F
:091A4400EFC3943C50028F4C22C8
:091A4D00EFC3943C50028F5022BB
:0C1A0400EFC3943C50058F4EE4F54D22DA
:10161A00E54A2401FFE433FEC3EF9464EE64809448
:10162A00804005E4F54A8002054AE54A5403600D04
:10163A00E549B40108E54BB41C03754B1B434F083D
:01164A00227D
:1017B600E5492401FFE433FEC3EF940CEE64809404
:0E17C600804005E4F54980020549434F0822A2
:10175900121004E54B2401FDE433FCC3ED9F7480B2
:10176900F86C984005E4F54B8002054B434F08227D
:1017D400E54C2401FFE433FEC3EF9418EE648094D7
:0E17E400804005E4F54C8002054C434F08227E
:1017F200E5502401FFE433FEC3EF943CEE64809491
:0E180200804005E4F55080020550434F082257
:10181000E54E2401FFE433FEC3EF943CEE64809474
:0E182000804005E4F54E8002054E434F08223D
:091A5600E54A75F06484AFF0224A
:051A7500E54904FF2219
:051A7A00E54B04FF2212
:031A8F00AF4C2237
:031A9200AF502230
:031A9500AF4E222F
:100707007D80E4FF121983E54B04FB75F00A84AA88
:10071700F0EB75F00A84C454F04202E54A5403C46E
:10072700333354C04202AD027F05121983AD4A7FAD
:1007370013121983E54904FB75F00A84AAF0EB75D7
:10074700F00A84C454F04202AD027F06121983AB4B
:100757004CEB75F00A84AAF0EB75F00A84C454F0E8
:100767004202AD027F04121983AB50EB75F00A8485
:10077700AAF0EB75F00A84C454F04202AD027F037D
:10078700121983AB4EEB75F00A84AAF0EB75F00AE9
:1007970084C454F04202AD027F02121983AB4DEBC1
:1007A70075F002A4FFAEF07C007D0A1200D8AA05FE
:1007B700AF03EF75F002A4FFAEF07C007D0A1200D4
:1007C700D8EFC454F04202AD027F01121983E4FD51
:0407D700FF02198381
:100A32007F131218998F4AE54A5403F52D534AFC45
:100A42007F05121899EFC413135403424AC3952D1C
:100A520050067404254AF54AEF5430FEC4540F750B
:100A6200F00AA4F54BEF540F254BF54B154B7F06BF
:100A7200121899EF541FFF5410FEC4540F75F00A58
:100A8200A4F549EF540F2549F54915497F04121879
:100A920099EF543FFF5430FEC4540F75F00AA4F589
:100AA2004CEF540F254CF54C7F03121899EFC454A8
:100AB2000F75F00AA4F550EF540F2550F5507F0240
:100AC200121899EFC4540F75F00AA4F54EEF540FA3
:100AD200254EF54E7F01121899EFC4540F75F00A96
:100AE200A4F52DEF540F252DF52DC313F54D534FBE
:020AF200F922E7
:071A6E00434F02E4F54D2295
:041A8700434F0422A3
:041A8B00534FF9229A
:07100400E54AFD7C00AF4945
:10100B00EFB40C005052901018F828287302105DA2
:10101B0002103F02105D02105402105D02105702C5
:10102B00105D02105D02105A02105D02106002107A
:10103B005D7F1F22AE04AF057C007D0412012DEDF8
:10104B004C70037F1D227F1C227F1E227F1E227F5E
:0B105B001E227F1F227F1E227F00222A
:10164B00E54EC3943B5003054E22E4F54EE550C3E3
:10165B00943B5003055022E4F550E54CC3941750CE
:10166B0003054C22E4F54CE54F20E2031214A222B1
:1014A200121004E54B2401FDE433FCEFFBC3ED9B7A
:1014B2007480F86C985003054B22E4F54BE549C360
:1014C200940B5003054922E4F549E54AC39463505D
:0814D20003054A22E4F54A2259
:03000000021A10D1
:0C1A1000787FE4F6D8FD75815F0213F3C7
:10008000BB010689828A83E0225002E722BBFE027E
:09009000E32289828A83E49322B1
:10009900BB010CE58229F582E5833AF583E022501C
:1000A90006E92582F8E622BBFE06E92582F8E22266
:0D00B900E58229F582E5833AF583E4932280
:1000C600BB010689828A83F0225002F722BBFE0119
:0200D600F32213
:1000D800BC000BBE0029EF8DF084FFADF022E4CC0C
:1000E800F875F008EF2FFFEE33FEEC33FCEE9DECD5
:1000F800984005FCEE9DFE0FD5F0E9E4CEFD22ED1B
:10010800F8F5F0EE8420D21CFEADF075F008EF2F64
:10011800FFED33FD4007985006D5F0F222C398FD55
:050128000FD5F0EA22F2
:10012D00C2D5EC30E709B2D5E4C39DFDE49CFCEEED
:10013D0030E715B2D5E4C39FFFE49EFE1200D8C38D
:10014D00E49DFDE49CFC80031200D830D507C3E488
:06015D009FFFE49EFE225C
:10016300BB010A89828A83E0F5F0A3E02250068767
:10017300F009E71922BBFE07E3F5F009E319228929
:0B018300828A83E493F5F0740193225C
:10018E00BB010789828A830202D5500B09C5F0276D
:10019E00F7C5F01937F722BBFE0D09F8E325F0F38A
:1001AE00C5F019E338F322F889828A837401932506
:0801BE00F0C5F0F8E4933822CB
:1001C600D083D082F8E4937012740193700DA3A3C8
:1001D60093F8740193F5828883E4737402936860DC
:0601E600EFA3A3A380DFDC
:1001EC00E709F60870FA8046E709F20870FA803ED3
:1001FC0088828C83E709F0A370FA807EE309F60805
:10020C0070FA8076E309F20870FA806E88828C832B
:10021C00E309F0A370FA806289828A83E0A3F6086E
:10022C0070FA805689828A83E0A3F20870FA804AB9
:10023C0080D280FA80C680D4806580F280318010B4
:10024C0080A680EA809A80A880DA80E280CA803119
:10025C0089828A83ECFAE493A3C8C582C8CCC5838F
:10026C00CCF0A3C8C582C8CCC583CC70E9800D89FD
:10027C00828A83E493A3F60870F9ECFAA9F0EDFBFB
:10028C002289828A83ECFAE0A3C8C582C8CCC583D4
:10029C00CCF0A3C8C582C8CCC583CC70EA80DD89FC
:1002AC00828A83E493A3F20870F980CE88F0ED245F
:1002BC0002B4040050C4F582EB2402B4040050BA1A
:0902CC00232345822390023C73B8
:10191E00E4FFFE120080600C0FEF70010E09E970FB
:05192E00F20A80EF2227
:1002D500C5F0F8A3E028F0C5F0F8E58215827002B4
:0602E5001583E038F02251
:00000001FF
