:030003000213499C
:10134900C0E0C0F0C083C082C0D075D000C000C06A
:1013590001C002C003C004C005C006C00712179A25
:1013690012126E1219B0121957D007D006D005D033
:1013790004D003D002D001D000D0D0D082D083D005
:04138900F0D0E0328E
:03001B00021B4D78
:011B4D003265
:1019C600E4F5A8758955D2A8D2A9D288D2AF758771
:0519D600807590FF2266
:101490001219C612161B121A7D121B3812190C12C1
:1014A0001577121ADE12196E121A8BEF60061202ED
:1014B000EB1206A312199A8F2DE52DB40103121910
:0B14C000F0E52DB402DF121A0480DA00
:10077700013F017F0000000000000000023C017EF5
:1007870001EC01ED00000298017D0296017C029CBC
:1007970002800282028402860288028A028C028E0A
:1007A70002900292029400000000029A00000000EA
:1007B700000002000202020402060208020A020CFA
:1007C700020E01100211021302150317021A021C6E
:1007D700021E02200222022402260228022A032CD9
:1007E700022F023102330000000000000000029EC9
:1007F700000002400242024402460248014A024BFC
:10080700024D014F0150025101530354025702593F
:10081700025B02600262026402660268026A036C9B
:10082700026F027102730000000000000BF002FE6D
:080837000C3F1B621B831BC375
:031B3400012B037F
:03000B00020BC91C
:100BC900C0E0C083C082C0D0E52A24FE602814603A
:100BD9003214604214604C1460672405706CE52976
:100BE90030E10E90A00030E40574D0F08003745019
:100BF900F0752A02801B90A000E4F0752A03758A1B
:100C0900BE8039E52930E20690A00074E0F0752A2B
:100C190004758AED802690A000E4F0752A05758A8E
:100C2900CF8019E52930E30E90A00030E50574F076
:100C3900F080037470F0752A06758AED758CFF8053
:100C49000990A000E4F0F52AC28CD0D0D082D083DC
:030C5900D0E032B6
:10179A00752A01758ADB758CFFD28CE52930E6063D
:1017AA005329BF432904E52930E70653297F53907B
:0217BA00F72214
:100A90008F32E53264016009E53264026003020BC3
:100AA0002FE532B401047F0380027F008F36E532E8
:100AB0007C00B401047D1180027D1B753E00753FF2
:100AC000007540357B007A0079081209078E378F50
:100AD00038E538453760457C007D0212012DC3742E
:100AE000349FF534E49EF53374082535F8E4F6E5D3
:100AF0002AB536FBE532B401047F0180027F031280
:100B0000164FE5327E00B401047F0180027F037B33
:100B1000007A007908AD34AC3302059CE52AB5367D
:100B2000FBE532B401047F0180027F0312164F22DD
:1002EB00E52AB405FB75330275341CE52830E203AF
:1002FB000203FA5403F5326402704A121B2F1213D5
:10030B008D7B007A007933E53275F00A84ADF012FB
:10031B00139C7B007A0079337D0B12139C121B2AE2
:10032B0012138D7B007A007933E53275F00A84ADB8
:10033B00F012139C7B007A0079337D0B12139C1205
:10034B001B040203E6E53264037049121B2A1213E5
:10035B008D7B007A007933E53275F00A84ADF012AB
:10036B00139C7B007A0079337D0B12139C121B2F8D
:10037B0012138D7B007A007933E53275F00A84AD68
:10038B00F012139C7B007A0079337D0B12139C12B5
:10039B001B048047121B0412138D7B007A007933E8
:1003AB00E53275F00A84ADF012139C7B007A00796C
:1003BB00337D0B12139C121B2A12138D7B007A00B8
:1003CB007933E53275F00A84ADF012139C7B007A19
:1003DB000079337D0B12139C121B2F12138D7B0094
:1003EB007A007933E53275F00A84ADF012139C75FF
:1003FB00330275343DE52830E603020488121B44B2
:10040B008F35E5285430FFC4540FF532B40314E58F
:10041B0035D3940C400674F42535F535E53570036A
:10042B0075350CE5351213917B007A007933E53580
:10043B0075F00A84ADF012139C7B007A0079337D42
:10044B000A12139C121B4712138D7B007A0079330F
:10045B00E53275F00A84ADF012139C7B007A0079BB
:10046B00337D0A12139C121B4A12138D7B007A00E8
:0E047B007933E53275F00A84ADF012139C223D
:100907008C3C8D3D8B398A3A893B1219DB8F41E448
:10091700F542F543F544F545C3E54595417480F83F
:1009270065449840030209BEAB39AA3AA93B8545FD
:1009370082854483120099FF5480FD3395E04D6012
:1009470010EF547F75F002A42437F9740835F0804E
:1009570022AB39AA3AA93B8545828544831200997F
:10096700FF3395E0FEEF25E0FFEE33FE74372FF9F6
:1009770074073EFA7BFF8B468A478948120080FD41
:100987007C002543FFEC3542FED3EF953DE53C6403
:1009970080F8EE648098400AAB3EAA3FA940E5453F
:1009A700801DED2543F543EC3542F5420545E54508
:1009B7007002054402091FAB3EAA3FA940E5411258
:0709C70000C6AE42AF43225F
:1015770012183E9080007402F090A000E4F0752AE3
:1015870001F529752811FB7A0079087535207F3018
:10159700121AD41219F07B007A0079087535207F6A
:0715A70050121AD4021A04CD
:100DE100852831EFF45228ED4228E53120E208E56B
:100DF1002830E2031216B5E53120E608E52830E691
:100E010003121682E5315433FFE5285433B5071434
:100E1100E53130E205E52830E20AE53130E608E562
:100E21002820E6031202EBE52830E20320E6034323
:100E31002940E52830E20630E6035329FBE5283056
:0F0E4100E309E59030E30743298022439008221C
:1019F000E50860047D028002E4FD7F02121B0D7F7A
:041A000001020A9045
:101A0400E50860047D088002E4FD7F08121B0D7F59
:041A140002020A9030
:1014CB0078087C007D007BFF7A1A796E1202B812C5
:1014DB0019F07B007A0079087F301218D478087CD9
:1014EB00007D007BFF7A1A79761202B8121A047B00
:0A14FB00007A0079087F500218D42F
:1017BC00E4F5081219F07B007A0079087F301218D2
:1017CC00D4E4F508121A047B007A0079087F5002E1
:0217DC0018D41F
:1012B9008F31E531C39408501CE531952B5038E541
:1012C900314480F508E4F509121A047B007A0079A3
:1012D900087F50801F74F82531F531D3952B5017AD
:1012E900E5314480F508E4F5091219F07B007A002C
:0812F90079087F301218D4229D
:10183E00E4FFFEE42FFDEE34408D82F583743FF01D
:0E184E000FBF00010EE4B507EAEEB404E62277
:10164F00AD07E4FBFAEDFEE42400FFEE3440CF2BB0
:10165F00CF3A8F82F583743FF00BBB00010AE4B5DC
:10166F0003E3EAB401DFBD01035329EFBD030353C5
:03167F0029DF223E
:1016820075320275333DE52AB4030A858A34E58A48
:10169200B534F380F9E4FFE42533FDE5323440FC50
:1016A200EF7A002DFDEA3C8D82F583743FF00FBF87
:0316B20010E5221E
:1016B50075320275331CE52AB4030A858A34E58A36
:1016C500B534F380F9E4FFE42533FDE5323440FC1D
:1016D500EF7A002DFDEA3C8D82F583743FF00FBF54
:0316E50010E522EB
:081B0D00EFF45229ED422922F8
:10059C008E398F3A8C3B8D3C8B3D8A3E893F1219AC
:1005AC00DB8E408F41E53A7F00FEEF253CF545E5BB
:1005BC003B3EF544E4F542F543C3E5439541E54044
:1005CC006480F8E542648098400302066BAB3DAA58
:1005DC003EA93F854382854283120099FF5480FDDA
:1005EC003395E04D6010EF547F75F002A42437F979
:1005FC00740835F08022AB3DAA3EA93F8543828525
:10060C004283120099FF3395E0FEEF25E0FFEE33B5
:10061C00FE74372FF974073EFA7BFF8B468A4789A5
:10062C0048E4FFAB46AA47A948120080FEEFC39EE0
:10063C0050229000011200992FFE0545E545AC446F
:10064C0070020544142400FDEC34408D82F583EED9
:10065C00F00F80CF0543E543700205420205C5E566
:10066C003A640145397014AB3DAA3EA93F12008093
:10067C0030E70543291080035329EFE53A6403451D
:10068C00397013AB3DAA3EA93F12008030E70443FA
:07069C002920225329DF226F
:0F138D008F32E5327B007A00793375F00A84FDE8
:10139C00ED25E0FD1201632400FFE5F034408F825F
:1013AC00F583EDF0E475F00112018EED04FF1201EE
:1013BC00632400FDE5F034408D82F583EFF0E47595
:0513CC00F00102018E9A
:041B3800E4F560224E
:10196E00121AA6EF600F121B15E555B40107AD5400
:06197E00AF5312112222FA
:0A1ACA008F538D54755503021A5F07
:101122008F2E8D2FE52E1201C611763C11763E11BF
:101132006C43116544115B4611654811604C1165A1
:101142004D11654F11565211655311715411655964
:101152000000117DAF2F021749AF2F021453AF2F9A
:10116200021301AD2FAF2E020489AF2F0217DEAF9B
:0C1172002F020D6CAD2FAF2E12083F2293
:101749008F30E53024AC600424107005121B4080F2
:101759000BE53030E706FD7FFF120DE1E53030E3A0
:0C176900047D6180027D627F72021ACA5A
:101453008F30E53024BB601A24F4601A24FD600B3E
:1014630024107016121B3C7D64801C121B237D7498
:1014730080157D6580117D71800DE53030E706FDB7
:0D1483007FF7120DE17D787F66121ACA22F4
:101301008F30E53024C1602624FD601324F9601A72
:101311002408701E7D887F08120DE17D6180237D88
:10132100807F08120DE17D6280187D0680147D802A
:101331008010E53054C06008E530540FFF1212B937
:081341007D067F6C121ACA221E
:100489008F308D31E531643F7065E53024BC6053B0
:1004990024F7601F24FE603F24FC602324FA602BAC
:1004A9002411600302059B121B44EF4480FD7F6801
:1004B900020598121B47EF4480FD7F6D02059812D3
:1004C9001B4AEF4480FD7F73020598121B04EF4419
:1004D90080FD7F79020598121B2AEF4480FD7F6F0A
:1004E900020598121B2FEF4480FD7F64020598E5F1
:1004F900316449703FE53024BC602D24F760152430
:10050900FE602024FC601224FA60132411701C126E
:10051900187A801712189880121218B6800D1216C0
:10052900E8800812185C80031217FFE5302420FFC9
:100539007D06805BE53130E74F547FF532E53024A5
:10054900BC602224FC602524FB602824FE600F2463
:10055900FC602724FA7028AF321218F08021AF32DC
:10056900121AE8801AAF32121A3E8013AF32121AE9
:10057900F2800CAF32121AFB8005AF32121ABEE5B7
:10058900302420FF7D068007E5302420FF7D0612F8
:030599001ACA2259
:100D6C00EF24F0602224FB601924FD604024FA601B
:100D7C001124FD603F24F7601C240D70501214CB1D
:100D8C0080471217BC8029120CE8EF60047D1A8092
:100D9C003E7D07803A121AB2EF6009E4FF12177514
:100DAC007D0780077F011217757D1A80221215E5C9
:100DBC007D06801B1215AE8F30E530B4010312197D
:100DCC00F0E530B40203121A047D0680027D067F22
:050DDC0074121ACA2286
:1017DE00EF24EE600D24FA600E2407700D120F2C0C
:1017EE008008120EBE8003120B307D067F63021A34
:0117FE00CA20
:10083F008F308D31E531B41008E4F5607D23020966
:10084F0003E53164187034E530B43C147408256046
:10085F00F8E4F61219F07B007A0079087F308012E5
:10086F0074082560F8E4F6121A047B007A00790800
:10087F007F501218D47D06AF308079E53130E770A4
:10088F00E530643C7035E5602401FFE433FEEF642E
:10089F00204E7014F5271219F07B007A0079087F2B
:1008AF00301218D47D06800F53317FAF600560740E
:1008BF00082FF8A6317D23AF308039E5602401FF82
:1008CF00E433FEEF64204E7014F527121A047B00F8
:1008DF007A0079087F501218D47D06800F53317F2C
:1008EF00AF60056074082FF8A6317D23AF30800408
:0808FF007D06AF30121ACA2277
:030023000210C404
:1010C400C0E0C0D075D000C000C0073098428599F8
:1010D4002CC298E551B40115AF56055674532FF838
:1010E400A62C75997CE556B40303755102E551B4F9
:1010F400041EE55664036012E52CB47E13AF560556
:101104005674532FF8E6F59980067556007551010B
:0E111400309902C299D007D000D0D0D0E0327E
:10195700E55164016010AF520552EFC3940640068B
:07196700E4F552121B1522EA
:0E1A7D00759890D2ACE4F556F55275510122E1
:0C1AA600E551B402047F0180027F0022A1
:071B1500E4F55675510122B1
:0F1A5F00755104AF56055674532FF8E6F59922CA
:101A1800EF6008439080000043904053907F00009F
:041A28005390BF22F6
:101A4F0053907F000043904000004390800000229D
:10198400EF6005439080800353907F0000439040B4
:0619940000005390BF2289
:1019260043908000004390400000E59030E7047F3C
:091936000180027F005390BF22E2
:0914130025E0F541E4FBFD7F0139
:10141C00AE07AF05EE6003121A18E4FEE54130E7A3
:10142C00047F0180027F00121984E54125E0F5411B
:10143C000EBE08E8121926EB6003121A4FEF700467
:07144C007F0180027F0022F6
:10181F00AE07E4FCFB121926EC25E04FFC0BBB08CE
:0F182F00F4AF06121984ED6003121A4FAF0422B2
:100E50008D378B388A39893AAC07EC121413EF605E
:100E600057853741E4FBFDFF12141CEF604AEC2567
:100E7000E04401F541E4FB7D017F0112141CEF60A9
:100E800037E53BD39401401CE4FDFF12181FAB383B
:100E9000053AE53AAA397002053914F9EF1200C68D
:100EA000153B80DD7D017F0112181FAB38AA39A9DF
:0E0EB0003AEF1200C67F0122121A4F7F002275
:100F97008B398A3A893BAC05EF121413EF60538CF7
:100FA70041E4FBFDFF12141CEF6047E4F53DE53D0E
:100FB700C3953C503AE53D2401FFE433FE7C00EF46
:100FC700B53C08ECB506047B0180027B00C003AB8F
:100FD70039AA3AA93B853D82758300120099F541EC
:100FE700D003E4FDFF12141CEF6007053D80BF7FAF
:080FF7000122121A4F7F0022B3
:0F1A6E005048494C49505300504D3536343400E0
:10161B007B007A00792E753B027D107F50120E50A5
:10162B007B007A007930753B017D127F50120E5092
:10163B00E52FB4380BE52EB44F06E530640160039B
:04164B00121505224D
:1015050075314F7532387B007A007931753C027D33
:10151500107F50120F977D017F12121A2C7D5C7F70
:1015250013121A2C7BFF7A1A796E7F301218D47B2E
:0A153500FF7A1A79767F500218D46D
:101A2C008D33AD077B007A007933753C017F500212
:021A3C000F9702
:10193F00AD077B007A00792F753B017F50120E5057
:08194F00EF7002F52FAF2F220B
:1018D4008F338B348A3589361219DBEF04F53CAB30
:0C18E40034AA35A936AD337F50020F97AF
:0A1AD400AD0785353B7F50020E5030
:0A1ADE00E4F558F557F55AF55B22C0
:10126E00E55854606044155BE55B703E7407255786
:10127E00F8E6FFB45F0974072557F8767F8025EFEF
:10128E00B42E0974072557F876208018E55830E5F6
:10129E000774072557F8765FE55830E6077407257B
:0B12AE0057F8762E435880755B19221C
:1011D4008B328A338934BF7E037F0022EF04F536D5
:1011E400E536C3947F5034E53675F002A42437F90C
:1011F400740735F0FA7BFF8B37F538893912008094
:10120400FF6014E535C39F400EAB32AA33A934E521
:0E121400361200C67F0122053680C57F0022FB
:101222008B338A348935BF20010FEF14F537E53748
:10123200C394204034E53775F002A42437F97407CB
:1012420035F0FA7BFF8B38F539893A120080FF605E
:1012520014E536C39F400EAB33AA34A935E53712E5
:0C12620000C67F0122153780C57F0022E6
:100FFF008B328A33893453077FE52BB507037F0084
:10100F0022EF04F536E52B2401FFE433FEC3E5366A
:10101F009FEE6480F87480985036E53675F002A420
:10102F002437F9740835F0FA7BFF8B37F538893997
:10103F00120080FF6016E535C39F4010E5364480EF
:10104F00AB32AA33A9341200C67F0122053680B510
:03105F007F0022ED
:10117E008B338A34893553077FEF70010FEF14FDDF
:10118E00C3ED64809480403BEDFF3395E0FEEF2588
:10119E00E0FFEE33FE74372FF974083EFA7BFF8BB7
:1011AE0037F5388939120080FF6015E536C39F4048
:1011BE000FED4480AB33AA34A9351200C67F01224D
:0611CE001D80BD7F002220
:1013D1007B007A0079081219DB8F31E531D3940053
:1013E100400974072FF8E6F532E4F6753E00753FC3
:1013F100007540577B007A0079087D117C00120945
:10140100078F59E531D39400400774072531F8A6B9
:02141100322285
:100CE800E55854036005E55830E126E55830E10B36
:100CF8007B007A0079087F501218D47B007A00793B
:100D0800087535207F30121AD41213D17558018016
:100D180024E55830E01F7B007A0079087F301218EC
:100D2800D47B007A0079087535207F50121AD412C6
:100D380013D17558027B007A0079081219DB8F5796
:100D480074082FF8E4F6F55A435880E50830E705AB
:100D580043580480035358FBE55830E2047F018070
:040D6800027F0022E4
:100EBE00E5576069E55A6003FF800774072557F808
:100ECE00E6FFAC07E55820E206EC30E7027C20E5B1
:100EDE005830E206EC20E702E4FCE55830E0047EF0
:100EEE001180027E1BC3EE9559F531E558AF047B98
:100EFE00007A00793030E20885313612117E800694
:100F0E00853136121222EF601474072557F8A63079
:0E0F1E00435880E55A600653589FE4F55A2266
:100F2C00E5576066E55A6003FF800774072557F89C
:100F3C00E6FFAD07E55820E206ED30E7027D20E53F
:100F4C005830E206ED20E702E4FDE55830E0047E7F
:100F5C001180027E1BC3EE9559FEE558AF057B0050
:100F6C007A00793030E2078E35120FFF80058E350E
:100F7C001211D4EF601474072557F8A6304358802B
:0B0F8C00E55A600653589FE4F55A2216
:100B3000E55A6003020BC8E5587C0030E0047D11E3
:100B400080027D1B753E00753F007540577B007A23
:100B5000007908120907EFFD7C00E5587A0030E0C3
:100B6000047B1180027B1BC3EB9DFDEA9CFCC3ED63
:100B70009401EC64809480404F8F59E557C3941FD3
:100B80005046E5579400400974072557F8E6FF8062
:100B9000027F208F5AD3ED9401EC64809480400F43
:100BA000755B1974082557F8765F435820800D75DA
:100BB0005B1974082557F8762E435840055743585B
:090BC0008074082557F8E4F622C0
:1015E500E55760312407F8E4F61557E5587C0030D7
:1015F500E0047D1180027D1B753E00753F0075403E
:10160500577B007A0079081209078F5953589FE4D0
:06161500F55A4358802243
:1015AE00E557D39400400BE55A600774072557F8AA
:1015BE00E4F6E55830E0047F3080027F507B007AFD
:1015CE000079081218D4E55830E006E4F5587F018A
:0715DE0022E4F5587F022210
:10199A00E55830E70E53587FE55830E0037F0122BF
:0619AA007F02227F0022F3
:0C1AB200E55830E2047F0180027F002232
:10177500EF7005E55820E208EF6019E55820E214FE
:10178500E4F508F557F55A435880EF6004435804CB
:05179500225358FB2265
:1019B000E54F20E110054DE54DB43C09E4F54D122D
:0619C0001719434F082235
:10190C00E4F54AF549F54BF54CF550F54EF54D75AA
:0A191C004F06FDFF121A2C0209CE3F
:0E1A8B00E54F30E306534FF77F01227F002224
:0D1A99008F4C8D508B4EE55FC313F54D2231
:071B1C008F4A8D498B4B221B
:1018F000EFC3946450158F4AE54A5403600DE549DF
:0C190000B40108E54BB41C03754B1B221E
:0A1AE8001FEFC3940C50028F492237
:101A3E008F331210621533E533C39F500385334B3A
:011A4E002275
:091AF200EFC3943C50028F4C221A
:091AFB00EFC3943C50028F50220D
:0C1ABE00EFC3943C50058F4EE4F54D2220
:1016E800E54A2401FFE433FEC3EF9464EE6480947A
:1016F800804005E4F54A8002054AE54A5403600D36
:10170800E549B40108E54BB41C03754B1B434F086E
:0117180022AE
:10185C00E5492401FFE433FEC3EF940CEE6480945D
:0E186C00804005E4F54980020549434F0822FB
:1017FF00121062E54B2401FDE433FCC3ED9F7480AE
:10180F00F86C984005E4F54B8002054B434F0822D6
:10187A00E54C2401FFE433FEC3EF9418EE64809430
:0E188A00804005E4F54C8002054C434F0822D7
:10189800E5502401FFE433FEC3EF943CEE648094EA
:0E18A800804005E4F55080020550434F0822B1
:1018B600E54E2401FFE433FEC3EF943CEE648094CE
:0E18C600804005E4F54E8002054E434F082297
:091B0400E54A75F06484AFF0229B
:051B2A00E54904FF2263
:051B2F00E54B04FF225C
:031B4400AF4C2281
:031B4700AF50227A
:031B4A00AF4E2279
:1006A3007D80E4FF121A2CE54B04FB75F00A84AA43
:1006B300F0EB75F00A84C454F04202E54A5403C4D3
:1006C300333354C04202AD027F05121A2CAD4A7F68
:1006D30013121A2CE54904FB75F00A84AAF0EB7592
:1006E300F00A84C454F04202AD027F06121A2CAB06
:1006F3004CEB75F00A84AAF0EB75F00A84C454F04D
:100703004202AD027F04121A2CAB50EB75F00A843F
:10071300AAF0EB75F00A84C454F04202AD027F03E1
:10072300121A2CAB4EEB75F00A84AAF0EB75F00AA3
:1007330084C454F04202AD027F02121A2CAB4DEB7B
:1007430075F002A4FFAEF07C007D0A1200D8AA0562
:10075300AF03EF75F002A4FFAEF07C007D0A120038
:10076300D8EFC454F04202AD027F01121A2CE4FD0B
:04077300FF021A2C3B
:1009CE007F1312193F8F4AE54A5403F52E534AFC02
:1009DE007F0512193FEFC413135403424AC3952ED9
:1009EE0050067404254AF54AEF5430FEC4540F7570
:1009FE00F00AA4F54BEF540F254BF54B154B7F0624
:100A0E0012193FEF541FFF5410FEC4540F75F00A15
:100A1E00A4F549EF540F2549F54915497F041219DC
:100A2E003FEF543FFF5430FEC4540F75F00AA4F547
:100A3E004CEF540F254CF54C7F0312193FEFC45465
:100A4E000F75F00AA4F550EF540F2550F5507F02A4
:100A5E0012193FEFC4540F75F00AA4F54EEF540F60
:100A6E00254EF54E7F0112193FEFC4540F75F00A53
:100A7E00A4F52EEF540F252EF52EC313F54D534F1F
:020A8E00F9224B
:071B2300434F02E4F54D22DF
:041B3C00434F0422ED
:041B4000534FF922E4
:07106200E54AFD7C00AF49E7
:10106900EFB40C005052901076F82828730210BB88
:1010790002109D0210BB0210B20210BB0210B50291
:1010890010BB0210BB0210B80210BB0210BE021046
:10109900BB7F1F22AE04AF057C007D0412012DED3C
:1010A9004C70037F1D227F1C227F1E227F1E227F00
:0B10B9001E227F1F227F1E227F0022CC
:10171900E54EC3943B5003054E22E4F54EE550C314
:10172900943B5003055022E4F550E54CC3941750FF
:1017390003054C22E4F54CE54F20E20312153F2244
:10153F00121062E54B2401FDE433FCEFFBC3ED9B7E
:10154F007480F86C985003054B22E4F54BE549C3C2
:10155F00940B5003054922E4F549E54AC3946350BF
:08156F0003054A22E4F54A22BB
:03000000020C5C93
:0C0C5C00787FE4F6D8FD758160020CA3DF
:10008000BB010689828A83E0225002E722BBFE027E
:09009000E32289828A83E49322B1
:10009900BB010CE58229F582E5833AF583E022501C
:1000A90006E92582F8E622BBFE06E92582F8E22266
:0D00B900E58229F582E5833AF583E4932280
:1000C600BB010689828A83F0225002F722BBFE0119
:0200D600F32213
:1000D800BC000BBE0029EF8DF084FFADF022E4CC0C
:1000E800F875F008EF2FFFEE33FEEC33FCEE9DECD5
:1000F800984005FCEE9DFE0FD5F0E9E4CEFD22ED1B
:10010800F8F5F0EE8420D21CFEADF075F008EF2F64
:10011800FFED33FD4007985006D5F0F222C398FD55
:050128000FD5F0EA22F2
:10012D00C2D5EC30E709B2D5E4C39DFDE49CFCEEED
:10013D0030E715B2D5E4C39FFFE49EFE1200D8C38D
:10014D00E49DFDE49CFC80031200D830D507C3E488
:06015D009FFFE49EFE225C
:10016300BB010A89828A83E0F5F0A3E02250068767
:10017300F009E71922BBFE07E3F5F009E319228929
:0B018300828A83E493F5F0740193225C
:10018E00BB010789828A830202D5500B09C5F0276D
:10019E00F7C5F01937F722BBFE0D09F8E325F0F38A
:1001AE00C5F019E338F322F889828A837401932506
:0801BE00F0C5F0F8E4933822CB
:1001C600D083D082F8E4937012740193700DA3A3C8
:1001D60093F8740193F5828883E4737402936860DC
:0601E600EFA3A3A380DFDC
:1001EC00E709F60870FA8046E709F20870FA803ED3
:1001FC0088828C83E709F0A370FA807EE309F60805
:10020C0070FA8076E309F20870FA806E88828C832B
:10021C00E309F0A370FA806289828A83E0A3F6086E
:10022C0070FA805689828A83E0A3F20870FA804AB9
:10023C0080D280FA80C680D4806580F280318010B4
:10024C0080A680EA809A80A880DA80E280CA803119
:10025C0089828A83ECFAE493A3C8C582C8CCC5838F
:10026C00CCF0A3C8C582C8CCC583CC70E9800D89FD
:10027C00828A83E493A3F60870F9ECFAA9F0EDFBFB
:10028C002289828A83ECFAE0A3C8C582C8CCC583D4
:10029C00CCF0A3C8C582C8CCC583CC70EA80DD89FC
:1002AC00828A83E493A3F20870F980CE88F0ED245F
:1002BC0002B4040050C4F582EB2402B4040050BA1A
:0902CC00232345822390023C73B8
:1019DB00E4FFFE120080600C0FEF70010E09E9703E
:0519EB00F20A80EF226A
:100C6800021490E493A3F8E493A34003F68001F2FE
:100C780008DFF48029E493A3F85407240CC8C3338D
:100C8800C4540F4420C8834004F456800146F6DF5C
:100C9800E4800B0102040810204080901B34E47E9D
:100CA800019360BCA3FF543F30E509541FFEE49351
:100CB800A360010ECF54C025E060A840B8E493A318
:100CC800FAE493A3F8E493A3C8C582C8CAC583CA43
:100CD800F0A3C8C582C8CAC583CADFE9DEE780BEFB
:011B370000AD
:1002D500C5F0F8A3E028F0C5F0F8E58215827002B4
:0602E5001583E038F02251
:00000001FF
