:030003000213D411
:1013D400C0E0C0F0C083C082C0D075D000C000C0DF
:1013E40001C002C003C004C005C006C0071217A78D
:1013F4001212F9121A2E1219D5D007D006D005D020
:1014040004D003D002D001D000D0D0D082D083D079
:04141400F0D0E03202
:03001B00021BCBFA
:011BCB0032E7
:101A4400E4F5A8758955D2A8D2A9D288D2AF7587F2
:051A5400807590FF22E7
:10151B00121A441216A9121AFB121BB612198A12AE
:10152B001556121B5C1219EC121B09EF6006120206
:10153B00EB1206A3121A188F2DE52DB40103121A04
:0B154B006EE52DB402DF121A8280DA78
:10077700013F017F0000000000000000023C017EF5
:1007870001EC01ED00000298017D0296017C029CBC
:1007970002800282028402860288028A028C028E0A
:1007A70002900292029400000000029A00000000EA
:1007B700000002000202020402060208020A020CFA
:1007C700020E01100211021302150317021A021C6E
:1007D700021E02200222022402260228022A032CD9
:1007E700022F023102330000000000000000029EC9
:1007F700000002400242024402460248014A024BFC
:10080700024D014F0150025101530354025702593F
:10081700025B02600262026402660268026A036C9B
:10082700026F027102730000000000000BF002FE6D
:080837000C3F1C621E811EC172
:031BB200012B0301
:03000B00020BC91C
:100BC900C0E0C083C082C0D0E52A24FE602814603A
:100BD9003214604214604C1460672405706CE52976
:100BE90030E10E90A00030E40574D0F08003745019
:100BF900F0752A02801B90A000E4F0752A03758A1B
:100C0900AC8039E52930E20690A00074E0F0752A3D
:100C190004758AEA802690A000E4F0752A05758A91
:100C2900C38019E52930E30E90A00030E50574F082
:100C3900F080037470F0752A06758AEA758CFF8056
:100C49000990A000E4F0F52AC28CD0D0D082D083DC
:030C5900D0E032B6
:1017A700E52A64076029752A01758AD3758CFFD2EB
:1017B7008CE52930E6065329BF432904E52930E79C
:1017C7000653297F5390F7E52930E0035329FE227A
:100A90008F32E53264016009E53264026003020BC3
:100AA0002FE532B401047F0380027F008F36E532E8
:100AB0007C00B401047D1280027D1C753E00753FF0
:100AC000007540357B007A0079081209078E378F50
:100AD00038E538453760457C007D0212012DC3742E
:100AE000369FF534E49EF53374082535F8E4F6E5D1
:100AF0002AB536FBE532B401047F0180027F031280
:100B000016DDE5327E00B401047F0180027F037BA5
:100B1000007A007908AD34AC3302059CE52AB5367D
:100B2000FBE532B401047F0180027F031216DD224F
:1002EB00E52AB405FB75330275341DE52830E203AE
:1002FB000203FA5403F5326402704A121BAD121456
:10030B00187B007A007933E53275F00A84ADF01270
:10031B0014277B007A0079337D0B121427121BA84C
:10032B001214187B007A007933E53275F00A84AD2C
:10033B00F01214277B007A0079337D0B12142712ED
:10034B001B820203E6E53264037049121BA81214E8
:10035B00187B007A007933E53275F00A84ADF01220
:10036B0014277B007A0079337D0B121427121BADF7
:10037B001214187B007A007933E53275F00A84ADDC
:10038B00F01214277B007A0079337D0B121427129D
:10039B001B828047121B821214187B007A00793360
:1003AB00E53275F00A84ADF01214277B007A0079E0
:1003BB00337D0B121427121BA81214187B007A0022
:1003CB007933E53275F00A84ADF01214277B007A8D
:1003DB000079337D0B121427121BAD1214187B00FE
:1003EB007A007933E53275F00A84ADF01214277573
:1003FB00330275343FE52830E603020488121BC232
:10040B008F35E5285430FFC4540FF532B40314E58F
:10041B0035D3940C400674F42535F535E53570036A
:10042B0075350CE53512141C7B007A007933E535F4
:10043B0075F00A84ADF01214277B007A0079337DB6
:10044B000A121427121BC51214187B007A00793379
:10045B00E53275F00A84ADF01214277B007A00792F
:10046B00337D0A121427121BC81214187B007A0052
:0E047B007933E53275F00A84ADF012142722B1
:100907008C3C8D3D8B398A3A893B121A598F41E4C9
:10091700F542F543F544F545C3E54595417480F83F
:1009270065449840030209BEAB39AA3AA93B8545FD
:1009370082854483120099FF5480FD3395E04D6012
:1009470010EF547F75F002A42437F9740835F0804E
:1009570022AB39AA3AA93B8545828544831200997F
:10096700FF3395E0FEEF25E0FFEE33FE74372FF9F6
:1009770074073EFA7BFF8B468A478948120080FD41
:100987007C002543FFEC3542FED3EF953DE53C6403
:1009970080F8EE648098400AAB3EAA3FA940E5453F
:1009A700801DED2543F543EC3542F5420545E54508
:1009B7007002054402091FAB3EAA3FA940E5411258
:0709C70000C6AE42AF43225F
:10155600752A07120CE8752A019080007406F0902F
:10156600A000E4F0F529752811FB7A007908753595
:10157600207F30121B52121A6E7B007A0079087592
:0A15860035207F50121B52021A821A
:100E6C00852831EFF45228ED4228E53120E208E5DF
:100E7C002830E203121743E53120E608E52830E676
:100E8C0003121710E5315433FFE5285433B507141A
:100E9C00E53130E205E52830E20AE53130E608E5D7
:100EAC002820E6031202EBE52830E20320E6034398
:100EBC002940E52830E20630E6035329FBE52830CB
:0F0ECC00E309E59030E307432980224390082291
:101A6E00E50860047D028002E4FD7F02121B8B7F7D
:041A7E0001020A90C7
:101A8200E50860047D088002E4FD7F08121B8B7F5D
:041A920002020A90B2
:1015900078087C007D007BFF7A1A79EC1202B81281
:1015A0001A6E7B007A0079087F3012195278087C15
:1015B000007D007BFF7A1A79F41202B8121A827B3E
:0A15C000007A0079087F50021952EA
:10185800E4F508121A6E7B007A0079087F301219B5
:1018680052E4F508121A827B007A0079087F500248
:02187800195203
:101344008F31E531C39408501CE531952B5038E5B5
:10135400314480F508E4F509121A827B007A007999
:10136400087F50801F74F82531F531D3952B501721
:10137400E5314480F508E4F509121A6E7B007A0021
:0813840079087F301219522292
:100CE80090A0007410F0E4FFFEE42FFDEE34408D78
:100CF80082F583743FF00FBF00010EE4B507EAEEFA
:100D0800B401E690A0007420F0E4FEFFE42FFDEEAD
:100D180034418D82F583743FF00FBF00010EE4B5B6
:100D280007EAEEB401E690A0007430F0E4FEFFE4B8
:100D38002FFDEE34428D82F583743FF00FBF000122
:100D48000EE4B507EAEEB401E690A000E4F0FEFF79
:100D5800E42FFDEE34438D82F583743FF00FBF001E
:0B0D6800010EE4B507EAEEB401E6223C
:1016DD00AD07E4FBFAEDFEE42400FFEE3440CF2B22
:1016ED00CF3A8F82F583743FF00BBB00010AE4B54E
:1016FD0003E3EAB401DFBD01035329EFBD03035337
:03170D0029DF22AF
:1017100075320275333FE52AB4030A858A34E58AB7
:10172000B534F380F9E4FFE42533FDE5323440FCC1
:10173000EF7A002DFDEA3C8D82F583743FF00FBFF8
:0317400010E5228F
:1017430075320275331DE52AB4030A858A34E58AA6
:10175300B534F380F9E4FFE42533FDE5323440FC8E
:10176300EF7A002DFDEA3C8D82F583743FF00FBFC5
:0317730010E5225C
:081B8B00EFF45229ED4229227A
:10059C008E398F3A8C3B8D3C8B3D8A3E893F121AAB
:1005AC00598E408F41E53A7F00FEEF253CF545E53D
:1005BC003B3EF544E4F542F543C3E5439541E54044
:1005CC006480F8E542648098400302066BAB3DAA58
:1005DC003EA93F854382854283120099FF5480FDDA
:1005EC003395E04D6010EF547F75F002A42437F979
:1005FC00740835F08022AB3DAA3EA93F8543828525
:10060C004283120099FF3395E0FEEF25E0FFEE33B5
:10061C00FE74372FF974073EFA7BFF8B468A4789A5
:10062C0048E4FFAB46AA47A948120080FEEFC39EE0
:10063C0050229000011200992FFE0545E545AC446F
:10064C0070020544142400FDEC34408D82F583EED9
:10065C00F00F80CF0543E543700205420205C5E566
:10066C003A640145397014AB3DAA3EA93F12008093
:10067C0030E70543291080035329EFE53A6403451D
:10068C00397013AB3DAA3EA93F12008030E70443FA
:07069C002920225329DF226F
:0F1418008F32E5327B007A00793375F00A84FD5C
:10142700ED25E0FD1201632400FFE5F034408F82D3
:10143700F583EDF0E475F00112018EED04FF120162
:10144700632400FDE5F034408D82F583EFF0E47509
:05145700F00102018E0E
:041BB600E4F56022D0
:1019EC00121B24EF600F121B93E555B40107AD5485
:0619FC00AF531211AD22F1
:0A1B48008F538D54755503021ADD0A
:1011AD008F2E8D2FE52E1201C612013C12013E111C
:1011BD00F74311F04411E64611F04811EB4C11F0D4
:1011CD004D11F04F11E15211F05311FC5411F05922
:1011DD0000001208AF2F021807AF2F0214DEAF2F39
:1011ED0002138CAD2FAF2E020489AF2F02187AAFE8
:0C11FD002F020DF7AD2FAF2E12083F227D
:101807008F30E53024AC600424107005121BBE80B5
:101817000BE53030E706FD7FFF120E6CE53030E355
:0C182700047D6180027D627F72021B481C
:1014DE008F30E53024BB601A24F4601A24FD600BB3
:1014EE0024107016121BBA7D64801C121BA17D7411
:1014FE0080157D6580117D71800DE53030E706FD2C
:0D150E007FF7120E6C7D787F66121B48225D
:10138C008F30E53024C1602624FD601324F9601AE7
:10139C002408701E7D887F08120E6C7D6180237D71
:1013AC00807F08120E6C7D6280187D0680147D8013
:1013BC008010E53054C06008E530540FFF12134420
:0813CC007D067F6C121B482214
:100489008F308D31E531643F7065E53024BC6053B0
:1004990024F7601F24FE603F24FC602324FA602BAC
:1004A9002411600302059B121BC2EF4480FD7F6883
:1004B900020598121BC5EF4480FD7F6D0205981255
:1004C9001BC8EF4480FD7F73020598121B82EF441D
:1004D90080FD7F79020598121BA8EF4480FD7F6F8C
:1004E900020598121BADEF4480FD7F64020598E573
:1004F900316449703FE53024BC602D24F760152430
:10050900FE602024FC601224FA60132411701C126E
:1005190018F880171219168012121934800D121743
:100529007680081218DA800312189BE5302420FF20
:100539007D06805BE53130E74F547FF532E53024A5
:10054900BC602224FC602524FB602824FE600F2463
:10055900FC602724FA7028AF3212196E8021AF325D
:10056900121B66801AAF32121ABC8013AF32121BEB
:1005790070800CAF32121B798005AF32121B3CE53B
:10058900302420FF7D068007E5302420FF7D0612F8
:030599001B4822DA
:100DF700EF24F0602224FB601924FD604024FA6090
:100E07001124FD603F24F7601C240D7050121590CB
:100E170080471218588029120D73EF60047D1A80DD
:100E27003E7D07803A121B30EF6009E4FF1218334A
:100E37007D0780077F011218337D1A8022121673EF
:100E47007D06801B12163C8F30E530B40103121A61
:100E57006EE530B40203121A827D0680027D067F9A
:050E670074121B48227B
:10187A00EF24EE600D24FA600E2407700D120FB7E4
:10188A008008120F498003120B307D067F63021B0A
:01189A004805
:10083F008F308D31E531B41008E4F5607D23020966
:10084F0003E53164187034E530B43C147408256046
:10085F00F8E4F6121A6E7B007A0079087F30801266
:10086F0074082560F8E4F6121A827B007A00790882
:10087F007F501219527D06AF308079E53130E77025
:10088F00E530643C7035E5602401FFE433FEEF642E
:10089F00204E7014F527121A6E7B007A0079087FAC
:1008AF00301219527D06800F53317FAF600560748F
:1008BF00082FF8A6317D23AF308039E5602401FF82
:1008CF00E433FEEF64204E7014F527121A827B007A
:1008DF007A0079087F501219527D06800F53317FAD
:1008EF00AF60056074082FF8A6317D23AF30800408
:0808FF007D06AF30121B4822F8
:0300230002114F78
:10114F00C0E0C0D075D000C000C00730984285996C
:10115F002CC298E551B40115AF56055674532FF8AC
:10116F00A62C75997CE556B40303755102E551B46D
:10117F00041EE55664036012E52CB47E13AF5605CA
:10118F005674532FF8E6F599800675560075510180
:0E119F00309902C299D007D000D0D0D0E032F3
:1019D500E55164016010AF520552EFC3940640060D
:0719E500E4F552121B9322EE
:0E1AFB00759890D2ACE4F556F5527551012263
:0C1B2400E551B402047F0180027F002222
:071B9300E4F5567551012233
:0F1ADD00755104AF56055674532FF8E6F599224C
:101A9600EF6008439080000043904053907F000021
:041AA6005390BF2278
:101ACD0053907F000043904000004390800000221F
:101A0200EF6005439080800353907F000043904035
:061A120000005390BF220A
:1019A40043908000004390400000E59030E7047FBE
:0919B4000180027F005390BF2264
:09149E0025E0F541E4FBFD7F01AE
:1014A700AE07AF05EE6003121A96E4FEE54130E79A
:1014B700047F0180027F00121A02E54125E0F54111
:1014C7000EBE08E81219A4EB6003121ACDEF7004E0
:0714D7007F0180027F00226B
:1018BB00AE07E4FCFB1219A4EC25E04FFC0BBB08B4
:0F18CB00F4AF06121A02ED6003121ACDAF042219
:100EDB008D378B388A39893AAC07EC12149EEF6048
:100EEB0057853741E4FBFDFF1214A7EF604AEC2551
:100EFB00E04401F541E4FB7D017F011214A7EF6093
:100F0B0037E53BD39401401CE4FDFF1218BBAB3813
:100F1B00053AE53AAA397002053914F9EF1200C601
:100F2B00153B80DD7D017F011218BBAB38AA39A9B7
:0E0F3B003AEF1200C67F0122121ACD7F00226B
:101022008B398A3A893BAC05EF12149EEF60538CE0
:1010320041E4FBFDFF1214A7EF6047E4F53DE53DF7
:10104200C3953C503AE53D2401FFE433FE7C00EFBA
:10105200B53C08ECB506047B0180027B00C003AB03
:1010620039AA3AA93B853D82758300120099F54160
:10107200D003E4FDFF1214A7EF6007053D80BF7F98
:081082000122121ACD7F0022A9
:0F1AEC005048494C49505300504D353634340062
:1016A9007B007A00792E753B027D107F50120EDB8C
:1016B9007B007A007930753B017D127F50120EDB79
:1016C900E52FB4380BE52EB44F06E530640160030D
:0416D9001215CA22FA
:1015CA0075314F7532387B007A007931753C027D6E
:1015DA00107F501210227D017F12121AAA7D5C7FA1
:1015EA0013121AAA7BFF7A1A79EC7F301219527BEE
:0A15FA00FF7A1A79F47F50021952AB
:101AAA008D33AD077B007A007933753C017F500294
:021ABA001022F8
:1019BD00AD077B007A00792F753B017F50120EDB4E
:0819CD00EF7002F52FAF2F228D
:101952008F338B348A358936121A59EF04F53CAB32
:0C19620034AA35A936AD337F50021022A4
:0A1B5200AD0785353B7F50020EDB26
:0A1B5C00E4F558F557F55AF55B2241
:1012F900E55854606044155BE55B703E74072557FB
:10130900F8E6FFB45F0974072557F8767F8025EF63
:10131900B42E0974072557F876208018E55830E56A
:101329000774072557F8765FE55830E607740725EF
:0B13390057F8762E435880755B192290
:10125F008B328A338934BF7E037F0022EF04F53649
:10126F00E536C3947F5034E53675F002A42437F980
:10127F00740735F0FA7BFF8B37F538893912008008
:10128F00FF6014E535C39F400EAB32AA33A934E596
:0E129F00361200C67F0122053680C57F002270
:1012AD008B338A348935BF20010FEF14F537E537BD
:1012BD00C394204034E53775F002A42437F9740740
:1012CD0035F0FA7BFF8B38F539893A120080FF60D3
:1012DD0014E536C39F400EAB33AA34A935E537125A
:0C12ED0000C67F0122153780C57F00225B
:10108A008B328A33893453077FE52BB507037F00F8
:10109A0022EF04F536E52B2401FFE433FEC3E536DF
:1010AA009FEE6480F87480985036E53675F002A495
:1010BA002437F9740835F0FA7BFF8B37F53889390C
:1010CA00120080FF6016E535C39F4010E536448064
:1010DA00AB32AA33A9341200C67F0122053680B585
:0310EA007F002262
:101209008B338A34893553077FEF70010FEF14FD53
:10121900C3ED64809480403BEDFF3395E0FEEF25FC
:10122900E0FFEE33FE74372FF974083EFA7BFF8B2B
:1012390037F5388939120080FF6015E536C39F40BC
:101249000FED4480AB33AA34A9351200C67F0122C1
:061259001D80BD7F002294
:10145C007B007A007908121A598F31E531D3940048
:10146C00400974072FF8E6F532E4F6753E00753F37
:10147C00007540577B007A0079087D127C001209B8
:10148C00078F59E531D39400400774072531F8A62E
:02149C003222FA
:100D7300E55854036005E55830E126E55830E10BAA
:100D83007B007A0079087F501219527B007A007930
:100D9300087535207F30121B5212145C7558018080
:100DA30024E55830E01F7B007A0079087F30121960
:100DB300527B007A0079087535207F50121B52123E
:100DC300145C7558027B007A007908121A598F5700
:100DD30074082FF8E4F6F55A435880E50830E70520
:100DE30043580480035358FBE55830E2047F0180E5
:040DF300027F002259
:100F4900E5576069E55A6003FF800774072557F87C
:100F5900E6FFAC07E55820E206EC30E7027C20E525
:100F69005830E206EC20E702E4FCE55830E0047E64
:100F79001280027E1CC3EE9559F531E558AF047B0A
:100F8900007A00793030E20885313612120980067C
:100F99008531361212ADEF601474072557F8A63063
:0E0FA900435880E55A600653589FE4F55A22DB
:100FB700E5576066E55A6003FF800774072557F811
:100FC700E6FFAD07E55820E206ED30E7027D20E5B4
:100FD7005830E206ED20E702E4FDE55830E0047EF4
:100FE7001280027E1CC3EE9559FEE558AF057B00C3
:100FF7007A00793030E2078E3512108A80058E35F7
:1010070012125FEF601474072557F8A63043588013
:0B101700E55A600653589FE4F55A228A
:100B3000E55A6003020BC8E5587C0030E0047D12E2
:100B400080027D1C753E00753F007540577B007A22
:100B5000007908120907EFFD7C00E5587A0030E0C3
:100B6000047B1280027B1CC3EB9DFDEA9CFCC3ED61
:100B70009401EC64809480404F8F59E557C3941FD3
:100B80005046E5579400400974072557F8E6FF8062
:100B9000027F208F5AD3ED9401EC64809480400F43
:100BA000755B1974082557F8765F435820800D75DA
:100BB0005B1974082557F8762E435840055743585B
:090BC0008074082557F8E4F622C0
:10167300E55760312407F8E4F61557E5587C003048
:10168300E0047D1280027D1C753E00753F007540AD
:10169300577B007A0079081209078F5953589FE442
:0616A300F55A43588022B5
:10163C00E557D39400400BE55A600774072557F81B
:10164C00E4F6E55830E0047F3080027F507B007A6E
:10165C00007908121952E55830E006E4F5587F017C
:07166C0022E4F5587F022281
:101A1800E55830E70E53587FE55830E0037F012240
:061A28007F02227F002274
:0C1B3000E55830E2047F0180027F0022B3
:10183300EF7005E55820E208EF6019E55820E2143F
:10184300E4F508F557F55A435880EF60044358040C
:05185300225358FB22A6
:101A2E00E54F20E110054DE54DB43209E4F54D12B8
:061A3E0017D7434F0822F8
:10198A00E4F54AF549F54BF54CF550F54EF54D752C
:0A199A004F06FDFF121AAA0209CE43
:0E1B0900E54F30E306534FF77F01227F0022A5
:0D1B17008F4C8D508B4EE55FC313F54D22B2
:071B9A008F4A8D498B4B229D
:10196E00EFC3946450158F4AE54A5403600DE54960
:0C197E00B40108E54BB41C03754B1B22A0
:0A1B66001FEFC3940C50028F4922B8
:101ABC008F331210ED1533E533C39F500385334B31
:011ACC0022F7
:091B7000EFC3943C50028F4C229B
:091B7900EFC3943C50028F50228E
:0C1B3C00EFC3943C50058F4EE4F54D22A1
:10177600E54A2401FFE433FEC3EF9464EE648094EB
:10178600804005E4F54A8002054AE54A5403600DA7
:10179600E549B40108E54BB41C03754B1B434F08E0
:0117A6002220
:1018DA00E5492401FFE433FEC3EF940CEE648094DF
:0E18EA00804005E4F54980020549434F08227D
:10189B001210EDE54B2401FDE433FCC3ED9F748086
:1018AB00F86C984005E4F54B8002054B434F08223A
:1018F800E54C2401FFE433FEC3EF9418EE648094B2
:0E190800804005E4F54C8002054C434F082258
:10191600E5502401FFE433FEC3EF943CEE6480946B
:0E192600804005E4F55080020550434F082232
:10193400E54E2401FFE433FEC3EF943CEE6480944F
:0E194400804005E4F54E8002054E434F082218
:091B8200E54A75F06484AFF0221D
:051BA800E54904FF22E5
:051BAD00E54B04FF22DE
:031BC200AF4C2203
:031BC500AF5022FC
:031BC800AF4E22FB
:1006A3007D80E4FF121AAAE54B04FB75F00A84AAC5
:1006B300F0EB75F00A84C454F04202E54A5403C4D3
:1006C300333354C04202AD027F05121AAAAD4A7FEA
:1006D30013121AAAE54904FB75F00A84AAF0EB7514
:1006E300F00A84C454F04202AD027F06121AAAAB88
:1006F3004CEB75F00A84AAF0EB75F00A84C454F04D
:100703004202AD027F04121AAAAB50EB75F00A84C1
:10071300AAF0EB75F00A84C454F04202AD027F03E1
:10072300121AAAAB4EEB75F00A84AAF0EB75F00A25
:1007330084C454F04202AD027F02121AAAAB4DEBFD
:1007430075F002A4FFAEF07C007D0A1200D8AA0562
:10075300AF03EF75F002A4FFAEF07C007D0A120038
:10076300D8EFC454F04202AD027F01121AAAE4FD8D
:04077300FF021AAABD
:1009CE007F131219BD8F4AE54A5403F52E534AFC84
:1009DE007F051219BDEFC413135403424AC3952E5B
:1009EE0050067404254AF54AEF5430FEC4540F7570
:1009FE00F00AA4F54BEF540F254BF54B154B7F0624
:100A0E001219BDEF541FFF5410FEC4540F75F00A97
:100A1E00A4F549EF540F2549F54915497F041219DC
:100A2E00BDEF543FFF5430FEC4540F75F00AA4F5C9
:100A3E004CEF540F254CF54C7F031219BDEFC454E7
:100A4E000F75F00AA4F550EF540F2550F5507F02A4
:100A5E001219BDEFC4540F75F00AA4F54EEF540FE2
:100A6E00254EF54E7F011219BDEFC4540F75F00AD5
:100A7E00A4F52EEF540F252EF52EC313F54D534F1F
:020A8E00F9224B
:071BA100434F02E4F54D2261
:041BBA00434F04226F
:041BBE00534FF92266
:0710ED00E54AFD7C00AF495C
:1010F400EFB40C005052901101F8282873021146E5
:1011040002112802114602113D0211460211400249
:1011140011460211460211430211460211490211FD
:10112400467F1F22AE04AF057C007D0412012DED25
:101134004C70037F1D227F1C227F1E227F1E227F74
:0B1144001E227F1F227F1E227F002240
:1017D700E54EC3943B5003054E22E4F54EE550C356
:1017E700943B5003055022E4F550E54CC394175041
:1017F70003054C22E4F54CE54F20E20312160422C0
:101604001210EDE54B2401FDE433FCEFFBC3ED9B2D
:101614007480F86C985003054B22E4F54BE549C3FC
:10162400940B5003054922E4F549E54AC3946350F9
:0816340003054A22E4F54A22F5
:03000000020C5C93
:0C0C5C00787FE4F6D8FD758160020CA3DF
:10008000BB010689828A83E0225002E722BBFE027E
:09009000E32289828A83E49322B1
:10009900BB010CE58229F582E5833AF583E022501C
:1000A90006E92582F8E622BBFE06E92582F8E22266
:0D00B900E58229F582E5833AF583E4932280
:1000C600BB010689828A83F0225002F722BBFE0119
:0200D600F32213
:1000D800BC000BBE0029EF8DF084FFADF022E4CC0C
:1000E800F875F008EF2FFFEE33FEEC33FCEE9DECD5
:1000F800984005FCEE9DFE0FD5F0E9E4CEFD22ED1B
:10010800F8F5F0EE8420D21CFEADF075F008EF2F64
:10011800FFED33FD4007985006D5F0F222C398FD55
:050128000FD5F0EA22F2
:10012D00C2D5EC30E709B2D5E4C39DFDE49CFCEEED
:10013D0030E715B2D5E4C39FFFE49EFE1200D8C38D
:10014D00E49DFDE49CFC80031200D830D507C3E488
:06015D009FFFE49EFE225C
:10016300BB010A89828A83E0F5F0A3E02250068767
:10017300F009E71922BBFE07E3F5F009E319228929
:0B018300828A83E493F5F0740193225C
:10018E00BB010789828A830202D5500B09C5F0276D
:10019E00F7C5F01937F722BBFE0D09F8E325F0F38A
:1001AE00C5F019E338F322F889828A837401932506
:0801BE00F0C5F0F8E4933822CB
:1001C600D083D082F8E4937012740193700DA3A3C8
:1001D60093F8740193F5828883E4737402936860DC
:0601E600EFA3A3A380DFDC
:1001EC00E709F60870FA8046E709F20870FA803ED3
:1001FC0088828C83E709F0A370FA807EE309F60805
:10020C0070FA8076E309F20870FA806E88828C832B
:10021C00E309F0A370FA806289828A83E0A3F6086E
:10022C0070FA805689828A83E0A3F20870FA804AB9
:10023C0080D280FA80C680D4806580F280318010B4
:10024C0080A680EA809A80A880DA80E280CA803119
:10025C0089828A83ECFAE493A3C8C582C8CCC5838F
:10026C00CCF0A3C8C582C8CCC583CC70E9800D89FD
:10027C00828A83E493A3F60870F9ECFAA9F0EDFBFB
:10028C002289828A83ECFAE0A3C8C582C8CCC583D4
:10029C00CCF0A3C8C582C8CCC583CC70EA80DD89FC
:1002AC00828A83E493A3F20870F980CE88F0ED245F
:1002BC0002B4040050C4F582EB2402B4040050BA1A
:0902CC00232345822390023C73B8
:101A5900E4FFFE120080600C0FEF70010E09E970BF
:051A6900F20A80EF22EB
:100C680002151BE493A3F8E493A34003F68001F272
:100C780008DFF48029E493A3F85407240CC8C3338D
:100C8800C4540F4420C8834004F456800146F6DF5C
:100C9800E4800B0102040810204080901BB2E47E1F
:100CA800019360BCA3FF543F30E509541FFEE49351
:100CB800A360010ECF54C025E060A840B8E493A318
:100CC800FAE493A3F8E493A3C8C582C8CAC583CA43
:100CD800F0A3C8C582C8CAC583CADFE9DEE780BEFB
:011BB500002F
:1002D500C5F0F8A3E028F0C5F0F8E58215827002B4
:0602E5001583E038F02251
:00000001FF
