:030003000213DE07
:1013DE00C0E0C0F0C083C082C0D075D000C000C0D5
:1013EE0001C002C003C004C005C006C0071217C664
:1013FE001213091219C5D007D006D005D004D00398
:10140E00D002D001D000D0D0D082D083D0F0D0E0A6
:01141E00329B
:03001B00021B6263
:011B62003250
:1019DB00E4F5A8758955D2A8D2A9D288D2AF75875C
:0519EB00807590FF2251
:10145F001219DB12161F121AB2121B491219381267
:10146F0015EA121AF6121983121A97EF6006120272
:10147F00EB1206B61219AF8F2DE52DB40103121A18
:0B148F0005E52DB402DF121A1980DA07
:10078A00013F017F0000000000000000023C017EE2
:10079A0001EC01ED00000298017D0296017C029CA9
:1007AA0002800282028402860288028A028C028EF7
:1007BA0002900292029400000000029A00000000D7
:1007CA00000002000202020402060208020A020CE7
:1007DA00020E01100211021302150317021A021C5B
:1007EA00021E02200222022402260228022A032CC6
:1007FA00022F023102330000000000000000029EB6
:10080A00000002400242024402460248014A024BE8
:10081A00024D014F0150025101530354025702592C
:10082A00025B02600262026402660268026A036C88
:10083A00026F027102730000000000000BF002FE5A
:08084A000C3F1E611E811EC15E
:031B4500012B036E
:03000B00020BDC09
:100BDC00C0E0C083C082C0D0E52A24FE6028146027
:100BEC003214604214604C1460672405706CE52963
:100BFC0030E10E90A00030E40574D0F08003745006
:100C0C00F0752A02801B90A000E4F0752A03758A07
:100C1C00AC8039E52930E20690A0007460F0752AAA
:100C2C0004758AEA802690A000E4F0752A05758A7E
:100C3C00C38019E52930E30E90A00030E50574F06F
:100C4C00F080037470F0752A06758AEA758CFF8043
:100C5C000990A000E4F0F52AC28CD0D0D082D083C9
:030C6C00D0E032A3
:1017C600752A01758AD3758CFFD28CE52930E60619
:1017D6005329BF432904E52930E70653297F53904F
:0217E600F722E8
:100AA3008F32E53264016009E53264026003020BB0
:100AB30042E532B401047F0380027F008F36E532C2
:100AC3007C00B401047D1480027D1E753E00753FD9
:100AD300007540357B007A00790812091A8E378F2A
:100AE30038E538453760457C007D0212012DC3741B
:100AF300509FF534E49EF53374082535F8E4F6E5A4
:100B03002AB536FBE532B401047F0180027F03126C
:100B13001653E5327E00B401047F0180027F037B1C
:100B2300007A007908AD34AC330205AFE52AB53657
:100B3300FBE532B401047F0180027F0312165322C6
:1002EB00E52AB405FB753302753436E52830E20395
:1002FB000204065403F53264027047121B408F321E
:10030B00E53275F00A84120D03120CFB7B007A00A8
:10031B0079337D2D120D0C121B3B8F327B007A0033
:10032B007933E53275F00A842430FD120D0C120C72
:10033B00FB7B007A0079337D2D120D0C121B1C02F6
:10034B0003EFE5326403704F121B3B8F327B007A55
:10035B00007933E53275F00A842430FD120D0C124E
:10036B000CFB7B007A0079337D2D120D0C121B4098
:10037B008F327B007A007933E53275F00A842430B2
:10038B00FD120D0C120CFB7B007A0079337D2D12C4
:10039B000D0C121B1C804D121B1C8F327B007A0024
:1003AB007933E53275F00A842430FD120D0C120CF2
:1003BB00FB7B007A0079337D2D120D0C121B3B8FCA
:1003CB00327B007A007933E53275F00A842430FDF4
:1003DB00120D0C120CFB7B007A0079337D2D120D64
:1003EB000C121B408F327B007A007933E53275F0AB
:1003FB000A842430FD120D0C120CFB75330275347C
:10040B005CE52830E60302049B121B598F35E52867
:10041B005430FFC4540FF532B40314E535D3940CA8
:10042B00400674F42535F535E535700375350C7BD1
:10043B00007A007933E53575F00A842430FD120D0E
:10044B000CE535120CFD7B007A0079337D3A120DE9
:10045B000C121B5C8F327B007A007933E53275F01E
:10046B000A842430FD120D0C120CFB7B007A0079F0
:10047B00337D3A120D0C121B5F8F327B007A0079A1
:10048B0033E53275F00A842430FD120D0C120CFB8F
:01049B00223E
:10091A008C3C8D3D8B398A3A893B1219F08F41E420
:10092A00F542F543F544F545C3E54595417480F82C
:10093A0065449840030209D1AB39AA3AA93B8545D7
:10094A0082854483120099FF5480FD3395E04D60FF
:10095A0010EF547F75F002A4244AF9740835F08028
:10096A0022AB39AA3AA93B8545828544831200996C
:10097A00FF3395E0FEEF25E0FFEE33FE744A2FF9D0
:10098A0074073EFA7BFF8B468A478948120080FD2E
:10099A007C002543FFEC3542FED3EF953DE53C64F0
:1009AA0080F8EE648098400AAB3EAA3FA940E5452C
:1009BA00801DED2543F543EC3542F5420545E545F5
:1009CA0070020544020932AB3EAA3FA940E5411232
:0709DA0000C6AE42AF43224C
:1015EA0012186A908000E4F090A000F0752A01F5C4
:1015FA0029752811FB7A0079087535207F30121A6F
:10160A00EC121A057B007A0079087535207F501292
:05161A001AEC021A1990
:100E7900852831EFF45228ED4228E53120E208E5D2
:100E89002830E2031216B9E53120E608E52830E6F4
:100E990003121686E5315433FFE5285433B5071498
:100EA900E53130E205E52830E20AE53130E608E5CA
:100EB9002820E6031202EBE52830E20320E603438B
:100EC9002940E52830E20630E6035329FBE52830BE
:0F0ED900E309E59030E307432980224390082284
:101A0500E50860047D028002E4FD7F02121B257F4C
:041A150001020AA31D
:101A1900E50860047D088002E4FD7F08121B257F2C
:041A290002020AA308
:10149A0078087C007D007BFF7A1A79411202B81223
:1014AA001A057B007A0079087F3012190078087CC7
:1014BA00007D007BFF7A1A79491202B8121A197B49
:0A14CA00007A0079087F5002190033
:1017E800E4F508121A057B007A0079087F3012198F
:1017F80000E4F508121A197B007A0079087F500274
:021808001900C5
:101354008F31E531C39408501CE531952B5038E5A5
:10136400314480F508E4F509121A197B007A0079F2
:10137400087F50801F74F82531F531D3952B501711
:10138400E5314480F508E4F509121A057B007A007A
:0813940079087F3012190022D4
:10186A00E4FFFEE42FFDEE34408D82F583743FF0F1
:0E187A000FBF00010EE4B507EAEEB404E6224B
:10165300AD07E4FBFAEDFEE42400FFEE3440CF2BAC
:10166300CF3A8F82F583743FF00BBB00010AE4B5D8
:1016730003E3EAB401DFBD01035329EFBD030353C1
:0316830029DF223A
:1016860075320275335CE52AB4030A858A34E58A25
:10169600B534F380F9E4FFE42533FDE5323440FC4C
:1016A600EF7A002DFDEA3C8D82F583743FF00FBF83
:0316B60010E5221A
:1016B900753202753336E52AB4030A858A34E58A18
:1016C900B534F380F9E4FFE42533FDE5323440FC19
:1016D900EF7A002DFDEA3C8D82F583743FF00FBF50
:0316E90010E522E7
:081B2500EFF45229ED422922E0
:1005AF008E398F3A8C3B8D3C8B3D8A3E893F121999
:1005BF00F08E408F41E53A7F00FEEF253CF545E593
:1005CF003B3EF544E4F542F543C3E5439541E54031
:1005DF006480F8E542648098400302067EAB3DAA32
:1005EF003EA93F854382854283120099FF5480FDC7
:1005FF003395E04D6010EF547F75F002A4244AF953
:10060F00740835F08022AB3DAA3EA93F8543828511
:10061F004283120099FF3395E0FEEF25E0FFEE33A2
:10062F00FE744A2FF974073EFA7BFF8B468A47897F
:10063F0048E4FFAB46AA47A948120080FEEFC39ECD
:10064F0050229000011200992FFE0545E545AC445C
:10065F0070020544142400FDEC34408D82F583EEC6
:10066F00F00F80CF0543E543700205420205D8E540
:10067F003A640145397014AB3DAA3EA93F12008080
:10068F0030E70543291080035329EFE53A6403450A
:10069F00397013AB3DAA3EA93F12008030E70443E7
:0706AF002920225329DF225C
:100CFB00E53275F00A84E5F07B007A007933243015
:010D0B00FDEA
:100D0C008B368A378938AF05EF3395E0FEEF25E057
:100D1C00FFEE33FE744A2FF974073E7539FFF53A2E
:100D2C00893BAB39FA900001120099FFAB36AA3718
:100D3C00A9381201632400FDE5F034408D82F5835F
:100D4C00EFF0E475F00112018EAB39AA3AA93B9091
:100D5C00000112009904FFAB36AA37A938120163BF
:100D6C002400FDE5F034408D82F583EFF0E475F05E
:040D7C000102018EE1
:041B4900E4F55F223E
:10198300121ABEEF600F121B4DE554B40107AD539D
:06199300AF521211BD224B
:0A1AE2008F528D53755403021A88C9
:1011BD008F2E8D2FE52E1201C612113C12113E12EB
:1011CD00074312004411F64612004811FB4C120061
:1011DD004D12004F11F152120053120C54120059BE
:1011ED0000001218AF2F02174DAF2F021779AF2F36
:1011FD00021546AD2FAF2E02049CAF2F02180AAF79
:0C120D002F020E04AD2FAF2E120852224B
:10174D008F30E53024AC600424107005121B5580D9
:10175D000BE53030E706FD7FFF120E79E53030E303
:0C176D00047D6180027D627F72021AE23E
:101779008F30E53024AC60092410700A121B5180A7
:1017890010121B34800BE53030E706FD7FF7120E8F
:08179900797D647F66021AE20B
:101546008F30E53024BE600E0470167D887F081249
:101556000E797D61801B7D807F08120E797D628009
:1015660010E53054C06008E530540FFF1213547D67
:07157600067F6C121AE2224D
:10049C008F308D31E531643F7065E53024BC60539D
:1004AC0024F7601F24FE603F24FC602324FA602B99
:1004BC00241160030205AE121B59EF4480FD7F68C6
:1004CC000205AB121B5CEF4480FD7F6D0205AB1285
:1004DC001B5FEF4480FD7F730205AB121B1CEF44C6
:1004EC0080FD7F790205AB121B3BEF4480FD7F6FD3
:1004FC000205AB121B40EF4480FD7F640205ABE5A7
:10050C00316449703FE53024BC602D24F76015241C
:10051C00FE602024FC601224FA60132411701C125B
:10052C0018A680171218C480121218E2800D121629
:10053C00EC8008121888800312182BE5302420FF59
:10054C007D06805BE53130E74F547FF532E5302492
:10055C00BC602224FC602524FB602824FE600F2450
:10056C00FC602724FA7028AF3212191C8021AF329C
:10057C00121B00801AAF32121A678013AF32121B93
:10058C000A800CAF32121B138005AF32121AD6E55B
:10059C00302420FF7D068007E5302420FF7D0612E5
:0305AC001AE2222E
:100E0400EF24F0602224FB601924FD604024FA6082
:100E14001124FD603F24F7601C240D705012149AB5
:100E240080471217E88029120D80EF60047D1A8034
:100E34003E7D07803A121ACAEF6009E4FF1217A137
:100E44007D0780077F011217A17D1A80221215B435
:100E54007D06801B12157D8F30E530B40103121A14
:100E640005E530B40203121A197D0680027D067F5F
:050E740074121AE222D5
:10180A00EF24EE600D24FA600E2407700D120FC447
:10181A008008120F568003120B437D067F63021A5B
:01182A00E2DB
:100852008F308D31E531B41008E4F55F7D23020954
:1008620016E53164187034E530B43C147408255F21
:10087200F8E4F6121A057B007A0079087F308012BC
:100882007408255FF8E4F6121A197B007A007908D9
:100892007F501219007D06AF308079E53130E77064
:1008A200E530643C7035E55F2401FFE433FEEF641C
:1008B200204E7014F527121A057B007A0079087F02
:1008C200301219007D06800F53317FAF5F055F74D0
:1008D200082FF8A6317D23AF308039E55F2401FF70
:1008E200E433FEEF64204E7014F527121A197B00D0
:1008F2007A0079087F501219007D06800F53317FEC
:10090200AF5F055F74082FF8A6317D23AF308004F6
:080912007D06AF30121AE2224B
:0300230002115C6B
:10115C00C0E0C0D075D000C000C00730984585995C
:10116C002CC298E551B40118AF55055574522FF89F
:10117C00A62C75997CE555B403067555007551027E
:10118C00E551B4041EE55564036012E52CB47E13DE
:10119C00AF55055574522FF8E6F599800675550034
:1011AC00755101309902C299D007D000D0D0D0E04F
:0111BC003200
:0C1AB200759890D2ACE4F55575510122F6
:0C1ABE00E551B402047F0180027F002289
:041B4D0075510122AB
:0F1A8800755104AF55055574522FF8E6F59922A4
:101A2D00EF6008439080000043904053907F00008A
:041A3D005390BF22E1
:101A780053907F0000439040000043908000002274
:10199900EF6005439080800353907F00004390409F
:0619A90000005390BF2274
:1019520043908000004390400000E59030E7047F10
:091962000180027F005390BF22B6
:09141F0025E0F541E4FBFD7F012D
:10142800AE07AF05EE6003121A2DE4FEE54130E782
:10143800047F0180027F00121999E54125E0F541FA
:101448000EBE08E8121952EB6003121A78EF700406
:071458007F0180027F0022EA
:10184B00AE07E4FCFB121952EC25E04FFC0BBB0876
:0F185B00F4AF06121999ED6003121A78AF042248
:100EE8008D378B388A39893AAC07EC12141FEF60BA
:100EF80057853741E4FBFDFF121428EF604AEC25C3
:100F0800E04401F541E4FB7D017F01121428EF6004
:100F180037E53BD39401401CE4FDFF12184BAB3876
:100F2800053AE53AAA397002053914F9EF1200C6F4
:100F3800153B80DD7D017F0112184BAB38AA39A91A
:0E0F48003AEF1200C67F0122121A787F0022B3
:10102F008B398A3A893BAC05EF12141FEF60538C52
:10103F0041E4FBFDFF121428EF6047E4F53DE53D69
:10104F00C3953C503AE53D2401FFE433FE7C00EFAD
:10105F00B53C08ECB506047B0180027B00C003ABF6
:10106F0039AA3AA93B853D82758300120099F54153
:10107F00D003E4FDFF121428EF6007053D80BF7F0A
:08108F000122121A787F0022F1
:101A41005048494C49505300504D353634342031BB
:041A5100363A3900E8
:10161F007B007A00792E753B027D107F50120EE809
:10162F007B007A007930753B017D127F50120EE8F6
:10163F00E52FB4380BE52EB44F06E5306401600397
:04164F001214D4227B
:1014D40075314F7532387B007A007931753C027D65
:1014E400107F5012102F7D017F12121A557D5C7FE0
:1014F40013121A557BFF7A1A79417F301219007B37
:0A150400FF7A1A79497F500219009E
:101A55008D33AD077B007A007933753C017F5002E9
:021A6500102F40
:10196B00AD077B007A00792F753B017F50120EE893
:08197B00EF7002F52FAF2F22DF
:101900008F338B348A3589361219F0EF04F53CABEE
:0C19100034AA35A936AD337F5002102FE9
:0A1AEC00AD0785353B7F50020EE880
:0A1AF600E4F557F556F559F55A22AC
:10130900E55754606044155AE55A703E74072556EE
:10131900F8E6FFB45F0974072556F8767F8025EF54
:10132900B42E0974072556F876208018E55730E55C
:101339000774072556F8765FE55730E607740725E1
:0B13490056F8762E435780755A192283
:10126F008B328A338934BF7E037F0022EF04F53639
:10127F00E536C3947F5034E53675F002A4244AF95D
:10128F00740735F0FA7BFF8B37F5388939120080F8
:10129F00FF6014E535C39F400EAB32AA33A934E586
:0E12AF00361200C67F0122053680C57F002260
:1012BD008B338A348935BF20010FEF14F537E537AD
:1012CD00C394204034E53775F002A4244AF974071D
:1012DD0035F0FA7BFF8B38F539893A120080FF60C3
:1012ED0014E536C39F400EAB33AA34A935E537124A
:0C12FD0000C67F0122153780C57F00224B
:101097008B328A33893453077FE52BB507037F00EB
:1010A70022EF04F536E52B2401FFE433FEC3E536D2
:1010B7009FEE6480F87480985036E53675F002A488
:1010C700244AF9740835F0FA7BFF8B37F5388939EC
:1010D700120080FF6016E535C39F4010E536448057
:1010E700AB32AA33A9341200C67F0122053680B578
:0310F7007F002255
:101219008B338A34893553077FEF70010FEF14FD43
:10122900C3ED64809480403BEDFF3395E0FEEF25EC
:10123900E0FFEE33FE744A2FF974083EFA7BFF8B08
:1012490037F5388939120080FF6015E536C39F40AC
:101259000FED4480AB33AA34A9351200C67F0122B1
:061269001D80BD7F002284
:10139C007B007A0079081219F08F31E531D3940073
:1013AC00400974072FF8E6F532E4F6753E00753FF8
:1013BC00007540567B007A0079087D147C00120978
:1013CC001A8F58E531D39400400774072531F8A6DD
:0213DC003222BB
:100D8000E55754036005E55730E126E55730E10BA0
:100D90007B007A0079087F501219007B007A007975
:100DA000087535207F30121AEC12139C755701809C
:100DB00024E55730E01F7B007A0079087F30121954
:100DC000007B007A0079087535207F50121AEC12EA
:100DD000139C7557027B007A0079081219F08F5620
:100DE00074082FF8E4F6F559435780E50830E70515
:100DF00043570480035357FBE55730E2047F0180DB
:040E0000027F00224B
:100F5600E5566069E5596003FF800774072556F872
:100F6600E6FFAC07E55720E206EC30E7027C20E519
:100F76005730E206EC20E702E4FCE55730E0047E59
:100F86001480027E1EC3EE9558F531E557AF047BFB
:100F9600007A00793030E20885313612121980065F
:100FA6008531361212BDEF601474072556F8A63047
:0E0FB600435780E559600653579FE4F55922D2
:100FC400E5566066E5596003FF800774072556F807
:100FD400E6FFAD07E55720E206ED30E7027D20E5A8
:100FE4005730E206ED20E702E4FDE55730E0047EE9
:100FF4001480027E1EC3EE9558FEE557AF057B00B4
:101004007A00793030E2078E3512109780058E35DC
:1010140012126FEF601474072556F8A630435780F8
:0B102400E559600653579FE4F5592280
:100B4300E5596003020BDBE5577C0030E0047D14BC
:100B530080027D1E753E00753F007540567B007A0E
:100B630000790812091AEFFD7C00E5577A0030E09E
:100B7300047B1480027B1EC3EB9DFDEA9CFCC3ED4A
:100B83009401EC64809480404F8F58E556C3941FC2
:100B93005046E5569400400974072556F8E6FF8051
:100BA300027F208F59D3ED9401EC64809480400F31
:100BB300755A1974082556F8765F435720800D75CA
:100BC3005A1974082556F8762E435740055643574D
:090BD3008074082556F8E4F622AE
:1015B400E55660312407F8E4F61556E5577C00300B
:1015C400E0047D1480027D1E753E00753F00754069
:1015D400567B007A00790812091A8F5853579FE4F2
:0615E400F5594357802277
:10157D00E556D39400400BE559600774072556F8DE
:10158D00E4F6E55730E0047F3080027F507B007A2F
:10159D00007908121900E55730E006E4F5577F0190
:0715AD0022E4F5577F022242
:1019AF00E55730E70E53577FE55730E0037F0122AD
:0619BF007F02227F0022DE
:0C1ACA00E55730E2047F0180027F00221B
:1017A100EF7005E55720E208EF6019E55720E214D4
:1017B100E4F508F556F559435780EF6004435704A3
:0517C100225357FB223A
:1019C500E54F20E110054DE54DB43209E4F54D1222
:0619D500171D434F08221C
:10193800E4F54AF549F54BF54CF550F54EF54D757E
:0A1948004F06FDFF121A550209E1D7
:0E1A9700E54F30E306534FF77F01227F002218
:0D1AA5008F4C8D508B4EE55EC313F54D2226
:071B2D008F4A8D498B4B220A
:10191C00EFC3946450158F4AE54A5403600DE549B2
:0C192C00B40108E54BB41C03754B1B22F2
:0A1B00001FEFC3940C50028F49221E
:101A67008F331210FA1533E533C39F500385334B79
:011A7700224C
:091B0A00EFC3943C50028F4C2201
:091B1300EFC3943C50028F5022F4
:0C1AD600EFC3943C50058F4EE4F54D2208
:1016EC00E54A2401FFE433FEC3EF9464EE64809476
:1016FC00804005E4F54A8002054AE54A5403600D32
:10170C00E549B40108E54BB41C03754B1B434F086A
:01171C0022AA
:10188800E5492401FFE433FEC3EF940CEE64809431
:0E189800804005E4F54980020549434F0822CF
:10182B001210FAE54B2401FDE433FCC3ED9F7480E9
:10183B00F86C984005E4F54B8002054B434F0822AA
:1018A600E54C2401FFE433FEC3EF9418EE64809404
:0E18B600804005E4F54C8002054C434F0822AB
:1018C400E5502401FFE433FEC3EF943CEE648094BE
:0E18D400804005E4F55080020550434F082285
:1018E200E54E2401FFE433FEC3EF943CEE648094A2
:0E18F200804005E4F54E8002054E434F08226B
:091B1C00E54A75F06484AFF02283
:051B3B00E54904FF2252
:051B4000E54B04FF224B
:031B5900AF4C226C
:031B5C00AF502265
:031B5F00AF4E2264
:1006B6007D80E4FF121A55E54B04FB75F00A84AA07
:1006C600F0EB75F00A84C454F04202E54A5403C4C0
:1006D600333354C04202AD027F05121A55AD4A7F2C
:1006E60013121A55E54904FB75F00A84AAF0EB7556
:1006F600F00A84C454F04202AD027F06121A55ABCA
:100706004CEB75F00A84AAF0EB75F00A84C454F039
:100716004202AD027F04121A55AB50EB75F00A8403
:10072600AAF0EB75F00A84C454F04202AD027F03CE
:10073600121A55AB4EEB75F00A84AAF0EB75F00A67
:1007460084C454F04202AD027F02121A55AB4DEB3F
:1007560075F002A4FFAEF07C007D0A1200D8AA054F
:10076600AF03EF75F002A4FFAEF07C007D0A120025
:10077600D8EFC454F04202AD027F01121A55E4FDCF
:04078600FF021A55FF
:1009E1007F1312196B8F4AE54A5403F52E534AFCC3
:1009F1007F0512196BEFC413135403424AC3952E9A
:100A010050067404254AF54AEF5430FEC4540F755C
:100A1100F00AA4F54BEF540F254BF54B154B7F0610
:100A210012196BEF541FFF5410FEC4540F75F00AD6
:100A3100A4F549EF540F2549F54915497F041219C9
:100A41006BEF543FFF5430FEC4540F75F00AA4F508
:100A51004CEF540F254CF54C7F0312196BEFC45426
:100A61000F75F00AA4F550EF540F2550F5507F0291
:100A710012196BEFC4540F75F00AA4F54EEF540F21
:100A8100254EF54E7F0112196BEFC4540F75F00A14
:100A9100A4F52EEF540F252EF52EC313F54D534F0C
:020AA100F92238
:071B3400434F02E4F54D22CE
:041B5100434F0422D8
:041B5500534FF922CF
:0710FA00E54AFD7C00AF494F
:10110100EFB40C00505290110EF8282873021153BD
:1011110002113502115302114A02115302114D02FB
:1011210011530211530211500211530211560211AF
:10113100537F1F22AE04AF057C007D0412012DED0B
:101141004C70037F1D227F1C227F1E227F1E227F67
:0B1151001E227F1F227F1E227F002233
:10171D00E54EC3943B5003054E22E4F54EE550C310
:10172D00943B5003055022E4F550E54CC3941750FB
:10173D0003054C22E4F54CE54F20E20312150E2271
:10150E001210FAE54B2401FDE433FCEFFBC3ED9B17
:10151E007480F86C985003054B22E4F54BE549C3F3
:10152E00940B5003054922E4F549E54AC3946350F0
:08153E0003054A22E4F54A22EC
:03000000020C6F80
:0C0C6F00787FE4F6D8FD75815F020CB6BA
:10008000BB010689828A83E0225002E722BBFE027E
:09009000E32289828A83E49322B1
:10009900BB010CE58229F582E5833AF583E022501C
:1000A90006E92582F8E622BBFE06E92582F8E22266
:0D00B900E58229F582E5833AF583E4932280
:1000C600BB010689828A83F0225002F722BBFE0119
:0200D600F32213
:1000D800BC000BBE0029EF8DF084FFADF022E4CC0C
:1000E800F875F008EF2FFFEE33FEEC33FCEE9DECD5
:1000F800984005FCEE9DFE0FD5F0E9E4CEFD22ED1B
:10010800F8F5F0EE8420D21CFEADF075F008EF2F64
:10011800FFED33FD4007985006D5F0F222C398FD55
:050128000FD5F0EA22F2
:10012D00C2D5EC30E709B2D5E4C39DFDE49CFCEEED
:10013D0030E715B2D5E4C39FFFE49EFE1200D8C38D
:10014D00E49DFDE49CFC80031200D830D507C3E488
:06015D009FFFE49EFE225C
:10016300BB010A89828A83E0F5F0A3E02250068767
:10017300F009E71922BBFE07E3F5F009E319228929
:0B018300828A83E493F5F0740193225C
:10018E00BB010789828A830202D5500B09C5F0276D
:10019E00F7C5F01937F722BBFE0D09F8E325F0F38A
:1001AE00C5F019E338F322F889828A837401932506
:0801BE00F0C5F0F8E4933822CB
:1001C600D083D082F8E4937012740193700DA3A3C8
:1001D60093F8740193F5828883E4737402936860DC
:0601E600EFA3A3A380DFDC
:1001EC00E709F60870FA8046E709F20870FA803ED3
:1001FC0088828C83E709F0A370FA807EE309F60805
:10020C0070FA8076E309F20870FA806E88828C832B
:10021C00E309F0A370FA806289828A83E0A3F6086E
:10022C0070FA805689828A83E0A3F20870FA804AB9
:10023C0080D280FA80C680D4806580F280318010B4
:10024C0080A680EA809A80A880DA80E280CA803119
:10025C0089828A83ECFAE493A3C8C582C8CCC5838F
:10026C00CCF0A3C8C582C8CCC583CC70E9800D89FD
:10027C00828A83E493A3F60870F9ECFAA9F0EDFBFB
:10028C002289828A83ECFAE0A3C8C582C8CCC583D4
:10029C00CCF0A3C8C582C8CCC583CC70EA80DD89FC
:1002AC00828A83E493A3F20870F980CE88F0ED245F
:1002BC0002B4040050C4F582EB2402B4040050BA1A
:0902CC00232345822390023C73B8
:1019F000E4FFFE120080600C0FEF70010E09E97029
:051A0000F20A80EF2254
:100C7B0002145FE493A3F8E493A34003F68001F21C
:100C8B0008DFF48029E493A3F85407240CC8C3337A
:100C9B00C4540F4420C8834004F456800146F6DF49
:100CAB00E4800B0102040810204080901B45E47E79
:100CBB00019360BCA3FF543F30E509541FFEE4933E
:100CCB00A360010ECF54C025E060A840B8E493A305
:100CDB00FAE493A3F8E493A3C8C582C8CAC583CA30
:100CEB00F0A3C8C582C8CAC583CADFE9DEE780BEE8
:011B4800009C
:1002D500C5F0F8A3E028F0C5F0F8E58215827002B4
:0602E5001583E038F02251
:00000001FF
